:020000040800F2
:1000000028F0002055020008C5460008F528000821
:10001000C146000879080008A17A00080000000025
:10002000000000000000000000000000E14800089F
:10003000690F000800000000D146000809490008C7
:100040006F0200086F0200086F0200086F020008CC
:100050006F0200086F0200086F0200086F020008BC
:100060006F0200086D0F00086F0200086F020008A1
:100070006F0200086F0200086F0200086F0200089C
:100080006F0200086F0200086F0200086F0200088C
:100090006F0200086F0200086F0200086F0200087C
:1000A0006F0200086F0200086F0200086F0200086C
:1000B0006F0200086F020008E94900086F0200089B
:1000C0006F0200086F0200086F0200086F0200084C
:1000D0006F0200086F0200086F0200086F0200083C
:1000E0006F0200086F0200086F0200086F0200082C
:1000F0006F0200086F0200086F0200086F0200081C
:100100006F0200086F020008F54900086F0200083E
:100110006F0200086F0200086F0200086F020008FB
:100120006F0200086F0200086F0200086F020008EB
:100130006F0200086F0200086F0200086F020008DB
:100140006F0200086F0200086F0200086F020008CB
:100150006F0200086F0200086F0200086F020008BB
:100160006F0200086F0200086F0200086F020008AB
:100170006F0200086F0200086F0200080000000014
:100180006F0200086F02000800F002F800F052F859
:1001900014A696E8000CB244B344DA4501D100F04D
:1001A00049F8BAE80F000FA696E83000A5EB040561
:1001B00004EB0607AAEB0704A7F101074FEA1515A0
:1001C0004FEA3414A4F10104AC4201D300F032F838
:1001D00013F0010F18BFFB1A43F0010300F001F800
:1001E000DBE71847D80F0400F80F0400103A24BFCB
:1001F00078C878C1FAD8520724BF30C830C144BF8C
:1002000004680C6070470000704700000023002461
:1002100000250026103A28BF78C1FBD8520728BF16
:1002200030C148BF0B6070471FB53BF02AFF1FBDB0
:1002300010B510BD00F010FA1146FFF7F5FF32F0CF
:10024000FFF800F02EFA03B4FFF7F2FF03BC00F052
:1002500031FA00000948804709480047FEE7FEE7F9
:10026000FEE7FEE7FEE7FEE7FEE7FEE7FEE7FEE766
:1002700004480549054A064B70470000D549000867
:100280008901000828EA002028F0002028EC00203E
:1002900028EC002053EA020C00F069802DE9F04BB5
:1002A0004FF00006002B1FBFB3FA83F503FA05F4E5
:1002B00024FA05F65E4012BF1643B2FA82F502FA3E
:1002C00005F4C5F120051EBF22FA05FC44EA0C0422
:1002D000203556EA044C4FEA144418BF641C4FF012
:1002E00000084FF00009904271EB030C39D300294C
:1002F00019BFB1FA81F701FA07F6B0FA80F700FAF0
:1003000007F6C7F120071EBF20FA07FC46EA0C06D5
:100310002037B6FBF4FCA7EB0507103F07F01F0BD7
:10032000CBF120062CFA06F60CFA0BFB44BFB346C1
:100330000026202FA4BF5E464FF0000B5BEA060CA0
:1003400008BF4FF0010B19EB0B0948EB0608ABFB9C
:10035000027C06FB02CC0BFB03CCC01B71EB0C0137
:10036000C1E70B46024641464846BDE8F08B13B54F
:10037000084318BF4FF0FF300146AFF30080BDE8DF
:100380001C40704740EA0103024630B59B0710D17C
:100390004FF0013400E008C208C91D1B9D4315EA57
:1003A000C41FF8D013F0FF0102F8011B0DD01B0A87
:1003B000F8E711F8013B002B02F8013B05D011F8DA
:1003C000013B002B02F8013BF3D130BD10B5431CBB
:1003D00002E010F8011B71B18107FAD14FF0013230
:1003E00002C88C1A8C4314EAC211F9D0C01A0A064A
:1003F00003D0C01E10BDC01A10BD0A0401D0801E5B
:1004000010BD0902FCD0401E10BD032A40F230800E
:1004100010F0030C00F0158011F8013BBCF1020F45
:10042000624498BF11F801CB00F8013B38BF11F8C6
:10043000013BA2F1040298BF00F801CB38BF00F8DD
:10044000013B11F0030300F02580083AC0F008805A
:1004500051F8043B083A51F804CBA0E80810F5E73E
:10046000121D5CBF51F8043B40F8043BAFF3008021
:10047000D20724BF11F8013B11F801CB48BF11F896
:10048000012B24BF00F8013B00F801CB48BF00F866
:10049000012B704710B5203AC0F00B80B1E818501E
:1004A000A0E81850B1E81850A0E81850203ABFF45E
:1004B000F5AF5FEA027C24BFB1E81850A0E81850FD
:1004C00044BF18C918C0BDE810405FEA827C24BF51
:1004D00051F8043B40F8043B08BF7047D20728BFDF
:1004E00031F8023B48BF11F8012B28BF20F8023B2E
:1004F00048BF00F8012B704702F0FF0343EA0322D4
:1005000042EA024200F00AB802F0FF0343EA032283
:1005100042EA024200F024B84FF000020429C0F081
:10052000128010F0030C00F01B80CCF1040CBCF125
:10053000020F18BF00F8012BA8BF20F8022BA1EB77
:100540000C0100F00DB85FEAC17C24BF00F8012B5C
:1005500000F8012B48BF00F8012B70474FF0000254
:1005600000B5134694469646203922BFA0E80C50A9
:10057000A0E80C50B1F12001BFF4F7AF090728BF84
:10058000A0E80C5048BF0CC05DF804EB890028BF00
:1005900040F8042B08BF704748BF20F8022B11F029
:1005A000804F18BF00F8012B7047000000000000CA
:1005B00030B44FF0013C50F8042B51F8043BCCFA16
:1005C00052F4D51A20D1FCB950F8042B51F8043B51
:1005D000CCFA52F4D51A17D1B4B950F8042B51F80B
:1005E000043BCCFA52F4D51A0ED16CB950F8042B56
:1005F00051F8043BCCFA52F4D51A05D1002CDAD0CC
:1006000030BC4FF00000704729BAB1FA81F111F007
:100610001801D1F120008440F2D1CA40CB4012F041
:10062000FF0213F0FF0330BCD01A704770477047C9
:10063000704710B500F008F8006810BD10B504460A
:1006400000F002F8046010BD00487047F800002078
:1006500000487047F80000207546FFF7F9FFAE46E6
:1006600005006946534620F00700854618B020B5BE
:10067000FFF7FEFDBDE820404FF000064FF00007F9
:100680004FF000084FF0000BAC46ACE8C009ACE8F6
:10069000C009ACE8C009ACE8C00921F007018D46EB
:1006A000704710B50446AFF300802046BDE8104007
:1006B000FFF7C9BD01491820ABBEFEE726000200C6
:1006C00070470000B0B582B002F0C8FA40F2347052
:1006D000C2F2000002F010F940F2D570C0F600003E
:1006E00002F04AFB40F61100C0F6000002F032FBB7
:1006F00040F61500C0F6000002F032FB40F619008B
:10070000C0F6000002F032FB40F2EC70C2F20000D2
:1007100001F008FF0BF0B4FA02F01EFC4FF4784031
:1007200002F030FB40F2B040C2F200001F21018015
:1007300040F28800C2F200000021018024F086F817
:100740002DF01AF92DF03CF916F06CFE16F0BEFEF5
:1007500013F0C6FD0A210A2204462CF00DFD2046A6
:10076000782132222CF07CFD204624F07FFA0921EA
:1007700000220023054627F093FF10A1284625F00C
:10078000A9FC16F04FFE16F0A1FE24F06FFA0DA1A1
:10079000054625F09FFC284609210022002327F06A
:1007A0007FFF6FF0130C204629460B220023CDF863
:1007B00000C027F0A1FF02B0B0BD00BF5465737444
:1007C0000000000048656C6C6F20776F726C6421CC
:1007D0000000000000B1704780B505F0F7F8002870
:1007E000BDE8804008BF70474AF22070C2F20000A6
:1007F000012101707047000040F23474C2F200041D
:10080000204602F07BF90A2032F040F9F8E70000B8
:100810007047000070470000704700004AF22074E3
:10082000C2F20004002504E030F096FF052032F00B
:100830002DF905F0CBF80028F6D020780028F3D069
:1008400025700BF05BFA05F0C7F80BF05FFA16F0B5
:10085000E9FD16F03BFE0028E6D016F0E3FD16F0A9
:1008600035FE2AF025FEDFE780B502F005FA01200B
:10087000BDE8804030F0ECBEFEE700002DE9F04F0F
:1008800087B00022C0F60602106844F63141C4F277
:100890004131884240F0B580136808250093042355
:1008A000C0F60603C0F606051B682D6848F2203125
:1008B000CDE901350C231025C0F60603C0F6060568
:1008C0001B682D6842F2C809CDE9033514231825A9
:1008D000C0F60603C0F606051B682D6841F2640ADF
:1008E00048F6320B4CF21948CEF6B851C3F66E39C1
:1008F000C1F6B75AC0F6DB6BC0F26D78CDE90535AD
:100900004FF0FF366FF0020568464719F8783B79DB
:10091000704081EA5006C2074FEA407497F805E03C
:1009200008BF460881EA56025FEA807C08EAE47460
:1009300058BF7208070748BF84EA0B04C70648BFC0
:1009400084EA0A04800648BF84EA090484EA921013
:1009500044F29014B706C7F2DC6448BF60409206C8
:1009600048BF4840584081EA5002C30708BF4208C8
:10097000870781EA52034FEA407758BF530808EAD5
:10098000E777060748BF87EA0B07C60648BF87EA2E
:100990000A07800648BF87EA090787EA931092068C
:1009A00048BF60409A0648BF484080EA0E0081EA8E
:1009B0005002C30708BF4208870781EA52034FEA83
:1009C000407758BF530808EAE777060748BF87EA29
:1009D0000B07C60648BF87EA0A07800648BF87EAB2
:1009E000090787EA9316900648BF6640980605F106
:1009F000030548BF4E40152D86D106987040013042
:100A000004D0002007B0BDE8F08F00BF0020C0F682
:100A10000600406807B0BDE8F08F00002DE9F04FF8
:100A200088B00024C0F60604216844F63142C4F2BE
:100A30004132914240F0BF80246800900194042428
:100A40000820C0F60604C0F60600246806680C20DC
:100A5000C0F60600CDE9024604681020C0F6060084
:100A600006681420CDE904461826C0F60600C0F634
:100A700006060468366848F2203141F2640B48F6F5
:100A8000320C4CF2194ECEF6B851C1F6B75BC0F637
:100A9000DB6CC0F26D7ECDE906464FF0FF386FF09B
:100AA000020600BF01A8841994F803A094F80490EA
:100AB00088EA0A0781EA5702F807647908BF7A08CA
:100AC000BB074FEA477381EA52000EEAE37358BF4F
:100AD00050083D0748BF83EA0C03FD0648BF83EA80
:100AE0000B0342F2C808BD06C3F66E3848BF83EA5E
:100AF000080383EA9013920644F2901AC7F2DC6A64
:100B000048BF83EA0A03800648BF4B4083EA0900D6
:100B100081EA5002C30708BF4208850781EA5203F1
:100B20004FEA407558BF53080EEAE575070748BFFE
:100B300085EA0C05C70648BF85EA0B05800648BF55
:100B400085EA080585EA9310920648BF80EA0A0004
:100B50009A0648BF4840604081EA5002C30708BF78
:100B60004208840781EA52034FEA407458BF530891
:100B70000EEAE474050748BF84EA0C04C50648BFC2
:100B800084EA0B04800648BF84EA080484EA9318C8
:100B9000900648BF88EA0A08980606F1030648BF8F
:100BA00088EA0108152E7FF47DAF0798009F80EA40
:100BB0000800013004D0002008B0BDE8F08F00BF6D
:100BC0000820C0F6060000680C2110221423C0F68D
:100BD0000601C0F60602C0F60603096812681B6823
:100BE0000FC7012008B0BDE8F08F00002DE9F04FDD
:100BF0008FB00021C0F6060144F631470A6848F27A
:100C0000203BC4F2413748F632084CF21949CEF67F
:100C1000B85BC0F6DB68BA42C0F26D7940F0B880CC
:100C20000A68082302920422C0F60602C0F60603F0
:100C300012681B6842F2C80CCDE903230C22102372
:100C4000C0F60602C0F6060312681B6844F2901153
:100C5000CDE9052314221823C0F60602C0F60603C8
:100C600012681B686FF00205CDE907234FF0FF33D0
:100C7000C3F66E3CC7F2DC61019000BF02A84219C6
:100C8000D478167963408BEA5304DF074FEA437048
:100C900092F805A008BF5C088BEA54075FEA837EE0
:100CA00009EAE07041F2640E58BF67081A0748BFAE
:100CB00080EA0800C1F6B75EDA0648BF80EA0E0097
:100CC0009A0648BF80EA0C0080EA9710A20648BF47
:100CD0004840BA0648BF80EA0B0070408BEA5002D9
:100CE000C30708BF420887078BEA52034FEA4077E1
:100CF00058BF530809EAE777060748BF87EA08079D
:100D0000C60648BF87EA0E07800648BF87EA0C0779
:100D100087EA9310920648BF48409A0648BF80EA87
:100D20000B0080EA0A008BEA5002C30708BF4208A2
:100D300083074FEA40738BEA520709EAE37358BF0F
:100D40005708060748BF83EA0803C60648BF83EA78
:100D50000E03800648BF83EA0C0383EA97139006CC
:100D600048BF4B40B80605F1030548BF83EA0B03B3
:100D7000152D83D1089844F6314758400130019829
:100D800040F20002C4F24137C0F6060200F0E680ED
:100D9000CE46C14601230022CDE901370393D0E9B5
:100DA00002370892D0E9006242F2C80C41F26408AE
:100DB000CDE906374FF0FF336FF00200C3F66E3C0B
:100DC000C1F6B758CDE9046202A90A18D778167996
:100DD0007B408BEA5307DC07527908BF5F089D0709
:100DE0008BEA57044FEA437558BF7C080EEAE57555
:100DF0005FEA037A48BF85EA0905D90648BF85EA54
:100E00000805990648BF85EA0C0585EA9411BB06DA
:100E100044F29017C7F2DC6748BF7940A30648BF89
:100E200081EA0B0171408BEA5103CC0708BF4B08E4
:100E30008D078BEA53044FEA417558BF5C080EEAF0
:100E4000E5750E0748BF85EA0905CE0648BF85EA65
:100E50000805890648BF85EA0C0585EA94119B06BA
:100E600048BF7940A30648BF81EA0B0151408BEA95
:100E70005102CB0708BF4A088B074FEA41738BEA40
:100E800052040EEAE37358BF54080D0748BF83EAC3
:100E90000903CD0648BF83EA0803890648BF83EAF1
:100EA0000C0383EA9413910648BF7B40A10600F12E
:100EB000030048BF83EA0B03152885D10024DE43D5
:100EC0000B94099400F0F8FC07200C9001200D9081
:100ED00002200E900AA809A90A9400F0AFFB00F0C6
:100EE00073FC00F0E9FC002444F63142C0F606042D
:100EF000C4F2413202202146002300F06FFC019A27
:100F0000211D0220002300F069FC049A04F108016D
:100F10000220002300F062FC059A04F10C0102207B
:100F2000002300F05BFC069A04F11001022000236C
:100F300000F054FC079A04F114010220002300F091
:100F40004DFC04F1180102203246002300F046FC5B
:100F500000F03AFC01200FB0BDE8F08F5268CE4699
:100F6000C146531C17E7000070470000082000F03E
:100F7000BDBC000072B600BFFEE70000F0B581B056
:100F800040F2C807044643F60C46C2F200070020B0
:100F9000C4F20206F86100F091FD3168C9031BD468
:100FA0003068C0071CBF01203060306810F0F20FBD
:100FB00030D03068C00631D43068800637D430680D
:100FC00040063DD43068000643D43068800749D4D9
:100FD000012001B0F0BD00BFC4B10546601C10D1B6
:100FE0003068C003DCD53068C00344BF30685FEAB6
:100FF000C030D5D53068C003F2D4D1E73068C00323
:10100000CED500F05BFD401BA042F7D9032001B014
:10101000F0BD00BF002001B0F0BD00BFF86940F096
:101020001000F8611020306030688006C7D5F8697C
:1010300040F00800F8612020306030684006C1D5DB
:10104000F86940F00400F861402030603068000624
:10105000BBD5F86940F00200F8618020306030684C
:101060008007B5D5F86940F02000F86102203060B3
:10107000012001B0F0BD000070B581B000220092E7
:1010800090F83C20012A03D1022001B070BD00BFBE
:10109000D1F800E001221FFA8EFC4FEA4C0380F8E1
:1010A0003C200EEB4E0213FA8EF31024BEF1090F12
:1010B00088BFA3F11E0288BF0C24036807251E59B0
:1010C000954026EA05051D518D681E5905FA02F264
:1010D00032431A514968062906D801EB81014A1F9B
:1010E000194651F8345F0EE00C2901EB810105D857
:1010F000A1F12302194651F8305F04E0A1F1410249
:10110000194651F82C5F1F24944025EA04040C6012
:101110000CFA02F20C6842F2043CC4F2010C2243C5
:10112000ACF54174A3420A603ED1BEF1120F07D163
:10113000DCF8001041F48001CCF8001034E000BF6E
:101140002EF0010110292FD1DCF80010BEF1100F94
:1011500041F40001CCF8001026D140F28C01C2F21B
:10116000000109684DF68362C4F21B32A1FB021232
:10117000910C01EB8101490000910099A1B1009906
:1011800001390091009979B10099013900910099D4
:1011900051B1009901390091009929B100990139A3
:1011A000009100990029EAD1002180F83C1000202C
:1011B00001B070BD0068C06C70470000002804BF1B
:1011C0000120704710B5016C00293DD0016CC906A3
:1011D00045D4016C41F202129143023142F20432D1
:1011E0000164C4F20102116821F4403111601368F6
:1011F00090E812102343D0F810E013604A680124ED
:1012000022F480724A604A68C0F6007442EA0E22F4
:101210004A604A6822F040724A604A6842EA0C0218
:101220004A608A6822F400628A60C2688B681A4346
:101230008A60826A8B68A24223F070638B608B683D
:1012400010D123F0405216E0044600F065F8204625
:101250000021616484F83C10016CC906B9D50121F4
:1012600053E000BF1A438A608A6822F040528A60C5
:10127000C26A8B681A438A608A6822F002028A6016
:101280008A68037E90F8204042EA43028A604A68F6
:1012900084B142F400624A604A684EF2000322F4CC
:1012A00060424A60426ACFF6FF734C6803EB4232F9
:1012B000224301E022F400624A60CA6A40F2000C54
:1012C00022F47002CA62C3694269CFF6F07CCC6A2C
:1012D0000CEB03532343CB628B6823F400738B60C6
:1012E00090F830308C6844EA43238B608B6823F499
:1012F00080638B608B6843EA82228A6000214164AC
:10130000026C012363F301020264002280F83C2096
:10131000BDE810400846704780B586B042F2000133
:101320000068C4F20101002288420592CDE903223F
:101330000292019202D006B080BD00BF43F6300099
:101340000092C4F20200436943F48073436143692D
:1013500003F480730093009B0092036843F0010341
:101360000360006800F00100009000980320CDE9C0
:10137000010001F5604001A9039200F0C3FA06B034
:1013800080BD000070B5044600680D4682685205B5
:1013900044BF80685FEAC05038D400F08FFB2168FA
:1013A0000A68920749D40646681C3CD0DDB9086833
:1013B000800721D5086880073FD4086880071BD5BF
:1013C0000868800739D40868800715D50868800741
:1013D00033D4086880070FD508688007E7D52CE06C
:1013E0000868800729D400F069FB801B2168A842A7
:1013F000F6D908688007F3D4206C40F0040020641C
:10140000002084F83C00032070BD00BF206C40F039
:1014100020002064002084F83C00012070BD00BF43
:101420000868800709D40868800706D40868800720
:101430005CBF08685FEA8070F2D56FF01200086048
:10144000206C40F400702064886810F0405F01D088
:10145000002070BD207E0028FAD1C86A10F4700FF9
:1014600002D088684005F3D4206C20F4807020649A
:10147000206CC004ECD4206C40F0010020640020FB
:1014800070BD000010B581B00021009190F83C10B3
:10149000012903D1022001B010BD00BF0468012161
:1014A00080F83C10214651F8083FDB0729D10B6832
:1014B0004DF6836243F001030B6040F28C03C2F2ED
:1014C00000031B68C4F21B32A3FB02239A0C02EB3D
:1014D00042020092009AA2B1009A013A0092009A48
:1014E0007AB1009A013A0092009A52B1009A013AF8
:1014F0000092009A2AB1009A013A0092009A002ABA
:10150000EAD10A68036CD2070CD143F010010164E0
:1015100000F1440101200A6810430860002001B076
:1015200010BD00BF40F2017223EA020202F5807290
:1015300002646268520504D5026C012363F30D3224
:101540000264026C4FF0000E0023D20444BF426CD0
:1015500022F0060342F2043C436480F83CE06FF062
:101560002200C4F2010C2060DCF80000C0060DD09F
:10157000ACF5417084422BD14FF60450CFF6FF708A
:101580005CF8000010F0405F22D125E042F200003C
:10159000C4F20100844217D042F20020C4F20100DC
:1015A00084420DD042F20010C4F2010084420FD1F7
:1015B000DCF80000C00607D0ACF58270844207D189
:1015C000DCF80000C00603D4086810F0405F03D0C8
:1015D000002001B010BD00BF4FF080409BE700002D
:1015E00090F83C10012904BF0220704701688A6806
:1015F00022F001028A608968C90705D1016C41F2B5
:101600000112914301310164002180F83C10002057
:1016100070470000B0B5044600F050FA054640F2AD
:101620000000C2F200000078611C18BF044400BF33
:1016300000F044FA401BA042FAD3B0BD2DE9F043BC
:1016400081B040F2C808C2F2000898F81820012AB8
:1016500004D1022001B0BDE8F08300BF054601209F
:1016600088F818004CF250308946FFF787FC28B103
:10167000002188F8181001B0BDE8F0834FF0FF306A
:10168000C9F80000286843F610470128C4F2020791
:101690001CD128693968000221F440713960396829
:1016A00080B241F0040139603968084340F4803069
:1016B00038604CF25030FFF761FC396821F00401CA
:1016C000396057F8101C89053BD452E0D5E9026017
:1016D0003044864230D2F000841C00BF28694FF4A9
:1016E0004072C1B2032939684FEA002021F44071E9
:1016F0003960396838BF82B241EA02003860386820
:1017000020F078003860386820433860386840F44A
:10171000803038604CF25030FFF730FC39680028D8
:1017200021F07A01396047D1D5E902010136084438
:10173000864204F10804D1D3002057F8101C890513
:1017400017D557F8101C21F4007147F8101C57F8F2
:10175000101C41F4006147F8101C57F8101C21F4CC
:10176000006147F8101C57F8101C41F4007147F84D
:10177000101C57F8101C49057FF57AAF57F8101C5C
:1017800021F4806147F8101C57F8101C41F4805177
:1017900047F8101C57F8101C21F4805147F8101C12
:1017A00057F8101C41F4806147F8101C002188F89C
:1017B000181001B0BDE8F083C9F8006057F8101C9C
:1017C0008905BED4D5E7000043F61041C4F20201FA
:1017D000086840F0004200200A6070472DE9F0419F
:1017E00040F2C804C2F20004277E012F04BF022089
:1017F000BDE8F0810546012020764CF25030984635
:101800000F461646FFF7BAFB20B100212176BDE84E
:10181000F08100BF2A46022D43F61045C4F20205AE
:101820001ED0012A314638460CD03ABB2A6822F431
:1018300040722A602A682A602A6842F001022A60FF
:1018400001702CE02A6822F440722A602A6842F46F
:1018500080722A602A6842F001022A6001801EE03C
:10186000286820F440702860286840F400702860E0
:10187000286840F0010028603E6010E02A6822F4E9
:1018800040722A602A6842F440722A602A6842F054
:1018900001022A600160BFF36F8FC0F804804CF230
:1018A0005030FFF76BFB296821F00101296000210E
:1018B0002176BDE8F081000043F60440C4F2020046
:1018C000C168B1F1FF3FC4BF0020704740F223114F
:1018D000C4F26751016048F6AB11CCF6EF510160DC
:1018E000C068C00F704700007047000043F6144105
:1018F000C4F201010A68024214BF08607047FFF792
:10190000F3BF00002DE9F04F83B000F1200200F199
:101910003E4741F60045009207F1FF77C4F2020509
:1019200008224FEAB726A84208BF072200254FF039
:1019300000084FF00009072E38BF4FEAB722019286
:101940000AE000BF09F1010908F10208B9F1100F1E
:1019500005F1040500F0A2800F68012202FA09FED9
:1019600017EA0E0AEED0D1F804C003220CF00307E8
:101970007E1E02FA08F4012E6FEA040B12D8846866
:10198000CE6804EA0B0406FA08F63443846044681F
:1019900024EA0E06CCF3001404FA09F42643466048
:1019A00004E000BF032F01D103271EE0C6688C6846
:1019B00006EA0B0604FA08F42643022FC66014D187
:1019C0006FF00302009E02EA590756F807C005F0BF
:1019D0001C040F220B69A2402CEA0202A3401A4306
:1019E000F251D1F804C00CF00307026807FA08F3BB
:1019F00002EA0B021A431CF4403F0260A2D000220C
:101A000043F644030292C4F202031A6843F6004408
:101A100042F480421A601A68C4F2010402F480425F
:101A20000292029A29F003024FF6084C2244CFF6A4
:101A3000FF7C52F80C3005F00C070F26BE40B34374
:101A4000019E06FA07F73B4342F80C30A2684B6848
:101A500042EA0A0743F60C4CDE0258BF22EA0A07A4
:101A6000A760C4F2010CDCF800209E0242EA0A07DB
:101A700058BF22EA0A07CCF8007062689E0342EA67
:101A80000A0758BF22EA0A0767602268DB0342EAB6
:101A90000A0758BF22EA0A07276053E703B0BDE8E8
:101AA000F08F00000069084018BF01207047000057
:101AB000002A08BF09048161704700004EF22830F7
:101AC000C2F200000068704740F200004EF2283178
:101AD000C2F20000C2F2000100780A6810440860F7
:101AE0007047000080B543F60040C4F20200016870
:101AF00041F400710160016841F480610160016896
:101B000041F480710160032000F0C2F80F2000F062
:101B100005F800F05DF8002080BD000070B586B0CB
:101B2000002543F640010195C4F202010A6804460B
:101B300042F004020A60096801A801F00401019161
:101B40000199694600F066F9049E002E18BF01262F
:101B500000F080F94DF68361B040C4F21B31A0FB68
:101B600001014FF0FF3000EB914140F2A47040F6CC
:101B70000002C2F20000C4F2000240F2E733C0E902
:101B80000021C0E902530561856100F079FC08B1CC
:101B900006B070BD40F2A470C2F2000000F0C2FCBA
:101BA0000028F5D11E2000F035F80F2C0CD81E208F
:101BB0002146002200F040F840F204010020C2F269
:101BC00000010C6006B070BD012006B070BD0000C1
:101BD00082B0002043F640010190C4F202014A683D
:101BE00042F480424A604A6802F480420192019ABB
:101BF00000900868002240F08050086008680F21BB
:101C000000F08050009000986FF0010002B000F0EA
:101C100013B80000002848BF704700F01F010122E0
:101C200002FA01F11C2202EAD0004EF20012CEF2BA
:101C3000000281507047000010B54EF60C5CCEF2E9
:101C4000000CDCF80030C3F3022E8EF00704042CE5
:101C500028BF0424BEF103034FF0FF3E0EFA04F444
:101C600038BF0023A14399400EFA03F39A4311436E
:101C700000F00F0200F160430901043A03F56443E8
:101C80006244002848BF02F10C03197010BD000027
:101C90004EF60C51CEF200010A684FF6FF031A40CF
:101CA00060F30A2242F0806040F0FD7008607047E7
:101CB000002804BF012070472DE9F04143F60808D1
:101CC000C4F202080446D8F8F8030D4600F00700F5
:101CD000814207D988F8F853D8F8F80300F00700D4
:101CE000A84277D12068810717D5410705D5D8F8D4
:101CF000001041F4E051C8F80010010705D5D8F8EC
:101D0000001041F46041C8F80010D8F80010A26833
:101D100021F0F0011143C8F80010C00740D1D8F8F5
:101D2000F80300F00700854207D288F8F853D8F886
:101D3000F80300F00700A8424CD12068410707D5FE
:101D4000D8F80010E26821F4E0511143C8F80010FF
:101D5000000708D5D8F80000216920F4604040EA67
:101D6000C100C8F8000000F089F8D8F800104CF263
:101D7000A802C1F30311C0F60302515C40F28C02C9
:101D800020FA01F140F20400C2F200000068C2F241
:101D900000021160FFF7C2FE0020BDE8F08100BF25
:101DA0006068811E022907D258F8081C89015CBFAF
:101DB0000120BDE8F08111E0012807D158F8081C86
:101DC00089035CBF0120BDE8F08107E058F8081CDA
:101DD000890703D40120BDE8F08100BFD8F80010C6
:101DE00021F003010843C8F80000FFF767FE06462C
:101DF00041F28837D8F80000616800F00C00B0EBC1
:101E0000810F8CD0FFF75AFE801BB842F2D9032015
:101E1000BDE8F0810F22026043F60802C4F202021C
:101E2000136803F003034360136803F0F003836057
:101E3000136803F4E053C360D2F800C04FF4E053DA
:101E400003EADC030361D2F8F80300F0070008603E
:101E50007047000040F28C0043F60801C2F2000017
:101E6000C4F20201006809684CF2B802C1F3822191
:101E7000C0F60302515CC8407047000010B543F63D
:101E80000404C4F202046168C1F3810142F200401B
:101E9000C0F2F400DFE801F002040A0210BD00BF46
:101EA00041F20020C0F27A0010BD00BF216801F0AD
:101EB0003F02216823684902C3F3881106D4A1FBBD
:101EC00000010023FEF7E6F907E000BF41F2002021
:101ED000C0F27A004843B0FBF2F021680222C1F35D
:101EE000014102EB4101B0FBF1F010BD002804BF3D
:101EF000012070472DE9F04182B00446007843F696
:101F00000006C007C4F202060CD0B06800F00C0056
:101F1000042840F081803068800303D56068002881
:101F200000F06881207880071BD5B06810F00C0F96
:101F300009D0B06800F00C00082840F08780706875
:101F4000400200F183803068800703D5E0680128F3
:101F500040F050813068216920F0F80040EAC1006B
:101F600030602078000713D4207840072AD4A56970
:101F7000002D00F03A81B06800F00C00082840F015
:101F8000A580012D40F00E81012002B0BDE8F08156
:101F90006069002800F082800020C4F247200121FF
:101FA000C0F8801EFFF78AFD054600BF706F8007EE
:101FB000DAD4FFF783FD401B0228F7D9032002B0D3
:101FC000BDE8F081306C5FEAC0080AD400200190BF
:101FD000306C40F080503064306C00F080500190E4
:101FE000019847F20007C4F200073868C00547D4DB
:101FF000386840F480703860FFF760FD054600BF28
:102000003868C0053CD4FFF759FD401B0228F7D9BA
:10201000032002B0BDE8F081B06800F00C00082891
:1020200003D1706840023FF576AF61683068B1F562
:10203000803F07D0B1F5A02F40F09A8040F4802077
:102040003060306840F4803030609AE0E06800280A
:1020500040F20000C4F247205CD001210160FFF78C
:102060002DFD0546306880073FF574AFFFF726FD6C
:10207000401B0228F6D9032002B0BDE8F08100BF62
:10208000A168306F012905D0052955D140F0040021
:102090003067306F40F00100306756E00020C4F236
:1020A00047200021C0F8801EFFF708FD054600BF4D
:1020B000706F80077FF558AFFFF700FD401B0228C7
:1020C000F6D9032002B0BDE8F08100BF0027C4F2BA
:1020D000472700203866FFF7F1FC022D05460DD199
:1020E0003068800140F18A80FFF7E8FC401B02283D
:1020F0004FF00300F4D902B0BDE8F08130688001F0
:1021000073D5FFF7DBFC401B02284FF00300F5D925
:10211000F1E700BF00210160FFF7D0FC054600BFDA
:10212000306880077FF51DAFFFF7C8FC401B022811
:102130004FF00300F4D9DEE720F001003067306F84
:10214000002920F0040030677AD0FFF7B7FC05467D
:1021500041F28837306F800700F18480FFF7AEFCD2
:10216000401BB842F6D9032002B0BDE8F08100BFA1
:1021700020F4803030603068002920F48020306006
:102180007AD0FFF79BFC0546306880033FF5CAAE66
:10219000FFF794FC401B6428F6D9032002B0BDE889
:1021A000F08100BF7068E16900F480028A4221D1A9
:1021B000216A00F03F028A421CD147F6C071626A70
:1021C0000140B1EB821F15D1A16A4FF6FF73C9031D
:1021D000994300F44032A1F580318A420AD1E16A84
:1021E00000F07060B0EB016F04D1002002B0BDE8D8
:1021F000F08100BF012002B0BDE8F08104F11C05B0
:102200002FCD084340EA8210D9034FF6FF72914365
:10221000A1F5803140EA056008437060012038660E
:10222000FFF74CFC044600BF30688001DDD4FFF7A7
:1022300045FC001B02284FF00300F5D95BE700BF07
:10224000FFF73CFC054641F2883700BF306F80073E
:1022500008D5FFF733FC401BB8424FF00300F5D917
:1022600049E700BFB8F1000F3FF581AE306C20F0B8
:10227000805030647BE600BFFFF720FC054600BFBE
:10228000306880037FF54EAEFFF718FC401B6428D2
:102290004FF00300F4D92EE770B528B1416A29B197
:1022A00000210161142106E0012070BD4168B1F5F3
:1022B000827F02D01C21002242500026866290F8C4
:1022C000511029B980F85060054600F03DF82846C5
:1022D000022180F8511090E82E0002F482720C68FE
:1022E00003F4044324F040040C601A4405F4006332
:1022F00005691A4405F0020345691A4405F0010313
:102300008569C4691A4405F400731A4404F038035B
:10231000046A1A4404F08003846A1A4304F40053E4
:102320001A430A60436A042202EA154203F01003CA
:102330001A444A60CA6922F40062CA6101214665F2
:1023400080F85110304670BD80B586B043F2000170
:102350000068C4F20101002288420592CDE90322FF
:102360000292019202D006B080BD00BF43F6300059
:102370000092C4F20200436943F48053436143690D
:1023800003F480530093009B0092036843F0010321
:102390000360006800F0010000900098A020019008
:1023A0000220CDE90202032004900520059001F5EA
:1023B000504001A9FFF7A6FA06B080BD70470000A3
:1023C0007047000090F83C20012A4FF0020254D0E0
:1023D00010B580F83D200268D2F804E0D2F808C0B9
:1023E0000C682EF07003234341F2FF74C4F2000422
:1023F000A24253600EDC40F2FF73C4F200039A4223
:1024000016DCB2F1804F2BD040F20043C4F200033F
:1024100024E000BF40F2FF33C4F201039A4213DC10
:1024200041F60003C4F200039A4219D0002313E0DE
:1024300040F60003C4F200039A4211D040F6004374
:10244000C4F200030AE000BF44F20003C4F2010337
:102450009A4205D040F20043C4F201039A4204D1EB
:1024600049682CF08003194391600121002280F813
:102470003D1080F83C20BDE8104010467047000039
:10248000002804BF0120704710B5044690F83D00B5
:1024900028B9002084F83C00204600F01FF80220F4
:1024A00084F83D002068211D02F0AAFA012084F87A
:1024B000460084F83E0084F83F0084F8400084F829
:1024C000410084F8420084F8430084F8440084F812
:1024D000450084F83D00002010BD0000006840F673
:1024E0000041C4F20001884218BF704780B582B035
:1024F0000020019043F64000C4F20200016800226F
:1025000041F0080101600068052100F00800019019
:1025100001983220FFF790FB322002B0BDE88040E6
:10252000FFF778BB90F83D1001291CBF01207047D0
:10253000022180F83D10006841F2FF72C168C4F2C8
:102540000002904241F00101C1600DDC40F2FF71D8
:10255000C4F20001884215DCB0F1804F2AD040F26D
:102560000041C4F2000123E040F2FF31C4F2010156
:10257000884213DC41F60001C4F20001884219D000
:10258000002113E040F60001C4F20001884211D09E
:1025900040F60041C4F200010AE000BF44F200012D
:1025A000C4F20101884205D040F20041C4F20101A9
:1025B000884206D1816801F00701062904BF002086
:1025C0007047016841F00101016000207047000080
:1025D00090F83C20012A4FF002026CD080B580F8C0
:1025E0003D20D0F800C04FF67772DCF8083023EABF
:1025F0000202CCF808200B684F2B29DC1F2B45DD8D
:10260000202B46D0302B44D0402B40F0AF80D1F867
:1026100004E0C968DCF82030DCF8202022F0010258
:10262000CCF82020DCF8182022F0F00242EA011158
:1026300023F00A0242EA0E02CCF81810CCF820204F
:10264000DCF8081041F0470121F0300128E000BF1C
:102650006F2B33DDB3F5005F74D0B3F5805F21D00D
:10266000702B40F08380D1E901E3C968DCF80820D1
:1026700043EA0E0322F47F4243EA01211143CCF8DE
:102680000810DCF8081041F0770109E00BB1102BBD
:102690006CD1DCF8081021F07001194341F00701FA
:1026A000CCF808100022012180F83D10002180F8AC
:1026B0003C10BDE880401046704700BF502B21D031
:1026C000602B53D1D1F804E0C968DCF82030DCF885
:1026D000202022F01002CCF82020DCF8182022F470
:1026E000704242EA013123F0A00242EA0E12CCF815
:1026F0001810CCF82020DCF8081041F0670121F018
:102700001001CDE7D1F804E0C968DCF82030DCF82E
:10271000202022F00102CCF82020DCF8182022F042
:10272000F00242EA011123F00A0242EA0E02CCF85A
:102730001810CCF82020DCF8081041F0570121F0E7
:102740002001ADE7D1E901E3C968DCF8082043EADC
:102750000E0322F47F4243EA01211143CCF8081012
:10276000DCF8081041F480419AE700BF01229AE7A3
:102770007047000070B504460068C5680669B10777
:1027800016D515F0020113D06FF00201016101218D
:1027900021778069800703D02046FFF7E9FF05E035
:1027A000204600F08FF8204600F08EF800202077B9
:1027B000700719D515F0040016D020686FF00401D9
:1027C000016102212177806910F4407F04D0204606
:1027D000FFF7CEFF06E000BF204600F073F820466A
:1027E00000F072F800202077300717D515F00800A8
:1027F00014D020686FF00801016104212177C069BD
:10280000800703D02046FFF7B3FF05E0204600F025
:1028100059F8204600F058F800202077F00619D526
:1028200015F0100016D020686FF01001016108212A
:102830002177C06910F4407F04D02046FFF798FF4D
:1028400006E000BF204600F03DF8204600F03CF8CE
:1028500000202077F00718BF15F0010002D13006E4
:1028600009D412E020686FF001010161204600F0F8
:102870002DF8300609D515F0800006D020686FF0DD
:10288000800101612046FFF799FD700609D515F01A
:10289000400006D020686FF040010161204600F042
:1028A00027F8B00658BF70BD15F0200008D0216889
:1028B0006FF0200220460A61BDE87040FFF780BD3E
:1028C00070BD00007047000070470000006840F6CF
:1028D0000041C4F20001884208D040F60001C4F271
:1028E0000001884218BF7047FFF7EEB8FDF7BCBF84
:1028F00070470000FEE70000002808BF704770B571
:102900003221018249F69A11C3F699714161002181
:10291000C0E9001181600546002000F0ADF80446D2
:10292000002000F0A9F80444002000F0A5F80444B9
:10293000002000F0A1F80444002000F09DF80444B9
:10294000002000F099F80444002000F095F80444B9
:10295000002000F091F80444002000F08DF80444B9
:10296000002000F089F80444002000F085F80444B9
:10297000002000F081F80444002000F07DF80444B9
:10298000002000F079F80444002000F075F80444B9
:10299000002000F071F80444002000F06DF80444B9
:1029A000002000F069F80444002000F065F80444B9
:1029B000002000F061F84CF6CD462044CCF6CC4621
:1029C000A0FB06010809A881012000F055F8044683
:1029D000012000F051F80444012000F04DF80444B7
:1029E000012000F049F80444012000F045F80444B7
:1029F000012000F041F80444012000F03DF80444B7
:102A0000012000F039F80444012000F035F80444B6
:102A1000012000F031F80444012000F02DF80444B6
:102A2000012000F029F80444012000F025F80444B6
:102A3000012000F021F80444012000F01DF80444B6
:102A4000012000F019F80444012000F015F80444B6
:102A5000012000F011F80444012000F00DF80444B6
:102A6000012000F009F82044A0FB06010809E881D4
:102A7000BDE8704070470000F0B585B040F2EC64EE
:102A8000C2F200040646002520460495FEF7A8FD84
:102A90002068C76AC16A21F47001C16201200290F6
:102AA0000720039001A920460196FEF7E5FA00BB36
:102AB00040F2EC60C2F20000FEF7E4FC10B1002529
:102AC00017E000BF40F2EC60C2F200000A21FEF7FE
:102AD00059FC08B1002506E040F2EC60C2F20000AB
:102AE000FEF768FB054640F2EC60C2F20000FEF71C
:102AF00077FD2168A8B2CF6205B0F0BD002808BFFD
:102B00007047B0B504460020FFF7B6FF20800120D3
:102B10000125FFF7B1FFA2896080002A04BFA581CB
:102B20000122E18901EE102A002904BF0121E1817F
:102B30002388228A00EE103AB8EE400AB8EE411A15
:102B400002EE102AB8EE422A30EE410A82EE013A35
:102B500080EE011A00EE100A04EE101AB8EE400AD8
:102B6000B8EE444A30EE440A80EE040A82EE042AAB
:102B700000210020B1EE434AB4EE431AF1EE10FA00
:102B8000B8BF0121C907B0EE415AB4EE441A9FED17
:102B9000323A18BFB0EE435AF1EE10FAB4EE420AE0
:102BA000C8BFB0EE451AB1EE424AF1EE10FAB8BF16
:102BB0000120B0EE402AC00718BFB0EE432AB4EEA1
:102BC000440AF1EE10FAC8BFB0EE420AB7EE002A8E
:102BD000B4EE421AF1EE10FAB0EE423A0ADCBFEE61
:102BE000004AB4EE441AB0EE413AF1EE10FAB8BF22
:102BF000B0EE443AB4EE420AF1EE10FA0ADCBFEE4F
:102C0000001AB4EE410AB0EE402AF1EE10FAB8BF55
:102C1000B0EE412AB5EE403AB0EE431AB1EE430AA7
:102C2000F1EE10FAB8BFB0EE401A23EE010AB1EE91
:102C3000421AB5EE402AB0EE423AF1EE10FAB8BFB1
:102C4000B0EE413A22EE031A84ED010A84ED021A35
:102C5000BDE8B040704700BF0000000040F25040A7
:102C6000C2F20000002101700171C0E90211C0E947
:102C700004118161C161704710B540F25044C2F245
:102C80000004E06904210130E0610020C4F2020088
:102C9000FEF708FF2178032906D8DFE801F0031BBF
:102CA000071100BF002845D010BD00BFB0B1E168DA
:102CB00000200029207018BF8847A169B1BBF3E745
:102CC000F0B1A1690020002920702071ECD0BDE88E
:102CD00010400847A0B30020207010BDA068E16933
:102CE000081AB0F57A7FDFD32079032100282170FC
:102CF000DAD1216909B1002088470120207110BD77
:102D0000A068E169081AB0F57A7FCDD948F21F5161
:102D1000C5F2EB11A0FB01125109642201FB120064
:102D2000002818BF10BD61690029BDD00020BDE892
:102D30001040084701202070E069A06010BD00BF6E
:102D4000A068E169081A1428AED302202070002080
:102D5000207110BD40F25041C2F20001086170477D
:102D600040F25041C2F200014861704740F25041C8
:102D7000C2F200018861704740F25041C2F2000186
:102D8000C86070472DE9F04740F63808C2F20008E5
:102D90000746B8F80000B8F802100138013940F2CF
:102DA000004482B28BB200200021C4F2020400F081
:102DB000E5FE20464FF480510022FEF779FE2046C2
:102DC0004FF400510122FEF773FEB8F8020000280C
:102DD0005ED0F82101EA172AFC2101EAD706FA00A1
:102DE000B8F800104FF00009D7B204E0002109F153
:102DF000010981454CD20029F8D0002520464FF426
:102E000080510022FEF754FE20464FF4005101226B
:102E1000FEF74EFE504601F08DFC20464FF48051E7
:102E20000122FEF745FE20464FF480510022FEF7B6
:102E30003FFE20464FF400510122FEF739FE304696
:102E400001F078FC20464FF480510122FEF730FE5D
:102E500020464FF480510022FEF72AFE20464FF410
:102E600000510122FEF724FE384601F063FC2046A3
:102E70004FF480510122FEF71BFEB8F80010013517
:102E80008D42BBD3B8F8020009F101098145B2D3E4
:102E900020464FF480510122BDE8F047FEF708BEFE
:102EA0002DE9F04F83B005460C46111AB2EB050B25
:102EB00018BF4FF0FF3B00290E4648BF4E42012984
:102EC000A3EB04004FF00107A8BFBB46191B18BFB6
:102ED0004FF0FF310028029044BF43420293012883
:102EE000B8BF0F4602984FF0000A864288BF3046AE
:102EF000019001304FF000094FF00008009000BF32
:102F0000A8B2A1B200F01AF80299019B09EB0600E1
:102F10005144B0EB0309D4BF81465D44B1EB030AD1
:102F2000D4BF8A463C4408F1010800991FFA88F092
:102F30008142E5D203B0BDE8F08F000080B50246C3
:102F40000B4600F01BFE40F2B040C2F200000088C9
:102F5000BDE8804001F082BAB0B586B0002005908F
:102F6000CDE90300CDE90100009043F63000C4F242
:102F70000200016840F2004441F002010160006873
:102F8000C4F2020400F00200009000984FF4704078
:102F900001900120CDE902000320049001A9204600
:102FA000FEF7B0FC20464FF480510122FEF780FD71
:102FB00020464FF480410122FEF77AFD20464FF46F
:102FC00000410122FEF774FD20464FF480410022AB
:102FD000FEF76EFD642008F067FE20464FF4804146
:102FE0000122FEF765FD322008F05EFE20464FF418
:102FF00080510022FEF75CFD20464FF40051002274
:10300000FEF756FDF72001F095FB20464FF4805166
:103010000122FEF74DFD20464FF480510022FEF7BD
:1030200047FD20464FF400510122FEF741FDA92043
:1030300001F080FB20464FF480510122FEF738FD5D
:1030400020464FF480510022FEF732FD20464FF417
:1030500000510122FEF72CFD512001F06BFB2046B0
:103060004FF480510122FEF723FD20464FF480519A
:103070000022FEF71DFD20464FF400510122FEF70D
:1030800017FD2C202C2501F055FB20464FF48051D4
:103090000122FEF70DFD20464FF480510022FEF77D
:1030A00007FD20464FF400510122FEF701FD82206A
:1030B00001F040FB20464FF480510122FEF7F8FC5E
:1030C00020464FF480510022FEF7F2FC20464FF4D8
:1030D00000510022FEF7ECFCC02001F02BFB204643
:1030E0004FF480510122FEF7E3FC20464FF480515B
:1030F0000022FEF7DDFC20464FF400510122FEF7CE
:10310000D7FC112001F016FB20464FF4805101221C
:10311000FEF7CEFC20464FF480510022FEF7C8FC9B
:1031200020464FF400510122FEF7C2FC092001F0B5
:1031300001FB20464FF480510122FEF7B9FC2046E6
:103140004FF480510022FEF7B3FC20464FF40051AB
:103150000022FEF7ADFCC12001F0ECFA20464FF44E
:1031600080510122FEF7A4FC20464FF4805100223A
:10317000FEF79EFC20464FF400510122FEF798FC1A
:10318000412001F0D7FA20464FF480510122FEF78A
:103190008FFC20464FF480510022FEF789FC204628
:1031A0004FF400510022FEF783FCC52001F0C2FA63
:1031B00020464FF480510122FEF77AFC20464FF45E
:1031C00080510022FEF774FC20464FF4005101228A
:1031D000FEF76EFC002001F0ADFA20464FF480515E
:1031E0000122FEF765FC20464FF480510022FEF7D5
:1031F0005FFC20464FF400510122FEF759FC0A20E3
:1032000001F098FA20464FF480510122FEF750FC5D
:1032100020464FF480510022FEF74AFC20464FF42E
:1032200000510122FEF744FC802001F083FA204681
:103230004FF480510122FEF73BFC20464FF48051B1
:103240000022FEF735FC20464FF400510022FEF725
:103250002FFCB12001F06EFA20464FF4805101227C
:10326000FEF726FC20464FF480510022FEF720FC9A
:1032700020464FF400510122FEF71AFCB02001F065
:1032800059FA20464FF480510122FEF711FC2046E6
:103290004FF480510022FEF70BFC20464FF4005102
:1032A0000122FEF705FC112001F044FA20464FF4FC
:1032B00080510122FEF7FCFB20464FF48051002292
:1032C000FEF7F6FB20464FF400510022FEF7F0FB1C
:1032D000B42001F02FFA20464FF480510122FEF76E
:1032E000E7FB20464FF480510022FEF7E1FB204629
:1032F0004FF400510122FEF7DBFB022001F01AFA25
:1033000020464FF480510122FEF7D2FB20464FF4B5
:1033100080510022FEF7CCFB20464FF400510022E2
:10332000FEF7C6FBB62001F005FA20464FF48051A7
:103330000122FEF7BDFB20464FF480510022FEF72C
:10334000B7FB20464FF400510122FEF7B1FB0220EB
:1033500001F0F0F920464FF480510122FEF7A8FB5E
:1033600020464FF480510022FEF7A2FB20464FF486
:1033700000510122FEF79CFB422001F0DBF92046C0
:103380004FF480510122FEF793FB20464FF4805109
:103390000022FEF78DFB20464FF400510022FEF77D
:1033A00087FBB72001F0C6F920464FF48051012277
:1033B000FEF77EFB20464FF480510022FEF778FB9B
:1033C00020464FF400510122FEF772FBC62001F0A7
:1033D000B1F920464FF480510122FEF769FB2046E7
:1033E0004FF480510022FEF763FB20464FF400515A
:1033F0000022FEF75DFBBE2001F09CF920464FF451
:1034000080510122FEF754FB20464FF480510022E8
:10341000FEF74EFB20464FF400510122FEF748FB19
:10342000002001F087F920464FF480510122FEF779
:103430003FFB20464FF480510022FEF739FB204627
:103440004FF400510122FEF733FB042001F072F922
:1034500020464FF480510122FEF72AFB20464FF40C
:1034600080510022FEF724FB20464FF40051002239
:10347000FEF71EFBE92001F05DF920464FF4805174
:103480000122FEF715FB20464FF480510022FEF783
:103490000FFB20464FF400510122FEF709FB0020EC
:1034A00001F048F920464FF480510122FEF700FB5D
:1034B00020464FF480510022FEF7FAFA20464FF4DE
:1034C00000510022FEF7F4FA362001F033F92046CD
:1034D0004FF480510122FEF7EBFA20464FF4805161
:1034E0000022FEF7E5FA20464FF400510122FEF7D4
:1034F000DFFA682001F01EF920464FF480510122C6
:10350000FEF7D6FA20464FF480510022FEF7D0FA9B
:1035100020464FF400510022FEF7CAFA3A2001F08B
:1035200009F920464FF480510122FEF7C1FA2046E6
:103530004FF480510022FEF7BBFA20464FF40051B1
:103540000122FEF7B5FA662001F0F4F820464FF4A8
:1035500080510122FEF7ACFA20464FF48051002240
:10356000FEF7A6FA20464FF400510022FEF7A0FA1B
:10357000E02001F0DFF820464FF480510122FEF7F1
:1035800097FA20464FF480510022FEF791FA204628
:103590004FF400510122FEF78BFA002001F0CAF827
:1035A00020464FF480510122FEF782FA20464FF464
:1035B00080510022FEF77CFA20464FF40051012290
:1035C000FEF776FA072001F0B5F820464FF4805157
:1035D0000122FEF76DFA20464FF480510022FEF7DB
:1035E00067FA20464FF400510122FEF761FA1020DD
:1035F00001F0A0F820464FF480510122FEF758FA5E
:1036000020464FF480510022FEF752FA20464FF434
:1036100000510122FEF74CFA092001F08BF82046F8
:103620004FF480510122FEF743FA20464FF48051B7
:103630000022FEF73DFA20464FF400510122FEF72A
:1036400037FA172001F076F820464FF48051012216
:10365000FEF72EFA20464FF480510022FEF728FA9A
:1036600020464FF400510122FEF722FA0B2001F010
:1036700061F820464FF480510122FEF719FA2046E6
:103680004FF480510022FEF713FA20464FF4005108
:103690000122FEF70DFA412001F04CF820464FF4CC
:1036A00080510122FEF704FA20464FF48051002297
:1036B000FEF7FEF920464FF400510122FEF7F8F91B
:1036C000892001F037F820464FF480510122FEF79F
:1036D000EFF920464FF480510022FEF7E9F9204629
:1036E0004FF400510122FEF7E3F94B2001F022F8DC
:1036F00020464FF480510122FEF7DAF920464FF4BC
:1037000080510022FEF7D4F920464FF400510122E7
:10371000FEF7CEF90A2001F00DF820464FF4805153
:103720000122FEF7C5F920464FF480510022FEF732
:10373000BFF920464FF400510122FEF7B9F90C20E1
:1037400000F0F8FF20464FF480510122FEF7B0F957
:1037500020464FF480510022FEF7AAF920464FF48C
:1037600000510122FEF7A4F90E2000F0E3FF2046ED
:103770004FF480510122FEF79BF920464FF480510F
:103780000022FEF795F920464FF400510122FEF782
:103790008FF9182000F0CEFF20464FF4805101220F
:1037A000FEF786F920464FF480510022FEF780F99B
:1037B00020464FF400510122FEF77AF91B2000F059
:1037C000B9FF20464FF480510122FEF771F92046DF
:1037D0004FF480510022FEF76BF920464FF4005160
:1037E0000122FEF765F90F2000F0A4FF20464FF4F8
:1037F00080510122FEF75CF920464FF480510022EF
:10380000FEF756F920464FF400510022FEF750F91A
:10381000E12000F08FFF20464FF480510122FEF797
:1038200047F920464FF480510022FEF741F9204627
:103830004FF400510122FEF73BF9002000F07AFF1F
:1038400020464FF480510122FEF732F920464FF412
:1038500080510022FEF72CF920464FF4005101223E
:10386000FEF726F9172000F065FF20464FF480513F
:103870000122FEF71DF920464FF480510022FEF789
:1038800017F920464FF400510122FEF711F91A20D2
:1038900000F050FF20464FF480510122FEF708F956
:1038A00020464FF480510022FEF702F920464FF4E3
:1038B00000510122FEF7FCF8042000F03BFF2046F7
:1038C0004FF480510122FEF7F3F820464FF4805167
:1038D0000022FEF7EDF820464FF400510122FEF7DA
:1038E000E7F80E2000F026FF20464FF48051012219
:1038F000FEF7DEF820464FF480510022FEF7D8F89C
:1039000020464FF400510122FEF7D2F8062000F0C5
:1039100011FF20464FF480510122FEF7C9F82046DE
:103920004FF480510022FEF7C3F820464FF40051B7
:103930000122FEF7BDF82F2000F0FCFE20464FF4D8
:1039400080510122FEF7B4F820464FF48051002246
:10395000FEF7AEF820464FF400510122FEF7A8F81A
:10396000452000F0E7FE20464FF480510122FEF78B
:103970009FF820464FF480510022FEF799F8204628
:103980004FF400510122FEF793F8432000F0D2FEDD
:1039900020464FF480510122FEF78AF820464FF46A
:1039A00080510022FEF784F820464FF40051012296
:1039B000FEF77EF8022000F0BDFE20464FF4805155
:1039C0000122FEF775F820464FF480510022FEF7E1
:1039D0006FF820464FF400510122FEF769F80A20E3
:1039E00000F0A8FE20464FF480510122FEF760F857
:1039F00020464FF480510022FEF75AF820464FF43B
:103A000000510122FEF754F8092000F093FE2046F1
:103A10004FF480510122FEF74BF820464FF48051BD
:103A20000022FEF745F820464FF400510122FEF730
:103A30003FF8322000F07EFE20464FF480510122F4
:103A4000FEF736F820464FF480510022FEF730F89A
:103A500020464FF400510122FEF72AF8362000F0EC
:103A600069FE20464FF480510122FEF721F82046DE
:103A70004FF480510022FEF71BF820464FF400510E
:103A80000122FEF715F80F2000F054FE20464FF4F7
:103A900080510122FEF70CF820464FF4805100229D
:103AA000FEF706F820464FF400510022FEF700F81A
:103AB000112000F03FFE20464FF480510122FDF717
:103AC000F7FF782008F0F0F820464FF480510022EC
:103AD000FDF7EEFF20464FF400510022FDF7E8FF0E
:103AE000292000F027FE20464FF480510122FDF7E7
:103AF000DFFF40F63800C2F200002A2141812B216D
:103B000081814FF4A07101804FF4F07105814180F3
:103B100020464FF480510022FDF7CAFF20464FF4A3
:103B200000510022FDF7C4FF362000F003FE2046BE
:103B30004FF480510122FDF7BBFF20464FF4805126
:103B40000022FDF7B5FF20464FF400510122FDF79A
:103B5000AFFF082000F0EEFD20464FF48051012217
:103B6000FDF7A6FF20464FF400410122FDF7A0FF1C
:103B700006B0B0BD02460B46AFF300802DE9F0471A
:103B800040F6380A40F20044C2F2000AC4F20204CD
:103B9000174689469AF80A60054620464FF4805138
:103BA00000229846FDF784FF20464FF40051002282
:103BB000FDF77EFF304600F0BDFD20464FF48051FA
:103BC0000122FDF775FF20464FF4805100222E0A96
:103BD000FDF76EFF20464FF400510122FDF768FF0C
:103BE000304600F0A7FD20464FF480510122FDF73A
:103BF0005FFF20464FF480510022FDF759FF204619
:103C00004FF400510122FDF753FFE8B200F092FD9E
:103C100020464FF480510122FDF74AFF20464FF421
:103C2000805100223D0AFDF743FF20464FF400512A
:103C30000122FDF73DFF284600F07CFD20464FF4B1
:103C400080510122FDF734FF20464FF480510022BD
:103C5000FDF72EFF20464FF400510122FDF728FF0B
:103C6000F8B200F067FD20464FF480510122FDF7C5
:103C70001FFF9AF80C5020464FF480510022FDF7A8
:103C800017FF20464FF400510022FDF711FF284690
:103C900000F050FD20464FF480510122FDF708FF4F
:103CA00020464FF4805100224FEA1925FDF700FF0E
:103CB00020464FF400510122FDF7FAFE284600F09D
:103CC00039FD20464FF480510122FDF7F1FE2046D8
:103CD0004FF480510022FDF7EBFE20464FF40051D7
:103CE0000122FDF7E5FE5FFA89F000F023FD204692
:103CF0004FF480510122FDF7DBFE20464FF4805146
:103D000000224FEA1825FDF7D3FE20464FF400515C
:103D10000122FDF7CDFE284600F00CFD20464FF4B1
:103D200080510122FDF7C4FE20464FF4805100224D
:103D3000FDF7BEFE20464FF400510122FDF7B8FE0C
:103D40005FFA88F000F0F6FC20464FF48051012223
:103D5000FDF7AEFE9AF8085020464FF4805100223D
:103D6000FDF7A6FE20464FF400510022FDF7A0FE0D
:103D7000284600F0DFFC20464FF480510122BDE8C8
:103D8000F047FDF795BE00002DE9F04F85B00F46D6
:103D900040F2B041C2F200018346DDE90E05098818
:103DA000109C0191A0F120080BEB55007919013806
:103DB00001399946924682B28BB2584639466E080E
:103DC0000497FFF7DBFE039544B340F2B044002DA7
:103DD000C2F2000418BF012D28D00C2D5FFA88F024
:103DE00040F00E824CF2472800EB4009C0F6030871
:103DF00018F829700020002506E000BF01357F0873
:103E0000B542E8B280F0DC80F907A4F800A0F5D054
:103E10005844049980B2FFF791F8EFE740F2B044BC
:103E2000002DC2F2000418BF012D13D140F6380056
:103E3000C2F2000001884088019F013901388AB22E
:103E400083B200200021278005B0BDE8F04FFFF7C6
:103E500095BE00BF0C2D5FFA88F040F0FD814CF25A
:103E6000472800EB400BC0F6030818F82B5000273A
:103E7000E807504608BF484600F0F0FA0137BE4256
:103E80004FEA5505F4D808EB8B0898F80150002745
:103E9000E807504608BF484600F0E0FA0137BE4246
:103EA0004FEA5505F4D898F802500027E807504625
:103EB00008BF484600F0D2FA0137BE424FEA550526
:103EC000F4D898F803500027E807504608BF484642
:103ED00000F0C4FA0137BE424FEA5505F4D898F80D
:103EE00004500027E807504608BF484600F0B6FADD
:103EF0000137BE424FEA5505F4D898F8055000271F
:103F0000E807504608BF484600F0A8FA0137BE420D
:103F10004FEA5505F4D898F806500027E8075046B0
:103F200008BF484600F09AFA0137BE424FEA5505ED
:103F3000F4D898F807500027E807504608BF4846CD
:103F400000F08CFA0137BE424FEA5505F4D898F8D4
:103F500008500027E807504608BF484600F07EFAA0
:103F60000137BE424FEA5505F4D898F809500027AA
:103F7000E807504608BF484600F070FA0137BE42D5
:103F80004FEA5505F4D898F80A500027E80750463C
:103F900008BF484600F062FA0137BE424FEA5505B5
:103FA000F4D898F80B500027E807504608BF484659
:103FB00000F054FA0137BE424FEA5505F4D835E710
:103FC000049808EB890999F80170411C00201FFA38
:103FD00081F8002505E000BF01357F08B542E8B251
:103FE0000AD2F907A4F800A0F6D0584480B241469E
:103FF000FEF7A4FFF0E700BF049899F80270811C57
:1040000000201FFA81F8002505E000BF01357F0878
:10401000B542E8B20AD2F907A4F800A0F6D0584495
:1040200080B24146FEF78AFFF0E700BF049899F896
:104030000370C11C00201FFA81F8002505E000BFB5
:1040400001357F08B542E8B20AD2F907A4F800A00A
:10405000F6D0584480B24146FEF770FFF0E700BF4B
:10406000049899F80470011D00201FFA81F80025BA
:1040700005E000BF01357F08B542E8B20AD2F90772
:10408000A4F800A0F6D0584480B24146FEF756FF8F
:10409000F0E700BF049899F80570411D00201FFA51
:1040A00081F8002505E000BF01357F08B542E8B280
:1040B0000AD2F907A4F800A0F6D0584480B24146CD
:1040C000FEF73CFFF0E700BF049899F80670811DE9
:1040D00000201FFA81F8002505E000BF01357F08A8
:1040E000B542E8B20AD2F907A4F800A0F6D05844C5
:1040F00080B24146FEF722FFF0E700BF049899F82E
:104100000770C11D00201FFA81F8002505E000BFDF
:1041100001357F08B542E8B20AD2F907A4F800A039
:10412000F6D0584480B24146FEF708FFF0E700BFE2
:10413000049899F8087000F1080100201FFA81F82E
:10414000002504E001357F08B542E8B20AD2F9073C
:10415000A4F800A0F6D0584480B24146FEF7EEFE27
:10416000F0E700BF049899F8097000F109010020F8
:104170001FFA81F8002504E001357F08B542E8B256
:104180000AD2F907A4F800A0F6D0584480B24146FC
:10419000FEF7D4FEF0E700BF049899F80A7000F12A
:1041A0000A0100201FFA81F8002504E001357F088C
:1041B000B542E8B20AD2F907A4F800A0F6D05844F4
:1041C00080B24146FEF7BAFEF0E700BF049899F8C6
:1041D0000B7000F10B0100201FFA81F8002505E0AB
:1041E00001357F08B542E8B2BFF420AEF907A4F864
:1041F00000A0F5D0584480B24146FEF79FFEEFE79D
:104200004CF2BB61C0F603014FF0000901EB001056
:10421000029005E0039809F1010981453FF406AEDB
:104220000298002510F80980049800EB090100208D
:104230008FB205E001354FEA5808B542E8B2E9D23D
:104240005FEAC871A4F800A0F4D0584480B239469F
:10425000FEF774FEEEE700BF4CF2BB61C0F603014F
:10426000002501EB001800BF18F80570002400BFFE
:10427000F807504608BF484600F0F0F80134A6425F
:104280004FEA5707F4D80398013540F2B04485420D
:10429000C2F20004E8D1C9E5002B08BF70472DE940
:1042A000F04F87B0109F0446581E04907808059080
:1042B000981E9A4691460D46039042F210780020CF
:1042C000002106911DE000BF01220692059A40F2EE
:1042D000880300FB024040F2B042C2F20002C2F288
:1042E000000341F0300112881B88C9B2CDE90017E4
:1042F00080B2294600260296FFF746FDD345584670
:1043000064D000F1010B5FFA8BF18A4502D10121E3
:104310002AE000BF039AC143121AD2B2BE46032A52
:104320000AEB010202D201210AE000BF02F0FC0305
:10433000002601210436F7B29F4201FB08F1F9D1B2
:1043400012F0030277460FD0012A03D101EB81015D
:10435000490009E04FF47A734B43022A4FF064029C
:1043600008BF01FB02F31946B9FBF1F14CF6CD424F
:10437000CCF6CC42A1FB0223DA08069B02EB8202B8
:10438000002BA1EB4201A1D1049A82429EDD0029BB
:104390009AD105994FF0000C00FB014040F2B0416A
:1043A000C2F200010A8840F28801C2F200010B88C3
:1043B00020210026CDE9001780B229460696CDF8C7
:1043C00008C0FFF7E1FCD34558469AD107B0BDE8D5
:1043D000F04F70472DE9F04F83B01C780D46A4F1E3
:1043E0002001C9B25E2936D840F6380AC2F2000A66
:1043F0000646BAF80000B0422DD9BAF80200A84229
:1044000029D940F2880990464FEA520B5F1EC2F24A
:10441000000900BF40F2B040C2F200000288B9F8C3
:104420000030E0B20C9CCDE90008B0B229460294FD
:10443000FFF7AAFCBC78A4F12000C0B25E280AD81D
:104440005E44BAF80000B1B2884204D9BAF802005A
:104450000137A842DED803B0BDE8F08FB0B540F216
:104460000044C4F20204054620464FF48051002265
:10447000FDF71EFB20464FF400510122FDF718FB0B
:10448000F82000EA152000F055F920464FF480513D
:104490000122FDF70DFB20464FF480510022FDF76D
:1044A00007FB20464FF400510122FDF701FBFC20E1
:1044B00000EAD50000F03EF920464FF48051012279
:1044C000FDF7F6FA20464FF480510022ED00FDF78B
:1044D000EFFA20464FF400510122FDF7E9FAE8B265
:1044E00000F028F920464FF480510122BDE8B04089
:1044F000FDF7DEBAFCF792B9B0B584B040F2EC60DB
:1045000042F2000101230024C2F20000C4F20101C2
:104510000125C0F6007303944FF48032057680F8CD
:104520002040C0E90A34C56180F8304080E81600B8
:10453000C0E903444561FCF741FE002818BFFCF7C1
:1045400019FD40F2EC60C2F200006946CDE9004579
:104550000294FCF791FD002818BFFCF70BFD04B096
:10456000B0BD000010B544F605104CF6D442C0F6BC
:104570000000C0F6030200212EF0CAFA40F25814DF
:10458000C2F20004206044F2F54040F67832C0F6F2
:104590000000C0F6040200212EF0BAFA606010BDDF
:1045A00080B586B0002043F630010590CDE90300C8
:1045B000CDE901000090C4F202010A6842F08002D5
:1045C0000A600A6802F080020092009A00900A686D
:1045D00042F001020A60096801F0010100910099AE
:1045E0000421CDE90110012003900020C4F2020053
:1045F00001A9FDF787F906B080BD000080B540F243
:104600004C7043F20001C2F20000C4F201014FF409
:104610008272002380E80E0000F114014FF4007C48
:104620004FF0100E81E808500A21C0E90333C0E9B9
:104630000833C0E90A31FDF72FFE002808BF80BD0E
:10464000BDE88040FCF796BC80B586B040F2EC70C7
:104650000021C2F2000040F6004240F2E73C059122
:10466000CDE90311CDE90011C4F200025323C0E9E2
:10467000021C01618021C0E900238161FDF700FF78
:10468000002818BFFCF776FC4FF48050029040F2EF
:10469000EC70C2F2000002A9FDF79AFF002818BFD3
:1046A000FCF768FC40F2EC70C2F200006946FDF7CE
:1046B00089FE002818BFFCF75DFC06B080BD000035
:1046C000FEE70000FEE70000000000000000000020
:1046D000EFF30980BFF36F8F154B1A681EF0100FB0
:1046E00008BF20ED108A20E9F04F10602DE9090085
:1046F0004FF0500080F31188BFF34F8FBFF36F8FDF
:1047000036F04CF94FF0000080F31188BDE8090045
:1047100019680868B0E8F04F1EF0100F08BFB0EC41
:10472000108A80F30988BFF36F8F704700BF00BF06
:10473000600100204AF22172C2F2000240F24C7184
:104740001378C2F2000109682BB90B6843F04003EB
:104750000B600123137040F2010CCFF6F07C63462E
:104760008A68920756D48A6892075CBF8A685FEAB3
:1047700082724FD48A6892075CBF8A685FEA82724D
:1047800048D48A6892075CBF8A685FEA827241D423
:104790008A6892075CBF8A685FEA82723AD48A6844
:1047A00092075CBF8A685FEA827233D48A68920794
:1047B0005CBF8A685FEA82722CD48A6892075CBF09
:1047C0008A685FEA827225D48A6892075CBF8A6829
:1047D0005FEA82721ED48A6892075CBF8A685FEAC9
:1047E000827217D48A6892075CBF8A685FEA827215
:1047F00010D48A6892075CBF8A685FEA827209D423
:104800008A6892075CBF8A685FEA827202D41933B1
:10481000A6D15AE0C8608868C00759D18868C00727
:1048200004BF88685FEAC07052D18868C00704BFBF
:1048300088685FEAC0704BD18868C00704BF886889
:104840005FEAC07044D18868C00704BF88685FEA27
:10485000C0703DD18868C00704BF88685FEAC07037
:1048600036D18868C00704BF88685FEAC0702FD15E
:104870008868C00704BF88685FEAC07028D188686C
:10488000C00704BF88685FEAC07021D18868C0078C
:1048900004BF88685FEAC0701AD18868C00704BF87
:1048A00088685FEAC07013D18868C00704BF886851
:1048B0005FEAC0700CD18868C00704BF88685FEAEF
:1048C000C07005D11CF1190CA5D1FF20C0B27047F2
:1048D000C868C0B27047000000000000000000007F
:1048E000074B19680868B0E8F04F80F30988BFF3F8
:1048F0006F8F4FF0000080F31188704700BF00BF3A
:1049000060010020FBF778BF80B54EF21000CEF2B8
:104910000000006836F0F4FD012808BF80BDBDE846
:10492000804036F02DBA000070B592B006AC20463B
:104930003021FBF713FE002543F640000595CDE935
:104940000355CDE901550095C4F202000168022625
:1049500041F080510160006800F0805000900098A4
:1049600047F200000095C4F20000016841F4804164
:104970000160006800F480400090009801200690DB
:104980004FF4803007904FF480000D9008200E9077
:104990004FF4A870CDE90F060420119020460C9624
:1049A000FDF7A4FA10B172B6FEE700BF0F20CDE903
:1049B00001064FF4A05004904FF48050059001A8D8
:1049C00005210395FDF774F910B172B6FEE700BF3B
:1049D00012B070BD4EF68850CEF20000016841F46E
:1049E000700101607047000040F2A470C2F2000044
:1049F000FDF7C0BE40F2EC70C2F20000FDF7BABE97
:104A0000B0B540F6FF3E0568C4F2000E40F2004C1F
:104A10007045C4F2010C25DCB0F1804F2FD040F27C
:104A20000043C4F20003984229D040F60003C4F2C8
:104A30000003984223D041F6FF73C4F2000398426A
:104A400028DC70453ADCB0F1804F5BD040F2004387
:104A5000C4F20003984255D040F60003C4F20003AC
:104A60004EE000BF40F60043C4F20003984206D077
:104A7000604504D00023C4F201039842DBD14B68A7
:104A800025F0700243EA020541F6FF73C4F2000309
:104A90009842D6DD43F6FF73C4F2010398421FDC4F
:104AA00042F20003C4F2000398422BD00023C4F268
:104AB0000103984226D0604524D028E040F6004308
:104AC000C4F2000398421DD041F60003C4F2000373
:104AD000984217D041F60043C4F2000310E000BF33
:104AE00044F20003C4F2010398420BD044F60003E1
:104AF000C4F20103984205D044F20043C4F201031A
:104B0000984204D1CB6825F4407243EA02050A6852
:104B10008C684B69C46240F480648262644504BF5F
:104B200009690163026825F0800142F0040219431B
:104B30000260012242610160B0BD00002DE9F04F2A
:104B400081B0804640F2B0400F46C2F200004FF400
:104B500078411D461646DDE90A4B01804FF0010AF7
:104B60004CA32820A0211022CDF800A04FF010095E
:104B7000FFF730FC48A37820A0211022CDF800A038
:104B8000FFF728FC45A32820B4211022CDF800A06F
:104B9000FFF720FC42A37820B4211022CDF800A01A
:104BA000FFF718FC3FA32820C8211022CDF800A051
:104BB000FFF710FC3CA37820C8211022CDF800A0FC
:104BC000FFF708FC39A32820DC211022CDF800A033
:104BD000FFF700FC36A37820DC211022CDF800A0DE
:104BE000FFF7F8FB33A32820F0211022CDF800A016
:104BF000FFF7F0FB4020A02142460423CDF80090AF
:104C0000FFF74AFB9020A0213A460423CDF80090FC
:104C1000FFF742FB4020B42132460423CDF8009038
:104C2000FFF73AFB9020B4212A460423CDF80090E8
:104C3000FFF732FB4020C82122460423CDF8009024
:104C4000FFF72AFB9020C8215A460423CDF8009094
:104C5000FFF722FB0C9A4020DC210423CDF80090C2
:104C6000FFF71AFB0D9A9020DC210423CDF8009069
:104C7000FFF712FB40F63800C2F2000001880E9ADE
:104C800060200323CDF80090FFF706FB01B0BDE8DC
:104C9000F08F00BF78313A0079313A0078323A002B
:104CA00079323A0078333A0079333A0078343A006E
:104CB00079343A006661632069733A0000000000AD
:104CC0002DE9F04F81B02DED0A8B98B040F2B0493C
:104CD000C2F200091F20A9F8000040F28800C2F2C9
:104CE00000004FF0FF3101804FF6FF704FF6FF7567
:104CF000FEF748F84FF478484FF6FF70A9F80080A7
:104D0000FEF740F8002701240FF62C330A20282153
:104D10001022A9F800700094FFF75CFB0FF63833FF
:104D20000A20382110220094FFF754FB0FF64C3371
:104D30000A20482110220094FFF74CFB0FF65C3349
:104D40000A20582110220094FFF744FB0820142168
:104D500021221423A9F80080FEF7A2F814200821CC
:104D600014222123FEF79CF815201521FEF7E6F802
:104D700013201521FEF7E2F815201321FEF7DEF8C7
:104D800013201321FEF7DAF8B9F8002014201421BB
:104D9000062300970CF0BAFF40F25C0B9FED148BDA
:104DA0009FED159B9FED16ABC2F2000B0DF1400A73
:104DB000B6EE00BAB0EE00CA002600248BF81870D8
:104DC000CBF81C70DBF80810012088479BF818000E
:104DD00000F0C001402917D00A2006F065FFB4F5A5
:104DE0007A7F04F10104EDD300F0D8BC00BF00BF0E
:104DF0000000000000005940666666666666EE3F89
:104E0000CDCCCCCCCCCCF03F00F03F008BF81800E0
:104E1000DBF81410F0B203284AF8201000F2528395
:104E2000DFE810F00400DE026600E800082014212C
:104E300021221423A9F80050FEF732F8142008218B
:104E400014222123FEF72CF815201521FEF776F801
:104E500013201521FEF772F815201321FEF76EF8C6
:104E600013201321FEF76AF8B9F80020142014214A
:104E7000062300970CF04AFF40F63800C2F200000B
:104E8000B04606884FF47841A6F11400A9F8001046
:104E900084B2A6F12000F11F80B28AB2142114233B
:104EA000FDF7FEFF2046082122462123FDF7F8FFEB
:104EB000A6F1130085B228461521FEF73FF8A6F1AA
:104EC000150086B230461521FEF738F82846132122
:104ED0004FF6FF75FEF732F83046132146464FF481
:104EE0007848FEF72BF8B9F8002020461421E5E2B7
:104EF00040F6380AC2F2000A0F96BAF80260212280
:104F0000A6F1140084B2082021462346A9F80050D7
:104F1000FDF7C6FFA6F12000F21F81B293B2142064
:104F20001422FDF7BDFFA6F1130085B21520294616
:104F3000FEF704F813202946FEF700F8A6F1150045
:104F400085B215202946FDF7F9FF13202946FDF704
:104F5000F5FFB9F8002014202146062300970CF035
:104F6000D5FEBAF80040BAF80250A4F11400A5F139
:104F70001401A9F800801FFA80F8A4F12000E21FB4
:104F80001FFA81FA80B292B251465346FDF788FF6C
:104F9000A5F12000EA1F81B293B240464246FDF7D8
:104FA0007FFFA4F11300A5F1130186B28FB2304642
:104FB0003946FDF7C3FFA4F1150084B220463946F7
:104FC000FDF7BCFFA5F1150087B230460F9E3946AC
:104FD000FDF7B4FF20463946FDF7B0FFB9F80020D1
:104FE00040464FF4784851460DF1400A00274FF6ED
:104FF000FF7563E2BDF84010BDF84400BDF84230D3
:10500000BDF84620CDE90E10081A991A404301FB5D
:105010000100CDE90B2336F044FD41EC100B36F0D6
:105020008CFC51EC100B36F00DFDBDF84850BDF86E
:105030004C10BDF84A30BDF84E600A91691A9A1BAF
:10504000494302FB021108950D930996064608464E
:1050500036F027FD41EC100B36F06FFC51EC100BD5
:1050600036F0F0FC044600EE106A01EE104AB8EE8D
:10507000400AB8EE411A80EE010A10EE100A36F02E
:1050800065FF002C00F0248253EC195B2A4607468A
:105090008A46079336F0A8FF51460028384640F06C
:1050A000178253EC1A2B384651461446984636F070
:1050B00086FF51460028384640F00A82002E00F054
:1050C00007820E980899401ADDE90C214043511AD5
:1050D00001FB010036F0E5FC41EC100B36F02DFC35
:1050E00051EC100B36F0AEFC0F990A9A099B891A05
:1050F0000B9A4943D21A02FB02110646084636F0C3
:10510000D0FC41EC100B36F018FC51EC100B36F0D3
:1051100099FC00EE106A01EE100AB8EE400AB8EEF3
:10512000411A80EE010A10EE100A36F00FFF0691C8
:10513000079F2A463B46064636F056FF002840F0B9
:1051400047820699304622464346A24636F045FF3E
:10515000002800F03D820F9808990D9A401A0B998B
:105160004043891A01FB010036F09BFC41EC100B17
:1051700036F0E3FB51EC100B36F064FC0E990A9A02
:105180000C9B891A099A49439A1A02FB0211064696
:10519000084636F086FC41EC100B36F0CEFB51ECA5
:1051A000100B36F04FFC00EE106A01EE100AB8EE5C
:1051B000400AB8EE411A80EE010A10EE100A36F0ED
:1051C000C5FE044640F63800C2F2000006882046BC
:1051D0002A463B46069136F007FF002840F04882F9
:1051E000069920465246434636F0F7FE002800F066
:1051F0003F82DDE90E21A6F1280000EE100A881A90
:1052000001EE100AB8EEC00AB8EEC11A80EE011A1B
:1052100040F63800C2F200004588DDE90C73A5F1C4
:10522000280000EE100AD81B02EE100AB8EEC00AE1
:10523000B8EEC22A80EE020A881803EE100A02EEC7
:10524000106AB8EE433AB8EE422A21EE033A32EE43
:10525000432A22EE0B2ABDEEC22A12EE100AABF848
:105260002400D81903EE100A02EE105AB8EE433AA1
:10527000B8EE422A20EE033A32EE432A8BED071AAB
:1052800022EE0B2AB0EEC11ABDEEC22AB4EE4C1AC1
:1052900012EE100AF1EE10FA8BED080AABF82600B8
:1052A00007DCB0EEC00AB4EE4C0AF1EE10FA40F39F
:1052B000A182A6F11400A5F114014FF6FF72A9F81E
:1052C00000201FFA80F8A6F12000F21F1FFA81FAD1
:1052D00080B292B251465346FDF7E2FDA5F120009F
:1052E000EA1F81B293B240464246FDF7D9FDA6F1CE
:1052F0001300A5F11301344686B28FB23046394609
:10530000FDF71CFEA4F1150084B220463946FDF7D6
:1053100015FEA5F1150087B2304639464FF6FF75E8
:10532000FDF70CFE20463946FDF708FE40F2B0407E
:10533000C2F20000028800264046514640F2B049C1
:105340000623C2F2000900960CF0E0FC4FF4784806
:105350000820142121221423A9F80080FDF7A0FDC4
:105360001420082114222123FDF79AFD1520152170
:10537000FDF7E4FD13201521FDF7E0FD15201321B5
:10538000FDF7DCFD13201321FDF7D8FDB9F800204F
:1053900014201421062300960CF0B8FC41F29C0363
:1053A00028201A211022C0F6040301270097FFF7D6
:1053B00011F89BF82800B0FA80F149098BF8281001
:1053C00000286FF02F006FF06F0108BF6FF06F00C3
:1053D00008BF6FF02F018BF800008BF80110D6E1A9
:1053E00040F63800C2F200000F9606881423A6F19A
:1053F000140084B2A6F12000F11F80B28AB21421F9
:10540000A9F80050FDF74CFD204608212246212333
:10541000FDF746FDA6F1130085B228461521FDF7DC
:105420008DFDA6F1150086B230461521FDF786FDEB
:1054300028461321FDF782FD30461321FDF77EFD3E
:10544000B9F8002020461421062300970CF05EFCDA
:1054500040F63800C2F2000046882122A6F114006E
:1054600084B2082021462346A9F80080FDF718FDE4
:10547000A6F12000F21F81B293B214201422FDF78E
:105480000FFDA6F1130085B215202946FDF756FD44
:1054900013202946FDF752FDA6F1150085B20F9E97
:1054A00015202946FDF74AFD132029464FF6FF75C2
:1054B000FDF744FDB9F8002014202146062300978B
:1054C0000CF024FC0A20013606F0EEFB012479E4FE
:1054D000CDE9051040F63800C2F200000488458886
:1054E000A4F11400A5F114014FF6FF72A9F80020F1
:1054F0001FFA80F8A4F12000E21F1FFA81FA80B29F
:1055000092B251465346FDF7CBFCA5F12000EA1FAD
:1055100081B293B240464246FDF7C2FCA4F11300AB
:10552000A5F1130186B28FB230463946FDF706FD6C
:10553000A4F1150084B220463946FDF7FFFCA5F121
:10554000150087B2304639464FF6FF75FDF7F6FC79
:1055500020463946FDF7F2FC40F2B040C2F20000AE
:10556000028800244046514640F2B0490623C2F268
:10557000000900940CF0CAFB4FF47848082014216D
:1055800021221423A9F80080FDF78AFC14200821A9
:1055900014222123FDF784FC15201521FDF7CEFCF4
:1055A00013201521FDF7CAFC15201321FDF7C6FCB9
:1055B00013201321FDF7C2FCB9F800201420142198
:1055C000062300940CF0A2FBDDE90510C8E000BF43
:1055D00040F63800C2F2000004884588A4F11400A7
:1055E000A5F114014FF6FF72A9F800201FFA80F808
:1055F000A4F12000E21F1FFA81FA80B292B2514654
:105600005346FDF74DFCA5F12000EA1F81B293B28D
:1056100040464246FDF744FCA4F11300A5F11301F6
:10562000079686B28FB230463946FDF787FCA4F163
:10563000150084B220463946FDF780FCA5F115001F
:1056400087B2304639464FF6FF75FDF777FC2046A6
:105650003946FDF773FC40F2B040C2F20000028808
:1056600040F2B049002440465146C2F2000949E0E8
:1056700040F63800C2F20000B0F802A0A6F1140013
:10568000AAF114014FF6FF720794A9F8002084B222
:10569000A6F12000F21F8DB280B292B229462B46AD
:1056A000FDF7FEFBAAF12000AAF1070281B293B236
:1056B000204622460594FDF7F3FBA6F11300AAF15C
:1056C00013011FFA80F834468EB240463146FDF78A
:1056D00035FCA4F1150084B220463146FDF72EFCBE
:1056E000AAF1150086B240463146FDF727FC204658
:1056F0003146FDF723FCB9F800200598002429461F
:105700004FF6FF75062300940CF000FB4FF4784829
:105710000820142121221423A9F80080FDF7C0FBE2
:105720001420082114222123FDF7BAFB152015218E
:10573000FDF704FC13201521FDF700FC15201321B3
:10574000FDF7FCFB13201321FDF7F8FBB9F800204F
:1057500014201421062300940CF0D8FADDE9061079
:1057600053EC182B36F028FA36F06CF906460898F8
:1057700000900D9801900A98029009980390DDE935
:105780000E02DDE90B3104960026FFF7D7F900245D
:1057900000270DF1400AFFF715BB00BF14A8FBF767
:1057A0003DF908B314AA07CACBF82420CBE90701B6
:1057B0009DF85C008BF82800FBF760F840F2704120
:1057C000C2F20001C8609BF828006FF06F0100284A
:1057D0006FF02F0008BF6FF02F0108BF6FF06F0050
:1057E0008BF800108BF8010018B0BDEC0A8B01B0EB
:1057F000BDE8F08F1F20A9F800004FF6FF70FDF7FD
:10580000C1FA41F284030127C0F6040323206E216C
:1058100010220097FEF7DEFD4FF47A7006F044FA8E
:1058200001F098FF4FF6FF7018B0BDEC0A8B01B085
:10583000BDE8F04FFDF7A6BA506C65617365207541
:10584000736520746865207374796C757320636C5C
:1058500069636B207468650063726F7373206F6E89
:10586000207468652073637265656E2E54686520C8
:1058700063726F73732077696C6C0000616C776181
:105880007973206D6F766520756E74696C2074680D
:10589000652073637265656E2000000061646A753F
:1058A00073746D656E7420697320636F6D706C65C1
:1058B0007465642E00000000F0B589B0002043F646
:1058C00030010490CDE90200CDE900000590C4F25A
:1058D00002010A6840F6000442F004020A600A6805
:1058E000C4F2020402F004020592059A05900A68C7
:1058F00004F5806642F008020A6009686D4601F00E
:105900000801059105990421CDE9001001273046D1
:1059100029460297FBF7F6FF082000904FF4041089
:10592000CDE9010730462946FBF7ECFF4FF48060D4
:10593000CDE900070320039020462946FBF7E2FF4C
:105940004FF40060009020462946FBF7DBFF4FF440
:105950008050009020462946FBF7D4FF09200521FE
:105960000022FCF769F90920FCF754F940F25C04C5
:10597000C2F2000404F1140004F1160101F034FE37
:1059800005A8FBF74BF8F0B105AA07CA6262C4E9A3
:1059900007019DF8200084F82800FAF76FFF40F215
:1059A0007041C2F20001C86094F828006FF06F01E6
:1059B00000286FF02F0008BF6FF02F0108BF6FF0B5
:1059C0006F0021706070012009B0F0BD40F270409E
:1059D000C2F20000407870472DE9F04FB3B040F2BA
:1059E0007044C2F200042FA9A0788A1C0A920A1DF2
:1059F00009928A1D002801F108000592049003D144
:105A0000FFF75AFF0120A070012040F2B0476070FC
:105A1000C2F20007388840F28804C2F200041E2156
:105A200002902088ADF846104FF01E11129140F2FE
:105A3000221101901E20C0F21E01C0F2A000179199
:105A40004FF0F01116901391A021199040F2C2105E
:105A5000C0F22211C0F2C2101891F02115904FF43B
:105A6000917040F60048C0F2C211ADF868004FF6E0
:105A7000FF70C4F202081491FDF784F900214FF081
:105A8000FF303980208000913AA30A200A21102299
:105A9000FEF7A0FC16AE0DF146000DF1B209002193
:105AA00035E000BF089E0DF1580A3AF816400DF196
:105AB000460B40F2B0473BF81650C2F200074FF6D3
:105AC000FF703880A4F10E0004F10F0180B28AB299
:105AD00029462B46FDF7E4F9A5F10E0005F10F026A
