:020000040800F2
:100000008086012055020008856B000831490008F0
:10001000816B0008411F0008E19500080000000006
:10002000000000000000000000000000F17800085F
:10003000691F000800000000916B00081979000892
:100040006F0200086F0200086F0200086F020008CC
:100050006F0200086F0200086F0200086F020008BC
:100060006F0200086D1F00086F0200086F02000891
:100070006F0200086F0200086F0200086F0200089C
:100080006F0200086F0200086F0200086F0200088C
:100090006F0200086F0200086F0200086F0200087C
:1000A0006F0200086F0200086F0200086F0200086C
:1000B0006F0200086F020008F97900086F0200085B
:1000C0006F0200086F0200086F0200086F0200084C
:1000D0006F0200086F0200086F0200086F0200083C
:1000E0006F0200086F0200086F0200086F0200082C
:1000F0006F0200086F0200086F0200086F0200081C
:100100006F0200082D6C0008057A00086F020008D5
:100110006F0200086F0200086F0200086F020008FB
:100120006F0200086F0200086F020008511F0008EC
:100130006F0200086F0200086F0200086F020008DB
:100140006F0200086F0200086F0200086F020008CB
:100150006F0200085D1F00086F0200086F020008B0
:100160006F0200086F0200086F0200086F020008AB
:100170006F0200086F0200086F0200080000000014
:100180006F0200086F02000800F002F800F052F859
:1001900014A696E8000CB244B344DA4501D100F04D
:1001A00049F8BAE80F000FA696E83000A5EB040561
:1001B00004EB0607AAEB0704A7F101074FEA1515A0
:1001C0004FEA3414A4F10104AC4201D300F032F838
:1001D00013F0010F18BFFB1A43F0010300F001F800
:1001E000DBE71847F80C0400380D0400103A24BF70
:1001F00078C878C1FAD8520724BF30C830C144BF8C
:1002000004680C6070470000704700000023002461
:1002100000250026103A28BF78C1FBD8520728BF16
:1002200030C148BF0B6070471FB533F00AF81FBDDF
:1002300010B510BD00F04CFA1146FFF7F5FF29F09C
:1002400057F900F06AFA03B4FFF7F2FF03BC00F0BD
:100250006DFA00000948804709480047FEE7FEE7BD
:10026000FEE7FEE7FEE7FEE7FEE7FEE7FEE7FEE766
:1002700004480549054A064B70470000E579000827
:100280008901000880800120808601208082012071
:100290008082012053EA020C00F069802DE9F04BC6
:1002A0004FF00006002B1FBFB3FA83F503FA05F4E5
:1002B00024FA05F65E4012BF1643B2FA82F502FA3E
:1002C00005F4C5F120051EBF22FA05FC44EA0C0422
:1002D000203556EA044C4FEA144418BF641C4FF012
:1002E00000084FF00009904271EB030C39D300294C
:1002F00019BFB1FA81F701FA07F6B0FA80F700FAF0
:1003000007F6C7F120071EBF20FA07FC46EA0C06D5
:100310002037B6FBF4FCA7EB0507103F07F01F0BD7
:10032000CBF120062CFA06F60CFA0BFB44BFB346C1
:100330000026202FA4BF5E464FF0000B5BEA060CA0
:1003400008BF4FF0010B19EB0B0948EB0608ABFB9C
:10035000027C06FB02CC0BFB03CCC01B71EB0C0137
:10036000C1E70B46024641464846BDE8F08B13B54F
:10037000084318BF4FF0FF300146AFF30080BDE8DF
:100380001C40704740EA0103024630B59B0710D17C
:100390004FF0013400E008C208C91D1B9D4315EA57
:1003A000C41FF8D013F0FF0102F8011B0DD01B0A87
:1003B000F8E711F8013B002B02F8013B05D011F8DA
:1003C000013B002B02F8013BF3D130BD10B5431CBB
:1003D00002E010F8011B71B18107FAD14FF0013230
:1003E00002C88C1A8C4314EAC211F9D0C01A0A064A
:1003F00003D0C01E10BDC01A10BD0A0401D0801E5B
:1004000010BD0902FCD0401E10BD032A40F230800E
:1004100010F0030C00F0158011F8013BBCF1020F45
:10042000624498BF11F801CB00F8013B38BF11F8C6
:10043000013BA2F1040298BF00F801CB38BF00F8DD
:10044000013B11F0030300F02580083AC0F008805A
:1004500051F8043B083A51F804CBA0E80810F5E73E
:10046000121D5CBF51F8043B40F8043BAFF3008021
:10047000D20724BF11F8013B11F801CB48BF11F896
:10048000012B24BF00F8013B00F801CB48BF00F866
:10049000012B704710B5203AC0F00B80B1E818501E
:1004A000A0E81850B1E81850A0E81850203ABFF45E
:1004B000F5AF5FEA027C24BFB1E81850A0E81850FD
:1004C00044BF18C918C0BDE810405FEA827C24BF51
:1004D00051F8043B40F8043B08BF7047D20728BFDF
:1004E00031F8023B48BF11F8012B28BF20F8023B2E
:1004F00048BF00F8012B7047431A28BF9A427FF685
:10050000C9AF1044114410F0030F1EBF11F8013D94
:10051000521E00F8013D10F0030F7FF4F6AF103AC1
:10052000C0F00A8010B531E9185020E91850103A8F
:10053000BFF4F9AFBDE81040530724BF31E90810FC
:1005400020E9081044BF51F8043D40F8043D12F082
:10055000030F08BF7047D20728BF31F8023D48BFDC
:1005600011F8012C28BF20F8023D48BF00F8012CEB
:10057000704702F0FF0343EA032242EA024200F01E
:100580000AB802F0FF0343EA032242EA024200F003
:1005900024B84FF000020429C0F0128010F0030CC0
:1005A00000F01B80CCF1040CBCF1020F18BF00F866
:1005B000012BA8BF20F8022BA1EB0C0100F00DB815
:1005C0005FEAC17C24BF00F8012B00F8012B48BF73
:1005D00000F8012B70474FF0000200B51346944617
:1005E0009646203922BFA0E80C50A0E80C50B1F18B
:1005F0002001BFF4F7AF090728BFA0E80C5048BF9F
:100600000CC05DF804EB890028BF40F8042B08BF3C
:10061000704748BF20F8022B11F0804F18BF00F838
:10062000012B70470000000030B44FF0013C50F83F
:10063000042B51F8043BCCFA52F4D51A20D1FCB962
:1006400050F8042B51F8043BCCFA52F4D51A17D1C8
:10065000B4B950F8042B51F8043BCCFA52F4D51A33
:100660000ED16CB950F8042B51F8043BCCFA52F47B
:10067000D51A05D1002CDAD030BC4FF000007047FD
:1006800029BAB1FA81F111F01801D1F120008440AA
:10069000F2D1CA40CB4012F0FF0213F0FF0330BC8E
:1006A000D01A704770477047704710B500F008F8CF
:1006B000006810BD10B5044600F002F8046010BDDB
:1006C0000048704798C001200048704798C001203A
:1006D0007546FFF7F9FFAE4605006946534620F020
:1006E0000700854618B020B5FFF7C2FDBDE82040E1
:1006F0004FF000064FF000074FF000084FF0000BDE
:10070000AC46ACE8C009ACE8C009ACE8C009ACE84C
:10071000C00921F007018D46704710B50446AFF3BC
:1007200000802046BDE81040FFF78DBD014918202C
:10073000ABBEFEE7260002007047000086B040F224
:10074000142842F2904A4CF2340BC2F20008C2F272
:10075000010A4FF00009C2F2010BB1EE008A98F8CD
:100760000200C8B11FE000BF29F012FBBBF8040073
:100770004FF00009CBF80C00BBF80600CBF81000D6
:10078000142088F8029029F031F942F2904AC2F21E
:10079000010A98F8020030B90A2029F027F998F8E0
:1007A00002000028F8D098F80B0098B908F020FF54
:1007B0000146504640F68442FFF727FEBAF8020091
:1007C000B0F5A07F84BF4FF4A070AAF8020001200A
:1007D00088F80B0029F09EFEBAF800700020702106
:1007E00040F23F1240F2DF13009704F06FFDBAF8B9
:1007F0000200F8B10AF10604002508E004F0DAFC72
:10080000BAF802000135854204F10A0412D22088A8
:10081000A28834F8027C6188E3884CF2F02690428A
:10082000C2F20106378008BF9942E7D004F074FC99
:10083000E6E700BFDBF80C000128A6BFDBF80C00E0
:1008400080B20020ABF80400DBF810100129A6BF2D
:10085000DBF8101089B20021B0F5A07FABF80610CC
:1008600024BF40F23F10ABF80400B1F5F07F24BF85
:1008700040F2DF11ABF8061088F80F90ABF80800D3
:10088000ABF80A1002F03EFB98F8041069B1054677
:1008900002F038FB401B80087C2806D8052029F090
:1008A000A5F898F804000028F2D198F80470002008
:1008B0004FF0000A05900190CDE90300029051E04D
:1008C000042D4FF0040098BF0546B5F59D7F88BF05
:1008D00040F23B15042E98BF0646281FB6F5ED7F63
:1008E00088BF40F2DB1680B2311F89B22B1D024651
:1008F000ABF80450ABF80660371D834288BF1A4638
:1009000038BF18460B468F4288BF3B4638BF394632
:10091000CDF800A004F0DAFC681E80B2711E89B226
:100920006B1C0246771C834288BF1A4638BF1846A4
:100930000B468F4288BF3B4638BF39464FF6FF779C
:10094000009704F0C3FC0120ABF80850ABF80A6034
:1009500088F80F000024052029F048F8002C4F46A5
:1009600040F0AA8298ED0F1A98ED100AB5EE401AE1
:100970000020F1EE10FA18BF0120B5EE400A002168
:10098000F1EE10FA18BF01210843C00728D021EE6C
:10099000081ABDEEC11A11EE100A60B1BBF80410BE
:1009A0000844B0F59F7F40F23F11C8BF084620EAD7
:1009B000E070ABF8040020EE080ABDEEC00A10EEAD
:1009C000101ABBF8060069B10844B0F5EF7F40F299
:1009D000DF11C8BF084620EAE070ABF8060001E06E
:1009E000BBF8060098F80450A946002D18BF4FF038
:1009F0000109BBF80460BBF80810BBF80A2071407D
:100A00004240114389B2B1FA81F1BAF1000F4FEAC5
:100A1000511809D042F29044B8F1000FC2F201041B
:100A20004ED0DDE904769BE0B8F1000F08BF29F055
:100A3000AFF9002D4FEA076000F0B680002840F0C3
:100A4000B380BBF80650281F80B21F2840F25A819D
:100A5000702DC0F05781BBF8046040F23F10B6F52E
:100A60009F7F88BF064629F093F942F29043C2F275
:100A70000103598840F21428C2F20008B8F81400A3
:100A80008A09042A0AD801EB810203EB42020131F0
:100A90009080D68015815681958159804CF2F02145
:100AA000C2F2010108803046294604F083FB4FF072
:100AB000010A002402F026FA02902F46019660E017
:100AC00087B27020702F98BF074640F21420C2F200
:100AD000000040F23F11B6F59F7F808A88BF0E4626
:100AE0004CF2F021C2F2010108800598049980B20D
:100AF00089B232463B4604F00FFB02F003FA01993B
:100B0000029089B2711A48BF4942039880B2381ADC
:100B100048BF404280B202294FF0000188BF012146
:100B200002284FF0000088BF01200843012817D198
:100B300060888109042913D840F21422C2F200020D
:100B400000EB8001928A04EB41018A80019A013016
:100B5000CA80039A4E810A818F8160800397019633
:100B6000E5B102F0CFF902994FF0010A401A40F6C0
:100B7000B831884214D8039D40F214280024C2F2F0
:100B80000008BBF80400CBF80C00BBF80600CBF85B
:100B900010000596CDE90357DDE600BF4FF0010ACE
:100BA000CDE90476B0E000BF002D4FF0010A40F01F
:100BB000AB80002800F0A880BBF80610BBF804004A
:100BC0000A1F1F2A20D8A0F14F0111F14F0F3BD867
:100BD000A0F19F0111F14F0F00F2B080A0F1EF01E1
:100BE00011F14F0F00F20681A0F23F1010F14E0FED
:100BF000C0F08A8040F214284FF0000AC2F20008C8
:100C000088F80BA00124FEE0A1F12A0242F2904AEA
:100C10001D2AC2F2010A4FD8A0F14A0111F11F0F9B
:100C200000F2E680A0F1700111F11F0F00F2F080D8
:100C3000A0F1960111F11F0F00F2EE80BC3810F107
:100C40001E0F5FD30320E8E042F29044C2F2010499
:100C500027884FF0000A0020702140F23F1240F236
:100C6000DF13A4F802A0009704F030FB608800288E
:100C70004AD0A51D00260CE004F09CFA42F29040F8
:100C8000C2F20100408801360A3586424FF0000A60
:100C90003AD22888AA8835F8027C6988EB884CF219
:100CA000F0249042C2F20104278008BF9942E3D0A9
:100CB00004F032FAE2E700BF4E39172922D8A0F13A
:100CC000400111F1190F00F2A580A0F15E0111F1B0
:100CD000190F00F2D780A0F17C0111F1190F00F279
:100CE000D380A0F19A0111F1190F00F2CF80A0F189
:100CF000B80111F1190F00F2CB80D63810F1180F9E
:100D000080F0C8804FF0010ABBF8045008EA0A00DE
:100D1000CBF80C50BBF8066040F2142801284FF0C5
:100D2000000AC2F20008CBF810607FF4C9AD98F851
:100D30000F0000287FF40EAEC2E500BF64207421CE
:100D4000DC2288234FF6FF77009704F0BFFA4CF2BD
:100D5000F0204FF0000AC2F20100A0F800A06420C9
:100D60007421DC22882304F033FA7C2078211022BD
:100D70005DA30127009705F01DFD42F29045C2F2E8
:100D80000105284608F0F6FD4FF4FA700CF01AFD44
:100D90002F880020702140F23F1240F2DF130097AD
:100DA00004F094FA68880028AED0063500260CE0DE
:100DB00004F000FA42F29040C2F20100408801368D
:100DC0000A3586424FF0000A9ED22888AA8835F854
:100DD000027C6988EB884CF2F0249042C2F2010454
:100DE000278008BF9942E3D004F096F9E2E700BFFC
:100DF000002012E040F214280124C2F200084FF053
:100E0000000A88F80B40DDE90357059EB9E600BFEC
:100E1000012002E000203EE0022043F6FC61C0F623
:100E2000030131F810700020702140F23F1240F2AF
:100E3000DF13AAF80070009704F048FABAF802002D
:100E4000A0B30AF10605002609E000BF04F0B2F9DC
:100E5000BAF802000136864205F10A0526D2288832
:100E6000AA8835F8027C6988EB884CF2F02490421D
:100E7000C2F20104278008BF9942E7D004F04CF980
:100E8000E6E700BF012006E0022004E0032002E0C4
:100E9000042000E0052040F68C21C0F6040131F862
:100EA000100040F21421C2F20001888229F032FBC6
:100EB0004FF0000A28E700BF02F024F898F8041069
:100EC00000293FF451AC054602F01CF8401BC00855
:100ED0007C283FF649AC052028F088FD98F80400EE
:100EE0000028F1D1FFF740BC5341564544000000B3
:100EF00080B50FF0C1F9002818BF0FF061F940F27A
:100F00001420C2F200000121C171017900220029E0
:100F100018BF0121017240F20040C4F202004FF4F8
:100F2000004101F0E9FFBDE880400EF02FBF000056
:100F300010B501F0C9F84CF27C34C2F2010420462D
:100F40002DF016FD20460CF0F1FB4CF23404C2F2F9
:100F50000104E06821690EF08DFF08F055FB0028C0
:100F600008BF10BD01889FED121A00EE101AB8EEEE
:100F7000400A20EE010AB5EE400A9FED0E1AF1EE8E
:100F800010FAB8BFB0EE410AC18884ED050A61804D
:100F90004188044608460EF0EBFF20790FF01EF959
:100FA00001F0B0FF40F21421C2F20001C86110BD8F
:100FB0009A99193F00000000B0B503F0FDFE40F221
:100FC0001425C2F2000505F1380003F0B3FC082037
:100FD00002210022002430F0A1FEA86141F2B910E4
:100FE000C0F6000003F0FEFF41F2A500C0F60000CD
:100FF00003F0ECFF41F2F100C0F6000003F0ECFF5B
:1010000041F20120C0F6000003F0F2FF40F2FC4084
:10101000C2F2000003F0A4FA0CF0C0FB04F08CF95B
:101020004FF4784003F0EAFF4CF2F020C2F20100E6
:101030001F2101804CF25800C2F20100048008F028
:10104000E9FA07F0DDFD1EF033F925F0ADF925F0E2
:10105000CFF9BDE8B040FFF76BBF00004CF23400A1
:10106000C2F201000078704740F21425C2F2000578
:101070004CF2340705F138040026C2F2010702E001
:101080000A2028F0B3FC204603F0BAFD687801304E
:10109000C1B232296870F3D320466E7003F00AFDA6
:1010A0003870EDE780B582B0014640F21420C2F2FC
:1010B0000000806900220092B8B18DF8061001216D
:1010C0008DF807100DF106016A46002331F036F85D
:1010D000009850B14EF60450CEF200004FF080510F
:1010E0000160BFF34F8FBFF36F8F02B080BD000070
:1010F00080B582B0014640F21420C2F2000080693F
:1011000000220092B8B18DF8061002218DF8071068
:101110000DF106016A46002331F010F8009850B135
:101120004EF60450CEF200004FF080510160BFF344
:101130004F8FBFF36F8F02B080BD000082B040F2CE
:101140001425C2F200050DF106040126002703E074
:10115000AE7101F0D7FEE861A86921464FF0FF3279
:1011600031F090F80128F7D19DF80700032804D842
:1011700005EB80018A6A01328A620328ECD8DFE835
:1011800000F00315090F00BF9DF806000028E3D109
:101190002E71DEE79DF806000028DDD1D8E700BFFC
:1011A0009DF806000028D7D12F71D2E79DF80600E0
:1011B0000028D1D16E71CCE780B582B0014640F2F3
:1011C0001420C2F20000806900220092B0B18DF8B4
:1011D00006108DF807200DF106016A46002330F055
:1011E000ADFF009850B14EF60450CEF200004FF023
:1011F00080510160BFF34F8FBFF36F8F02B080BD8E
:1012000080B582B0014640F21420C2F2000080692D
:1012100000220092B8B18DF8061003218DF8071056
:101220000DF106016A46002330F088FF009850B1A6
:101230004EF60450CEF200004FF080510160BFF333
:101240004F8FBFF36F8F02B080BD000040F21426B5
:101250004CF2340B40F2004842F2D0354FF0010A14
:10126000C2F20006C2F2010B4FF47A79C4F202080E
:101270000024C2F20105012004E000BF347386F8A7
:1012800002A03846B178B1FA81F24FEA521729B17B
:101290000A2028F0ABFB3846F4E700BFC00726D190
:1012A00072B6707BB17B88420CD000BF707B707BC4
:1012B000013000F00F00707362B672B6707BB17BC4
:1012C0008842F3D162B600200021F470347134708A
:1012D0007471B4711DF02EFF11F062FC11F0B4FCBA
:1012E00028B111F05DFC11F0AFFC22F0A7FE00F078
:1012F0006FF872B6707BB17B884214D0707B00EBC4
:10130000400015F82000717B0138013101F00F0118
:10131000B0FA80F07173400962B6F07072B6707BFB
:10132000B17B8842EAD162B67079002818BF747127
:10133000B07920B1B471DBF80C00DBF810009BF839
:10134000000048B1F0783179002918BF0121084325
:1013500000F0010001E000BF0020307027F024FA07
:10136000307B00287FF48AAF0EF024FF002818BFDE
:101370000EF026FF0EF036FC18B10EF02BFC00F03C
:101380006FF9BBF8020000B3F079F0B901F0BAFDD3
:10139000F169BBF80220401A02FB09F1884214D31C
:1013A0000EF06AFF002818BF0EF00AFF86F807A0AB
:1013B00030794FF40041002818BF012030724046B8
:1013C000002201F099FD0EF0E1FC052061E700002C
:1013D0002DE9F04F81B04CF2340640F21427C2F2EE
:1013E0000106C2F20007F5683469D6F80C90D6F809
:1013F0001080F879A0B3387900210446002818BF7E
:10140000012497ED0F0A97ED101AB5EE400AF1EEA0
:1014100010FA18BF0121B5EE401A0022F1EE10FAC1
:1014200018BF01221143C9074FF0000102D198B142
:10143000387A88B940F20040F971C4F202004FF4E2
:101440000041012201F058FD0EF0CAFD307818B1BC
:10145000F06831690EF00EFD3C7201B0BDE8F08F0E
:1014600030787178884204D03078707030780EF01F
:1014700009FF307890B307F05FFC18B3002007F045
:1014800029FFF8B14CF20C00C2F20100B0F810A034
:101490004FEA9A11042915D8B0F812B0BBF5F07FC5
:1014A00010D2797A002000293862786240F08E806C
:1014B000B87B72B60130797B00F00F048C4263D1A7
:1014C00062B683E0787A80B3B87B72B60130797BFC
:1014D00000F00F0A8A4507D162B626E001B0BDE8E8
:1014E000F04F0EF053BC00BFB87B42F2D03B00EB94
:1014F0004000C2F2010B02210BF82010B87B00EB78
:1015000040000BEB80004580B87B00EB40000BEB0C
:101510008000848001F0F6FCB97B01EB41010BEB0C
:101520008101886087F80EA062B696ED050A97EDF6
:101530000F3A97ED081A97ED104A97ED092A23EE16
:10154000003A33EE011A24EE000A002030EE020ABF
:10155000BDEEC12A7872B8EEC23A12EE100ABDEEA4
:10156000C02AB8EEC24A12EE101A31EE431A30EE1B
:10157000440A05EB000A04EB010B012087ED081A71
:1015800087ED090A25E000BFB87B42F2D03500EBB9
:101590004000C2F20105012105F82010B87B00EBE4
:1015A000400005EB8000A0F802A0B87B00EB4000F3
:1015B00005EB8000A0F804B001F0A4FCB97B01EBBE
:1015C000410105EB81018860BC7362B6012078722D
:1015D00000202AEAEA74B4F59F7F2BEAEB75C8BFB6
:1015E00040F23F14B5F5EF7FC8BF40F2DF1518B1E8
:1015F0004C4501D1454502D001F084FCF861F4600E
:1016000020462946356101B0BDE8F04F0EF032BCEE
:1016100040F21420C2F20000012101737047000063
:101620004CF23400B5EE400AC2F201009FED041AFC
:10163000F1EE10FAB8BFB0EE410A80ED050A70472E
:10164000000000004CF23401C2F2010148807047F2
:1016500080B503F0C3FB0120BDE8804027F070B8DF
:101660002DE9F04FAFB00020ADF8B800CDE92C0067
:10167000CDE92A00ADF8A400CDE92700CDE9250089
:101680000EF0A8FC129011F08BFA11F0DDFA119017
:1016900064200EF0A3FD07F0B3FA002020F0C6FC92
:1016A0004FF4A0714FF4F072054624F06DFA28460D
:1016B000002124F051FA2846FF21002224F040FCAA
:1016C00028464FF6FF71002224F02EFC28461EF01B
:1016D0001BF840F62801C0F604010022824624F0DF
:1016E000ADFC504641F6C501002224F0A1FC0FF2EA
:1016F000FC6150461FF098F850460A210A2224F057
:1017000003FA284620F092FC4FF6FF74C0F20F0453
:1017100000212246074623F015FF38462C210322DC
:1017200024F032FA3846FF21002224F009FC384622
:101730004EF2C611002224F0F7FB284620F076FC7A
:1017400000212246814623F0FDFE484603212C223B
:1017500024F01AFA4846FF21002224F0F1FB484603
:101760004EF2C611002224F0DFFB2846109511F03E
:10177000ADFA01F0C7FB07900FF28C6150461FF0E5
:1017800053F8002024F094FE0DF1740B1AAE584665
:10179000314607F08FFCBDF87440BDF86850142046
:1017A0000CF010F85846314607F084FCBDF8740080
:1017B000BDF86810044414200D440CF003F858469A
:1017C000314607F077FCBDF87400BDF8681004449A
:1017D00014200D440BF0F6FF5846314607F06AFC22
:1017E000BDF87400BDF86810044414200D440BF0DB
:1017F000E9FF5846314607F05DFCBDF87400BDF8BE
:101800006810044414200D440BF0DCFF58463146A8
:1018100007F050FCBDF87400BDF8681004441420B3
:101820000D440BF0CFFF5846314607F043FCBDF89E
:101830007400BDF86810044414200D440BF0C2FF7E
:101840005846314607F036FCBDF87400BDF8681004
:10185000044414200D440BF0B5FFC4F3CF001490E2
:10186000C5F3CF00139017A8811C0B91011D09919E
:10187000811D069100F108010491B11C0A91311DEE
:101880000891B11D059106F108010391064643F246
:10189000802043F29221C0F60300C0F603010FF24C
:1018A000705800230022CDE90C7930F8134031F84C
:1018B00013500F92A4F116006A1E01B212B23846FC
:1018C0001F4624F021F9601EA5F1160201B212B2E2
:1018D000484624F019F97B1C5846202142460E97B1
:1018E000159325F0A7FB50465946D8461EF09CFF9D
:1018F0000020002424F0DCFD01F004FB83464FF0BF
:10190000000940F6877557461AA8314607F0D2FB02
:10191000BDF868004FF0000AA0F13C01A94215D8BB
:10192000BDF85C10A1F13C02AA420FD8139B5A1AD1
:1019300038BFCA1A149B191A38BFC11A782998BF20
:10194000792A03D3012C33D804F1010A01F0DAFA21
:10195000A0EB090064281CD301F0D4FAB4463E463B
:10196000BDF86870BDF85C50159B8146404620214B
:101970000FF2B842CDE9007540F6877537466646E6
:1019800025F058FB384641461EF04EFF002024F05B
:101990008FFD01F0B7FAA0EB0B0042F21171884203
:1019A00080F0108205200BF00DFF5446ACE700BF1D
:1019B00028200BF007FF00200DF15A0A16ACADF8F5
:1019C0007000CDE91A00ADF86400CDE9170050466B
:1019D000214607F025FC58B1BDF85A10BDF8580053
:1019E000DDF83490ADF86810C3460FF224481BE0D0
:1019F0005046214607F05EFBBDF85A10DDF83490E2
:101A0000A1F13C00A84240F687734FF00005C346A1
:101A100000F2C081BDF858000FF2F438A0F13C028A
:101A20009A4204D8ADF868100125ADF85C0040F684
:101A30001052159B58462021C0F60402009525F04F
:101A4000F9FA384659461EF0EFFE08200BF0BAFEB0
:101A500016AC5046214607F0E3FB38B11AA8BDF892
:101A60005A1040EA4502BDF8580014E0504621469D
:101A700007F020FBBDF85A1040F68773A1F13C0037
:101A800098420DD8BDF85800A0F13C029A4207D800
:101A90001AAA42EA4502118046EA4501013508804A
:101AA00040F61052159B58462021C0F604020095BE
:101AB00025F0C0FA384659461EF0B6FE08200BF055
:101AC00081FE16AC5046214607F0AAFB20B1BDF8B6
:101AD0005A10BDF8580011E05046214607F0EAFAC6
:101AE000BDF85A1040F68773A1F13C0098420BD81C
:101AF000BDF85800A0F13C029A4205D81AAA22F873
:101B0000151026F81500013540F61052159B584661
:101B10002021C0F60402009525F08CFA384659467B
:101B20001EF082FE08200BF04DFE16AC50462146FA
:101B300007F076FB20B1BDF85A10BDF8580011E04F
:101B40005046214607F0B6FABDF85A1040F68773A2
:101B5000A1F13C0098420BD8BDF85800A0F13C021E
:101B60009A4205D81AAA22F8151026F81500013550
:101B700040F61052159B58462021C0F604020095ED
:101B800025F058FA384659461EF04EFE08200BF054
:101B900019FE16AC5046214607F042FB20B1BDF8B5
:101BA0005A10BDF8580011E05046214607F082FA5D
:101BB000BDF85A1040F68773A1F13C0098420BD84B
:101BC000BDF85800A0F13C029A4205D81AAA22F8A2
:101BD000151026F81500013540F61052159B584691
:101BE0002021C0F60402009525F024FA3846594613
:101BF0001EF01AFE08200BF0E5FD002024F058FC32
:101C0000032DC0F0AD80BDF86A00BDF86830BA465B
:101C1000BDF85E10DDE90A72834207D9BDF85C2089
:101C20001AAFADF85E203246ADF86A303880BDF8A4
:101C30006C00BDF86A701180BDF86010DDE90832F3
:101C4000874213D9BDF85E20ADF86C70BDF868709E
:101C5000ADF86020DDE90A32874207D9BDF85C2083
:101C60001AABADF85E203246ADF86A70032D1880CD
:101C7000118065D0BDF86E00BDF86C70BDF86210C3
:101C8000DDE9053287421FD9BDF86020ADF86E70DE
:101C9000BDF86A70ADF86220DDE90832874213D9D9
:101CA000BDF85E20ADF86C70BDF86870ADF86020CE
:101CB000DDE90A32874207D9BDF85C201AABADF8DE
:101CC0005E203246ADF86A70042D1880118037D03E
:101CD000BDF87000BDF86E70BDF86410DDE9033228
:101CE00087422BD9BDF86220ADF87070BDF86C70DA
:101CF000ADF86420DDE9053287421FD9BDF86020C8
:101D0000ADF86E70BDF86A70ADF86220DDE908329A
:101D1000874213D9BDF85E20ADF86C70BDF86870CD
:101D2000ADF86020DDE90A32874207D9BDF85C20B2
:101D30001AABADF85E203246ADF86A70188011809B
:101D400005F01E001AA90A5A0E99335A2AA81492AD
:101D500020F8112025A80F9A139320F811300AE0DB
:101D600001F0D0F80799401A4EF66021884229D830
:101D70000F9ABA46013A0132D3B243F2802043F2BD
:101D800092210C9F092BC0F60300C0F60301FFF45B
:101D90008CAD03E00FF2780849E600BF09272AAAB4
:101DA00025AB009706F090FDBAF1000F0AD023A1F1
:101DB00050461EF039FD002024F07AFB4FF41670D7
:101DC0000BF000FD109D119C35B114B1204610F0B0
:101DD0007DFF284620F038F912980EF0FFF914B173
:101DE000204622F02BF92FB0BDE8F08F43616C69DB
:101DF00062726174653A20686F6C642063726F73FD
:101E00007320312F3900000069646C652E2E2E007E
:101E100043616C6962726174653A20686F6C64201A
:101E200063726F73732025642F39000025642F3986
:101E30002020583A256420593A25640043616C6992
:101E40006272617465204F4B000000007047000013
:101E500001464CF2E440C2F2010001F09FBD0000D7
:101E600080B54CF2E440C2F2010001F0A9FD043853
:101E700018BF012080BD000080B500F019F80128CE
:101E80001CBF012080BD4CF2E440C2F2010001F011
:101E9000FDFE002818BF80BD4CF2E440C2F20100F4
:101EA0004FF4006101F01EFC002818BF012080BD26
:101EB00081B001208DF803009DF8030001B0704748
:101EC00080B513460A4601464CF2E440C2F20100D6
:101ED00002F0B6F8002818BF012080BD80B582B09E
:101EE00040F27820C2F2000001210068ADF806102F
:101EF0000DF106010022002327F068FE02B080BD2C
:101F000080B513460A4601464CF2E440C2F2010095
:101F100002F036F9002818BF012080BD80B582B0DC
:101F200040F27820C2F2000002210068ADF80610ED
:101F30000DF106010022002327F048FE02B080BD0B
:101F4000FEE7000007F04EBB07F0E6BC07F0F8BC68
:101F50004CF28440C2F2010000F09ABB40F24440CF
:101F6000C2F2000000F094BB70470000082000F0AF
:101F7000E1BE000072B600BFFEE7000040F22C3365
:101F8000C2F200035A7A002A1CBF0120704780B5B4
:101F900093F809C08646002003F80C005A7A03EB38
:101FA0008202C2F804E05A7A1A44107293F809C007
:101FB0000CF101025A720CF130020A7042F63A72C8
:101FC000A1F80120C87080BDF0B581B04CF26C075B
:101FD000044643F60C46C2F201070020C4F2020692
:101FE000F86100F08FFF3168C9031BD43068C00767
:101FF0001CBF01203060306810F0F20F30D0306824
:10200000C00631D43068800637D4306840063DD4ED
:102010003068000643D43068800749D4012001B0FD
:10202000F0BD00BFC4B10546601C10D13068C003CC
:10203000DCD53068C00344BF30685FEAC030D5D516
:102040003068C003F2D4D1E73068C003CED500F0C9
:1020500059FF401BA042F7D9032001B0F0BD00BFDB
:10206000002001B0F0BD00BFF86940F01000F86139
:102070001020306030688006C7D5F86940F008004D
:10208000F8612020306030684006C1D5F86940F022
:102090000400F8614020306030680006BBD5F86964
:1020A00040F00200F8618020306030688007B5D5CC
:1020B000F86940F02000F86102203060012001B092
:1020C000F0BD000007F09ABA07F0A4BA70B581B06D
:1020D0000022009290F83C20012A03D1022001B096
:1020E00070BD00BFD1F800E001221FFA8EFC4FEA5C
:1020F0004C0380F83C200EEB4E0213FA8EF31024B2
:10210000BEF1090F88BFA3F11E0288BF0C2403682B
:1021100007251E59954026EA05051D518D681E5953
:1021200005FA02F232431A514968062906D801EB32
:1021300081014A1F194651F8345F0EE00C2901EB6A
:10214000810105D8A1F12302194651F8305F04E05E
:10215000A1F14102194651F82C5F1F24944025EA51
:1021600004040C600CFA02F20C6842F2043CC4F263
:10217000010C2243ACF54174A3420A603ED1BEF18A
:10218000120F07D1DCF8001041F48001CCF80010E8
:1021900034E000BF2EF0010110292FD1DCF800102F
:1021A000BEF1100F41F40001CCF8001026D14CF222
:1021B0005C01C2F2010109684DF68362C4F21B3270
:1021C000A1FB0212910C01EB8101490000910099E1
:1021D000A1B1009901390091009979B100990139B3
:1021E0000091009951B1009901390091009929B1EC
:1021F00000990139009100990029EAD1002180F865
:102200003C10002001B070BD0068C06C7047000039
:10221000002804BF0120704710B5016C00293DD093
:10222000016CC90645D4016C41F20212914302319E
:1022300042F204320164C4F20102116821F4403117
:102240001160136890E812102343D0F810E0136077
:102250004A68012422F480724A604A68C0F6007419
:1022600042EA0E224A604A6822F040724A604A6896
:1022700042EA0C024A608A6822F400628A60C268FC
:102280008B681A438A60826A8B68A24223F070636B
:102290008B608B6810D123F0405216E0044600F0AA
:1022A00065F820460021616484F83C10016CC90681
:1022B000B9D5012153E000BF1A438A608A6822F031
:1022C00040528A60C26A8B681A438A608A6822F028
:1022D00002028A608A68037E90F8204042EA430244
:1022E0008A604A6884B142F400624A604A684EF2E9
:1022F000000322F460424A60426ACFF6FF734C68E2
:1023000003EB4232224301E022F400624A60CA6ACF
:1023100040F2000C22F47002CA62C3694269CFF62F
:10232000F07CCC6A0CEB03532343CB628B6823F421
:1023300000738B6090F830308C6844EA43238B60E4
:102340008B6823F480638B608B6843EA82228A6007
:1023500000214164026C012363F301020264002244
:1023600080F83C20BDE810400846704780B586B034
:1023700042F200010068C4F2010100228842059285
:10238000CDE903220292019202D006B080BD00BFC7
:1023900043F630000092C4F20200436943F48073B4
:1023A0004361436903F480730093009B00920368C8
:1023B00043F001030360006800F001000090009802
:1023C0000320CDE9010001F5604001A9039200F06E
:1023D000BDFC06B080BD000070B5044600680D4627
:1023E0008268520544BF80685FEAC05038D400F06C
:1023F00089FD21680A68920749D40646681C3CD0CA
:10240000DDB90868800721D5086880073FD40868CF
:1024100080071BD50868800739D40868800715D560
:102420000868800733D4086880070FD508688007DC
:10243000E7D52CE00868800729D400F063FD801BF5
:102440002168A842F6D908688007F3D4206C40F0D0
:1024500004002064002084F83C00032070BD00BF0D
:10246000206C40F020002064002084F83C00012013
:1024700070BD00BF0868800709D40868800706D4CB
:10248000086880075CBF08685FEA8070F2D56FF06B
:1024900012000860206C40F400702064886810F01E
:1024A000405F01D0002070BD207E0028FAD1C86AAC
:1024B00010F4700F02D088684005F3D4206C20F42B
:1024C00080702064206CC004ECD4206C40F00100CB
:1024D0002064002070BD000010B581B00021009183
:1024E00090F83C10012903D1022001B010BD00BFBB
:1024F0000468012180F83C10214651F8083FDB07B1
:1025000029D10B684DF6836243F001030B604CF256
:102510005C03C2F201031B68C4F21B32A3FB02235B
:102520009A0C02EB42020092009AA2B1009A013A80
:102530000092009A7AB1009A013A0092009A52B140
:10254000009A013A0092009A2AB1009A013A009248
:10255000009A002AEAD10A68036CD2070CD143F032
:102560001001016400F1440101200A681043086071
:10257000002001B010BD00BF40F2017223EA020248
:1025800002F5807202646268520504D5026C012370
:1025900063F30D320264026C4FF0000E0023D2048C
:1025A00044BF426C22F0060342F2043C436480F8CC
:1025B0003CE06FF02200C4F2010C2060DCF8000067
:1025C000C0060DD0ACF5417084422BD14FF60450BB
:1025D000CFF6FF705CF8000010F0405F22D125E0DC
:1025E00042F20000C4F20100844217D042F20020FF
:1025F000C4F2010084420DD042F20010C4F2010086
:1026000084420FD1DCF80000C00607D0ACF5827020
:10261000844207D1DCF80000C00603D4086810F03B
:10262000405F03D0002001B010BD00BF4FF08040DC
:102630009BE7000090F83C10012904BF022070477E
:1026400001688A6822F001028A608968C90705D199
:10265000016C41F20112914301310164002180F8C3
:102660003C1000207047000090F83510022909D175
:10267000052180F835100068016821F00101016032
:10268000002070478021416501207047406D7047F0
:10269000F0B581B0002100914CF25C01C2F2010161
:1026A0000B68D0E9166148F2B51537680822C1F603
:1026B0004E358A403A42A3FB05350CD003681C68AE
:1026C000640708D51C6824F004041C60B260426DE5
:1026D00042F00102426501228A403A4208D0036872
:1026E0005B691B0604D5B260426D42F0020242658E
:1026F00004228A403A4208D003681B689B0704D52D
:10270000B260426D42F00402426510228A403A42B1
:1027100019D001680B681B0715D5B2600B680A68F1
:102720005B0309D4D20509D40A6822F008020A60C2
:10273000016C29B907E000BF110341D4016C11B14C
:10274000044688472046C26D202101FA02F33B422D
:1027500043D001680F68FF063FD5B36090F835702D
:102760000B68052F1CD123F016030B604B6923F077
:1027700080034B61036C0BB9836C1BB10B6823F0B6
:1027800008030B603F219140B160012180F83510B2
:10279000016D0022002980F8342054D158E000BF98
:1027A0000A685B0310D4D20512D40A6822F0100222
:1027B0000A60012180F83510002180F8341007E00C
:1027C000816C0029BCD1BEE7110301D4416C00E04B
:1027D000C16B11B1044688472046416DC1B3416DBC
:1027E000C9072ED0052180F835100168AA0A0B68A8
:1027F00023F001030B60009B0133934200931AD82E
:102800000B68DB0717D0009B01339342009312D86B
:102810000B68DB070FD0009B0133934200930AD86B
:102820000B68DB0707D0009B01339342009302D86B
:102830000B68DB07DFD1012180F83510002180F81B
:102840003410C16C21B101B0BDE8F040084700BFB1
:1028500001B0F0BD2DE9F041044600F053FBECB1AE
:102860000546022084F835000020216884F83400F1
:10287000086820F00100086021680868C00711D0CE
:1028800000F040FB401B0528F6D903252023032038
:10289000636584F83550BDE8F08100BF0120BDE8D4
:1028A000F08100BF086848F23F02CFF21002D4E97D
:1028B000013500EA020C04F10C0898E8C10143EA72
:1028C0000C032B431843D4E9072E304338431043FD
:1028D000626A40EA0E00042A40EA08031CD1206B19
:1028E000D4E90A2E40EA0E00184308604869BEF198
:1028F000000F20F0030040EA020040F0040C11D069
:10290000B8F5005F36D0B8F1000F45D1022A46D0A5
:10291000012A3BD032B942E00B60486920F0070041
:1029200040EA020C01F0F8004AF6AB221038CAF671
:10293000AA22A0FB02231A0943F6F463C1F814C0CB
:10294000C0F603039A5C40F2FF335F284FF03F006C
:1029500021EA030100FA02F088BF0431C4E916122B
:102960008860002301250020636584F83550BDE8A8
:10297000F08100BF032AD5D8012540230120DFE8DC
:1029800002F0030E030500BF82E700BFAEF1C07086
:10299000B0FA80F0400904E0032A04D3C2D1CEF398
:1029A00000600028BED0012540230120636584F823
:1029B0003550BDE8F081000090F834C0BCF1010F43
:1029C00004BF0220704770B54FF0010C80F834C08E
:1029D000D0F858E090F835C0BCF1010F38D14FF075
:1029E000020C80F835C04FF0000CC0F854C0D0F88D
:1029F00000C08468056CC06DDCF80060402C26F4D3
:102A00008026CCF80060CCF804300B4604BF134697
:102A10000A463F2101FA00F0CCF80830CCF80C202F
:102A2000CEF80800DCF8000040F01600CCF80000FA
:102A30002DB1DCF8000040F00800CCF80000DCF814
:102A4000000040F00100CCF80000002070BD00BF85
:102A5000002180F83410022070BD0000B0B504469B
:102A600000F050FA054640F20000C2F20000007883
:102A7000611C18BF044400BF00F044FA401BA04290
:102A8000FAD3B0BD2DE9F04381B04CF26C08C2F22C
:102A9000010898F81820012A04D1022001B0BDE8ED
:102AA000F08300BF0546012088F818004CF2503032
:102AB0008946FFF789FA28B1002188F8181001B07B
:102AC000BDE8F0834FF0FF30C9F80000286843F6F6
:102AD00010470128C4F202071CD128693968000296
:102AE00021F440713960396880B241F004013960E5
:102AF0003968084340F4803038604CF25030FFF7BA
:102B000063FA396821F00401396057F8101C89050F
:102B10003BD452E0D5E902603044864230D2F00026
:102B2000841C00BF28694FF44072C1B20329396880
:102B30004FEA002021F440713960396838BF82B211
:102B400041EA02003860386820F078003860386860
:102B500020433860386840F4803038604CF25030A0
:102B6000FFF732FA3968002821F07A01396047D13D
:102B7000D5E9020101360844864204F10804D1D3A4
:102B8000002057F8101C890517D557F8101C21F4A0
:102B9000007147F8101C57F8101C41F4006147F809
:102BA000101C57F8101C21F4006147F8101C57F84E
:102BB000101C41F4007147F8101C57F8101C49050F
:102BC0007FF57AAF57F8101C21F4806147F8101C8C
:102BD00057F8101C41F4805147F8101C57F8101C8E
:102BE00021F4805147F8101C57F8101C41F4806103
:102BF00047F8101C002188F8181001B0BDE8F083D8
:102C0000C9F8006057F8101C8905BED4D5E700004C
:102C100043F61041C4F20201086840F0004200206F
:102C20000A6070472DE9F0414CF26C04C2F20104D5
:102C3000277E012F04BF0220BDE8F0810546012058
:102C400020764CF2503098460F461646FFF7BCF9F6
:102C500020B100212176BDE8F08100BF2A46022D77
:102C600043F61045C4F202051ED0012A314638460B
:102C70000CD03ABB2A6822F440722A602A682A6083
:102C80002A6842F001022A6001702CE02A6822F4CE
:102C900040722A602A6842F480722A602A6842F0F0
:102CA00001022A6001801EE0286820F4407028603C
:102CB000286840F400702860286840F0010028600F
:102CC0003E6010E02A6822F440722A602A6842F4CA
:102CD00040722A602A6842F001022A600160BFF354
:102CE0006F8FC0F804804CF25030FFF76DF92968FF
:102CF00021F00101296000212176BDE8F08100006A
:102D000043F60440C4F20200C168B1F1FF3FC4BF02
:102D10000020704740F22311C4F26751016048F669
:102D2000AB11CCF6EF510160C068C00F70470000D6
:102D30007047000043F61441C4F201010A680242E0
:102D400014BF08607047FFF7F3BF00002DE9F04F94
:102D500083B000F1200200F13E4741F600450092A9
:102D600007F1FF77C4F2020508224FEAB726A8420E
:102D700008BF072200254FF000084FF00009072E7A
:102D800038BF4FEAB72201920AE000BF09F10109FA
:102D900008F10208B9F1100F05F1040500F0A28056
:102DA0000F68012202FA09FE17EA0E0AEED0D1F8E6
:102DB00004C003220CF003077E1E02FA08F4012E61
:102DC0006FEA040B12D88468CE6804EA0B0406FA92
:102DD00008F634438460446824EA0E06CCF30014F9
:102DE00004FA09F42643466004E000BF032F01D132
:102DF00003271EE0C6688C6806EA0B0604FA08F48E
:102E00002643022FC66014D16FF00302009E02EA2F
:102E1000590756F807C005F01C040F220B69A240A1
:102E20002CEA0202A3401A43F251D1F804C00CF07C
:102E30000307026807FA08F302EA0B021A431CF4BC
:102E4000403F0260A2D0002243F644030292C4F243
:102E500002031A6843F6004442F480421A601A687A
:102E6000C4F2010402F480420292029A29F00302A1
:102E70004FF6084C2244CFF6FF7C52F80C3005F098
:102E80000C070F26BE40B343019E06FA07F73B43EB
:102E900042F80C30A2684B6842EA0A0743F60C4C31
:102EA000DE0258BF22EA0A07A760C4F2010CDCF870
:102EB00000209E0242EA0A0758BF22EA0A07CCF81D
:102EC000007062689E0342EA0A0758BF22EA0A07B6
:102ED00067602268DB0342EA0A0758BF22EA0A0752
:102EE000276053E703B0BDE8F08F00000069084099
:102EF00018BF012070470000002A08BF0904816143
:102F00007047000047F6DC10C2F20100006870470D
:102F100040F2000047F6DC11C2F20000C2F20101EB
:102F200000780A68104408607047000080B543F6D6
:102F30000040C4F20200016841F4007101600168C0
:102F400041F480610160016841F4807101600320F7
:102F500000F0C2F80F2000F005F800F05DF8002046
:102F600080BD000070B586B0002543F64001019594
:102F7000C4F202010A68044642F004020A600968C9
:102F800001A801F0040101910199694600F066F978
:102F9000049E002E18BF012600F080F94DF68361D3
:102FA000B040C4F21B31A0FB01014FF0FF3000EB39
:102FB00091414CF2685040F60002C2F20100C4F2A6
:102FC000000240F2E733C0E90021C0E90253056185
:102FD000856101F073FA08B106B070BD4CF268501B
:102FE000C2F2010001F0BCFA0028F5D11E2000F069
:102FF00035F80F2C0CD81E202146002200F040F896
:1030000040F204010020C2F200010C6006B070BD65
:10301000012006B070BD000082B0002043F64001E0
:103020000190C4F202014A6842F480424A604A6850
:1030300002F480420192019A00900868002240F058
:103040008050086008680F2100F0805000900098C0
:103050006FF0010002B000F013B80000002848BF74
:10306000704700F01F01012202FA01F11C2202EA5E
:10307000D0004EF20012CEF20002815070470000E4
:1030800010B54EF60C5CCEF2000CDCF80030C3F349
:10309000022E8EF00704042C28BF0424BEF1030383
:1030A0004FF0FF3E0EFA04F438BF0023A1439940CD
:1030B0000EFA03F39A43114300F00F0200F160434C
:1030C0000901043A03F564436244002848BF02F151
:1030D0000C03197010BD00004EF60C51CEF2000129
:1030E0000A684FF6FF031A4060F30A2242F080603C
:1030F00040F0FD7008607047002804BF0120704751
:103100002DE9F04143F60808C4F202080446D8F855
:10311000F8030D4600F00700814207D988F8F853FC
:10312000D8F8F80300F00700A84277D1206881079B
:1031300017D5410705D5D8F8001041F4E051C8F87B
:103140000010010705D5D8F8001041F46041C8F817
:103150000010D8F80010A26821F0F0011143C8F85F
:103160000010C00740D1D8F8F80300F007008542EE
:1031700007D288F8F853D8F8F80300F00700A842FF
:103180004CD12068410707D5D8F80010E26821F437
:10319000E0511143C8F80010000708D5D8F8000026
:1031A000216920F4604040EAC100C8F8000000F046
:1031B00089F8D8F8001043F26822C1F30311C0F671
:1031C0000302515C4CF25C0220FA01F140F204006F
:1031D000C2F200000068C2F201021160FFF7C2FEF5
:1031E0000020BDE8F08100BF6068811E022907D27F
:1031F00058F8081C89015CBF0120BDE8F08111E08E
:10320000012807D158F8081C89035CBF0120BDE8DC
:10321000F08107E058F8081C890703D40120BDE8B5
:10322000F08100BFD8F8001021F003010843C8F86E
:103230000000FFF767FE064641F28837D8F8000025
:10324000616800F00C00B0EB810F8CD0FFF75AFEE4
:10325000801BB842F2D90320BDE8F0810F22026042
:1032600043F60802C4F20202136803F0030343604A
:10327000136803F0F0038360136803F4E053C36042
:10328000D2F800C04FF4E05303EADC030361D2F844
:10329000F80300F007000860704700004CF25C0083
:1032A00043F60801C2F20100C4F202010068096895
:1032B00043F27822C1F38221C0F60302515CC84078
:1032C0007047000010B543F60404C4F202046168BC
:1032D000C1F3810142F20040C0F2F400DFE801F0E6
:1032E00002040A0210BD00BF41F20020C0F27A00C1
:1032F00010BD00BF216801F03F0221682368490228
:10330000C3F3881106D4A1FB00010023FCF7C2FF20
:1033100007E000BF41F20020C0F27A004843B0FB52
:10332000F2F021680222C1F3014102EB4101B0FB3E
:10333000F1F010BD002804BF012070472DE9F041D5
:1033400082B00446007843F60006C007C4F20206C5
:103350000CD0B06800F00C00042840F08180306888
:10336000800303D56068002800F06881207880071A
:103370001BD5B06810F00C0F09D0B06800F00C003D
:10338000082840F087807068400200F18380306830
:10339000800703D5E068012840F05081306821693A
:1033A00020F0F80040EAC10030602078000713D414
:1033B000207840072AD4A569002D00F03A81B06832
:1033C00000F00C00082840F0A580012D40F00E818F
:1033D000012002B0BDE8F0816069002800F0828021
:1033E0000020C4F247200121C0F8801EFFF78AFDAB
:1033F000054600BF706F8007DAD4FFF783FD401BDE
:103400000228F7D9032002B0BDE8F081306C5FEAF2
:10341000C0080AD400200190306C40F08050306425
:10342000306C00F080500190019847F20007C4F220
:1034300000073868C00547D4386840F480703860A9
:10344000FFF760FD054600BF3868C0053CD4FFF7B4
:1034500059FD401B0228F7D9032002B0BDE8F081D6
:10346000B06800F00C00082803D1706840023FF5F6
:1034700076AF61683068B1F5803F07D0B1F5A02F15
:1034800040F09A8040F480203060306840F4803012
:1034900030609AE0E068002840F20000C4F2472063
:1034A0005CD001210160FFF72DFD054630688007E3
:1034B0003FF574AFFFF726FD401B0228F6D9032025
:1034C00002B0BDE8F08100BFA168306F012905D0CE
:1034D000052955D140F004003067306F40F00100FD
:1034E000306756E00020C4F247200021C0F8801E5B
:1034F000FFF708FD054600BF706F80077FF558AFE6
:10350000FFF700FD401B0228F6D9032002B0BDE8FA
:10351000F08100BF0027C4F2472700203866FFF77C
:10352000F1FC022D05460DD13068800140F18A8002
:10353000FFF7E8FC401B02284FF00300F4D902B06B
:10354000BDE8F0813068800173D5FFF7DBFC401BDC
:1035500002284FF00300F5D9F1E700BF0021016018
:10356000FFF7D0FC054600BF306880077FF51DAF30
:10357000FFF7C8FC401B02284FF00300F4D9DEE738
:1035800020F001003067306F002920F00400306720
:103590007AD0FFF7B7FC054641F28837306F8007D5
:1035A00000F18480FFF7AEFC401BB842F6D903203F
:1035B00002B0BDE8F08100BF20F480303060306898
:1035C000002920F4802030607AD0FFF79BFC05466C
:1035D000306880033FF5CAAEFFF794FC401B6428B7
:1035E000F6D9032002B0BDE8F08100BF7068E16940
:1035F00000F480028A4221D1216A00F03F028A420F
:103600001CD147F6C071626A0140B1EB821F15D12F
:10361000A16A4FF6FF73C903994300F44032A1F544
:1036200080318A420AD1E16A00F07060B0EB016F2C
:1036300004D1002002B0BDE8F08100BF012002B03B
:10364000BDE8F08104F11C052FCD084340EA82104B
:10365000D9034FF6FF729143A1F5803140EA05602E
:103660000843706001203866FFF74CFC044600BF39
:1036700030688001DDD4FFF745FC001B02284FF0C5
:103680000300F5D95BE700BFFFF73CFC054641F2BC
:10369000883700BF306F800708D5FFF733FC401B29
:1036A000B8424FF00300F5D949E700BFB8F1000F69
:1036B0003FF581AE306C20F0805030647BE600BF77
:1036C000FFF720FC054600BF306880037FF54EAE53
:1036D000FFF718FC401B64284FF00300F4D92EE7D5
:1036E000FEF7B4BB2DE9F04186B00446032084F810
:1036F0003400606C032825D14FF08050A26B40F25B
:10370000FF581043A063A06BC0F2400800283DD0D2
:1037100020680125C0F8388084F834504FF40071D7
:1037200003F004FB30B121680125C1F83880A16B9A
:103730000843A0630121284684F8341006B0BDE890
:10374000F08100BFC1B3B1F5805FD5D0B1F5006F96
:1037500046D120680D4600210591049103F062FADC
:10376000800139D404A9204603F06EFE90BB9DF879
:10377000160040073CD5216D2068090403F082FA49
:1037800040BB2068022103F0DDFA23E0D4E9000504
:10379000D4E90567D4E90223CDE90016294602974A
:1037A00003F04AFA206800254FF4007103F0BEFAD6
:1037B0000028B8D1BEE700BF20680D460021059162
:1037C000049103F02FFA800106D404A9204603F0E7
:1037D0003BFE48B1294691E74FF4006029468DE74A
:1037E0004FF000608AE700BF9DF81600C00703D1C4
:1037F0004FF08060294681E7216D2068090403F0BD
:1038000041FA0028E6D12068002103F09BFAE1E7A5
:103810007047000080B5D0E9193ED0F844C09A0F37
:103820000A70C3F383624A70C3F301628A701A0C90
:10383000CA701A0A0A714FEA1E524B71CA80CEF33F
:1038400003420A72CEF3C0324A72CEF380328A72D9
:10385000CEF34032CA72CEF300320A730022BCF1BA
:10386000010F4A7336D0BCF1000F40F0878040F65C
:10387000FC72C36E02EA8E0242EA93720A61C26E61
:10388000C2F3C2630B75C2F302634B75C2F34253BA
:103890008B75C2F38243CB75C2F3C2330B76D1F87A
:1038A00010C00B7E0CF1010C03F0070302330CFA7D
:1038B00003FCC0F854C00B7A03F00F0E012303FA87
:1038C0000EF383655B0A03FB0CF3C3654FF40073CF
:1038D00012E000BFB0F86E200EF03F0342EA034250
:1038E0000A610A694FF4806303EB82224FF400738C
:1038F000C0E91523C265C26E0366C2F380334B76FE
:10390000C2F3C61302F07F028B76CA76026FD00F25
:103910000877C2F341704877C2F382608877C2F3B8
:103920008350C877C2F3405081F820000020C2F3D2
:10393000004381F8210081F82230C2F3C03381F8BE
:103940002330C2F3803381F82430C2F3403381F84E
:103950002530C2F3003381F82630C2F3812381F889
:103960002730C2F30123D2B2520881F8283081F8FF
:103970002920012281F82A2080BD00BF016840F281
:10398000FF52C0F240028A63816B41F08051816333
:10399000012180F83410012080BD000080B500F1C5
:1039A000440E9EE80C5081E80C10426DC1E903E220
:1039B000D0E91623C1E90523026E0020CA6180BD4B
:1039C00010B5016D04460068090403F019FB28B125
:1039D000A16B0843A063002010BD00BF2068002138
:1039E00003F020F9C0F3432010BD0000F0B581B012
:1039F00004460068256B416B090405F008012BD5CE
:103A000051B3E56A2DB3A66A03F032F9306020683D
:103A100003F02EF97060206803F02AF9B060206886
:103A200003F026F9F060206803F022F93061206885
:103A300003F01EF97061206803F01AF9B061206884
:103A400003F016F9F06106F12000A5F12001C4E9A8
:103A50000A0101B0F0BD00BF426BD20540D4426BF9
:103A6000520465D5002963D0666A002EF1D0276A1A
:103A70006D4639680091294603F0FEF879682068A0
:103A80000091294603F0F8F8B968206800912946AA
:103A900003F0F2F8F96820680091294603F0ECF889
:103AA000396920680091294603F0E6F879692068B1
:103AB0000091294603F0E0F8B96920680091294691
:103AC00003F0DAF8F869294600902068203703F0FF
:103AD000D3F8A6F12000C4E9087001B0F0BD00BF22
:103AE0004FF480718163C16B4CF23A329143C163F0
:103AF000C16A2A0721F00101C16259D42906A8D55B
:103B0000A90608D503F0ECFA28B1A16B0843A0631D
:103B10002046FFF77DFEA8079BD12068C16A21F0EF
:103B20000801C1620121204684F834105EE000BF24
:103B3000416B40F23A2211423FF48BAF416B89074F
:103B40005AD4416B09075ED4416B890662D4416B3C
:103B5000C90666D4416B890503D5A16B41F0080104
:103B6000A16340F23A718163C16B40F23A329143F2
:103B7000C16303F0B5FAA16B08432907A06359D4C8
:103B800028067FF566AF15F0300F5FD0E06B47F287
:103B9000DD31C0F600010165FEF766FD00283FF447
:103BA00058AFE06B01B0BDE8F04003F017BC00BFB8
:103BB00015F0220F08D003F093FA28B1A16B084347
:103BC000A0632046FFF724FE206840F23A5181634B
:103BD000012084F834000020A9072063204605D086
:103BE00001B0BDE8F04000F0C7BA00BF01B0BDE8C9
:103BF000F04000F0C3BA00BFA16B41F00201A16325
:103C0000416B0907A0D5A16B41F00801A163416B8D
:103C100089069CD5A16B41F02001A163416BC906C7
:103C200098D5A16B41F01001A163416B890594D433
:103C300097E700BF0120002184F83400204621636B
:103C400001B0BDE8F040FFF7E3BD00BFA80711D009
:103C5000206C47F26131C0F600010165FEF704FDFA
:103C600000283FF4F6AE206C01B0BDE8F04003F050
:103C700077BB00BF00210120A16384F834002046F7
:103C8000216301B0BDE8F040FFF72ABD002804BF62
:103C90000120704710B5044690F8340020B9002088
:103CA0002077204600F018F9032084F834002046DD
:103CB00000F00CF800284FF0010018BF10BD0021E3
:103CC000A163216384F83400002010BDF0B58FB0EB
:103CD000044600687621002602910021002200237C
:103CE0000096019602F0A8FF48F2A007C4F225272B
:103CF0003E60206802F0B6FF012502203D60FEF71D
:103D0000ADFE0496206803F029F838B184F83450E9
:103D1000A16B0843A06328460FB0F0BD206803F0F4
:103D20004DF858B120680021A16403F017F800286D
:103D3000ECD1A06C012803D00AE000BF0120A064F0
:103D40002068002102F09EFF10B14FF08050DDE7A7
:103D500004984FF6FE77B8421ED80026CCF2101613
:103D60002068002102F08EFF0028CFD12068314664
:103D700002F094FF0028E8D12068002102F052FFF1
:103D80000499013104910499B94202D8B0F1FF3F7E
:103D9000E6DCC0F3807000E0002004994FF6FF726B
:103DA000914203D34FF08070B0E700BF6064206899
:103DB0000125ADF80E5002F031FFB8B3606C032856
:103DC00038D12068042102F02DFF000DE06404A921
:103DD0002046FFF71FFD0028B7D1216D20680A0497
:103DE000002303F057F800287FF490AF94E88F0089
:103DF000D4E90565CDE90076029502F01DFF206843
:103E00004FF4007102F092FF002861D0216840F267
:103E1000FF52C0F240028A63A16B01250843A063F0
:103E200084F8345028460FB0F0BD00BF4FF08060DA
:103E30006CE700BF206803F039F800287FF466AF14
:103E40002068002102F0EEFE216860670846042128
:103E500002F0E8FE2168A0670846082102F0E2FEB1
:103E60002168E06708460C2102F0DCFE616CC4F8B2
:103E700080000329A5D020680DF10E0103F0CCF8D5
:103E800000287FF443AF606C03289AD0BDF80E1071
:103E900020682165090403F057F800287FF436AF45
:103EA0002068002102F0BEFE2168606608460421F9
:103EB00002F0B8FE2168A0660846082102F0B2FEB2
:103EC0002168E06608460C2102F0ACFE206778E726
:103ED000002528460FB0F0BD2DE9F04F87B004460D
:103EE00042F600470068C4F201070026B842069671
:103EF000CDE904660396029602D007B0BDE8F08FC4
:103F000043F630000196C4F20200416902AD41F46B
:103F100000614161416946F2584A01F40061019132
:103F20000199019601684FF0020841F00401016017
:103F300001684FF0030901F0040101910199019614
:103F400001684FF00C0B41F0080101600068294640
:103F500000F00800019001984FF4F850029007F526
:103F60005C40C4F2020ACDE90386CDF81490CDF886
:103F700018B0FEF7EBFE0420CDE9020804A880E8A3
:103F8000400A07F560402946FEF7E0FE4CF2844502
:103F9000C2F201054FF000624FF480402021C5E9D4
:103FA000012605F10C02C5F800A04FF4805A4FF429
:103FB000806782E8C004C5E906014FF400084FF4A9
:103FC000001B2E6204262846C5E90969C5E90B8B4A
:103FD000FEF740FC002818BFFDF7CCFF46F2584022
:103FE0002564AC63C4F2020040F244454830C2F29A
:103FF000000528604FF000602B1D4021002283E85F
:1040000087044FF48040A861202005F11C0181E85D
:1040100045022846C5E90B8BFEF71CFC002818BF9B
:10402000FDF7A8FF312005210022E563AC63FFF70F
:1040300027F83120FFF712F807B0BDE8F08F000035
:10404000C1B12DE9F04186B090460A4690F834108F
:10405000012915D100218163C76D03EB0806BE421B
:1040600012D9816B41F000718163012006B0BDE877
:10407000F08100BF816B41F00061816301207047D6
:10408000022006B0BDE8F081032780F8347007688D
:104090000546006CF962FE6B40F22A342643FE634B
:1040A00047F21D36C0F60006C66347F2A526C0F6E5
:1040B0000006C0E9136106688160316821F0C00123
:1040C000316007F180015F021E46BB08FEF774FCF9
:1040D000A0B12868C16B21F49571C16340F2FF5112
:1040E000C0F240018163A86B40F08040A8630120CA
:1040F00085F8340006B0BDE8F08100BF48F28C506E
:10410000C4F22520012101606A6C012A4FF0FF32C0
:1041100018BF4FEA4828CDE90027902202920222D8
:1041200028680392002205916946049202F062FD1C
:10413000022E07D3822028632868414602F092FEAF
:1041400006E000BF812028632868414602F096FE01
:10415000014600284FF0000088D02A6840F2FF5343
:10416000C0F240039363AA6B1143A963012185F850
:104170003410286379E70000FDF7B0BEFDF7CEBE2E
:10418000B1B12DE9F04186B090F83460012E15D11F
:104190004FF0000CC0F838C0C56D9C18AC4211D966
:1041A000816B41F000718163012006B0BDE8F081B0
:1041B000816B41F00061816301207047022006B0ED
:1041C000BDE8F0818846032180F834100168C46B93
:1041D000456CC1F82CC0CF6B40F21A263743CF6331
:1041E00047F2CD37C0F60007E76347F2A527012D58
:1041F000C0F6000718BF52021D46022BC4E9137C0B
:1042000018D3A023064603630846114602F078FF40
:10421000C8B1316840F2FF52C0F240028A63B16B0C
:104220000843B0630120002186F83400316306B0F2
:10423000BDE8F0819023064603630846114602F06C
:104240006BFF0028E5D148F28C50C4F225200122F2
:104250000260F06B2B46376834464026056886605E
:104260002E68414662F387162E605E0207F18002D7
:10427000B3084FF00108FEF79FFBB8B1206840F289
:104280001A22C16B9143C16340F2FF51C0F2400159
:104290008163A06B002140F08040A063012084F87E
:1042A0003400216306B0BDE8F08100BF4FF0FF305D
:1042B000CDE90006902002900020CDE9030020689F
:1042C0006946CDF8148002F095FC002006B0BDE8E8
:1042D000F081000070B528B1416A29B10021016167
:1042E000142106E0012070BD4168B1F5827F02D043
:1042F0001C21002242500026866290F8511029B9F4
:1043000080F85060054600F03DF82846022180F80C
:10431000511090E82E0002F482720C6803F40443FA
:1043200024F040040C601A4405F4006305691A4443
:1043300005F0020345691A4405F001038569C46963
:104340001A4405F400731A4404F03803046A1A444A
:1043500004F08003846A1A4304F400531A430A6089
:10436000436A042202EA154203F010031A444A6029
:10437000CA6922F40062CA610121466580F85110C1
:10438000304670BD80B586B043F200010068C4F2CB
:104390000101002288420592CDE903220292019296
:1043A00002D006B080BD00BF43F630000092C4F2D8
:1043B0000200436943F480534361436903F480532B
:1043C0000093009B0092036843F0010303600068C0
:1043D00000F0010000900098A02001900220CDE99B
:1043E0000202032004900520059001F5504001A928
:1043F000FEF7ACFC06B080BD7047000070470000BF
:1044000090F83C20012A4FF0020254D010B580F8F9
:104410003D200268D2F804E0D2F808C00C682EF003
:104420007003234341F2FF74C4F20004A2425360BC
:104430000EDC40F2FF73C4F200039A4216DCB2F1C4
:10444000804F2BD040F20043C4F2000324E000BFB1
:1044500040F2FF33C4F201039A4213DC41F6000339
:10446000C4F200039A4219D0002313E040F600037F
:10447000C4F200039A4211D040F60043C4F2000394
:104480000AE000BF44F20003C4F201039A4205D0DF
:1044900040F20043C4F201039A4204D149682CF06F
:1044A0008003194391600121002280F83D1080F8BB
:1044B0003C20BDE81040104670470000002804BFB3
:1044C0000120704710B5044690F83D0028B900203F
:1044D00084F83C00204600F01FF8022084F83D00DC
:1044E0002068211D03F094FA012084F8460084F826
:1044F0003E0084F83F0084F8400084F8410084F8CE
:10450000420084F8430084F8440084F8450084F8AD
:104510003D00002010BD0000006840F60041C4F2DC
:104520000001884218BF704780B582B0002001901A
:1045300043F64000C4F202000168002241F0080185
:1045400001600068052100F0080001900198322008
:10455000FEF796FD322002B0BDE88040FEF77EBD3A
:1045600090F83D1001291CBF01207047022180F8FE
:104570003D10006841F2FF72C168C4F2000290422F
:1045800041F00101C1600DDC40F2FF71C4F2000195
:10459000884215DCB0F1804F2AD040F20041C4F2CD
:1045A000000123E040F2FF31C4F20101884213DC34
:1045B00041F60001C4F20001884219D0002113E045
:1045C00040F60001C4F20001884211D040F60041DB
:1045D000C4F200010AE000BF44F20001C4F201018C
:1045E000884205D040F20041C4F20101884206D160
:1045F000816801F00701062904BF002070470168A7
:1046000041F00101016000207047000090F83C205B
:10461000012A4FF002026CD080B580F83D20D0F81E
:1046200000C04FF67772DCF8083023EA0202CCF8BB
:1046300008200B684F2B29DC1F2B45DD202B46D093
:10464000302B44D0402B40F0AF80D1F804E0C96853
:10465000DCF82030DCF8202022F00102CCF8202009
:10466000DCF8182022F0F00242EA011123F00A02DD
:1046700042EA0E02CCF81810CCF82020DCF8081022
:1046800041F0470121F0300128E000BF6F2B33DDFE
:10469000B3F5005F74D0B3F5805F21D0702B40F08C
:1046A0008380D1E901E3C968DCF8082043EA0E03FE
:1046B00022F47F4243EA01211143CCF80810DCF8D0
:1046C000081041F0770109E00BB1102B6CD1DCF838
:1046D000081021F07001194341F00701CCF80810CF
:1046E0000022012180F83D10002180F83C10BDE837
:1046F00080401046704700BF502B21D0602B53D113
:10470000D1F804E0C968DCF82030DCF8202022F081
:104710001002CCF82020DCF8182022F4704242EA83
:10472000013123F0A00242EA0E12CCF81810CCF8A6
:104730002020DCF8081041F0670121F01001CDE7DE
:10474000D1F804E0C968DCF82030DCF8202022F041
:104750000102CCF82020DCF8182022F0F00242EA16
:10476000011123F00A0242EA0E02CCF81810CCF82C
:104770002020DCF8081041F0570121F02001ADE7BE
:10478000D1E901E3C968DCF8082043EA0E0322F40A
:104790007F4243EA01211143CCF80810DCF80810ED
:1047A00041F480419AE700BF01229AE77047000078
:1047B00070B504460068C5680669B10716D515F0DE
:1047C000020113D06FF0020101610121217780699C
:1047D000800703D02046FFF7E9FF05E0204600F000
:1047E0008FF8204600F08EF800202077700719D54A
:1047F00015F0040016D020686FF004010161022159
:104800002177806910F4407F04D02046FFF7CEFF67
:1048100006E000BF204600F073F8204600F072F872
:1048200000202077300717D515F0080014D0206835
:104830006FF00801016104212177C069800703D06E
:104840002046FFF7B3FF05E0204600F059F8204668
:1048500000F058F800202077F00619D515F0100068
:1048600016D020686FF01001016108212177C0691E
:1048700010F4407F04D02046FFF798FF06E000BF09
:10488000204600F03DF8204600F03CF8002020775C
:10489000F00718BF15F0010002D1300609D412E06C
:1048A00020686FF001010161204600F02DF830060C
:1048B00009D515F0800006D020686FF080010161F5
:1048C0002046FFF799FD700609D515F0400006D087
:1048D00020686FF040010161204600F027F8B00623
:1048E00058BF70BD15F0200008D021686FF020027D
:1048F00020460A61BDE87040FFF780BD70BD000032
:104900007047000070470000006840F60041C4F2A4
:104910000001884208D040F60001C4F2000188423C
:1049200018BF7047FEF7F4BAFCF792BE704700005C
:10493000FEE70000002808BF704770B532210182F1
:1049400049F69A11C3F6997141610021C0E900113D
:1049500081600546002000F011F90446002000F0B7
:104960000DF90444002000F009F90444002000F08F
:1049700005F90444002000F001F90444002000F08F
:10498000FDF80444002000F0F9F80444002000F091
:10499000F5F80444002000F0F1F80444002000F091
:1049A000EDF80444002000F0E9F80444002000F091
:1049B000E5F80444002000F0E1F80444002000F091
:1049C000DDF80444002000F0D9F80444002000F091
:1049D000D5F80444002000F0D1F80444002000F091
:1049E000CDF80444002000F0C9F80444002000F091
:1049F000C5F84CF6CD462044CCF6CC46A0FB0601CB
:104A00000809A881012000F0B9F80446012000F04F
:104A1000B5F80444012000F0B1F80444012000F08E
:104A2000ADF80444012000F0A9F80444012000F08E
:104A3000A5F80444012000F0A1F80444012000F08E
:104A40009DF80444012000F099F80444012000F08E
:104A500095F80444012000F091F80444012000F08E
:104A60008DF80444012000F089F80444012000F08E
:104A700085F80444012000F081F80444012000F08E
:104A80007DF80444012000F079F80444012000F08E
:104A900075F80444012000F071F80444012000F08E
:104AA0006DF82044A0FB06010809E881BDE87040CC
:104AB00070470000002804BF0020704710B5B0F810
:104AC0000CC040F65432ACF5167191424FF0000E16
:104AD00008D8C18940F65532A1F51671914238BF08
:104AE0004FF0010E018840F63503A1F596629A4217
:104AF00008D20122002A4CF27422C2F201020ED026
:104B00002DE000BF4288A2F5966400229C4238BF87
:104B10000122002A4CF27422C2F201021FD15388F2
:104B200094881B1B9BB2B3F5966F18D8D388148951
:104B30001B1B9BB2B3F5966F11D8BEF1000F13D0BB
:104B4000B1EB0C0148BF49424388C089181A48BFDD
:104B50004042B1F5966F88BFB0F5966F04D800203B
:104B60001070012010BD00BF10780130C1B210706C
:104B70000020032938BF012010BD0000F0B585B02A
:104B80004CF23C44C2F2010406460025204604953E
:104B9000FDF750FD2068C76AC16A21F47001C16247
:104BA000012002900720039001A920460196FDF7FD
:104BB0008DFA00BB4CF23C40C2F20100FDF78CFCC8
:104BC00010B1002517E000BF4CF23C40C2F20100DA
:104BD0000A21FDF701FC08B1002506E04CF23C403B
:104BE000C2F20100FDF710FB05464CF23C40C2F258
:104BF0000100FDF71FFD2168A8B2CF6205B0F0BD2E
:104C0000002808BF704710B504460020FFF7B6FF24
:104C100020800120FFF7B2FF4CF27422C2F20102A1
:104C200092F801C0B4F800E0BCF1000F608013D02E
:104C300093889E4538BFA2F804E053889E4588BFFC
:104C4000A2F802E01389984238BF1081D3889842B5
:104C500088BFD08006E000BFA2F804E0A2F802E01E
:104C60001081D0800CF10101CBB2312BA38988BF18
:104C70000021002B517004BF0123A381E28900EEC3
:104C800010EA002A04BF0122E281218A01EE103AD3
:104C9000B8EE400AB8EE411A02EE101AB8EE422AF7
:104CA00030EE410A82EE013A80EE011A00EE100A5F
:104CB00004EE102AB8EE400AB8EE444A30EE440A38
:104CC00080EE040A82EE042A00210020B1EE434A5D
:104CD000B4EE431AF1EE10FAB8BF0121C907B0EEE5
:104CE000415AB4EE441A9FED323A18BFB0EE435A1F
:104CF000F1EE10FAB4EE420AC8BFB0EE451AB1EEBA
:104D0000424AF1EE10FAB8BF0120B0EE402AC007C7
:104D100018BFB0EE432AB4EE440AF1EE10FAC8BF51
:104D2000B0EE420AB7EE002AB4EE421AF1EE10FAE3
:104D3000B0EE423A0ADCBFEE004AB4EE441AB0EEDE
:104D4000413AF1EE10FAB8BFB0EE443AB4EE420A7E
:104D5000F1EE10FA0ADCBFEE001AB4EE410AB0EE32
:104D6000402AF1EE10FAB8BFB0EE412AB5EE403A53
:104D7000B0EE431AB1EE430AF1EE10FAB8BFB0EE4E
:104D8000401A23EE010AB1EE421AB5EE402AB0EE07
:104D9000423AF1EE10FAB8BFB0EE413A22EE031AF1
:104DA00084ED010A84ED021ABDE81040704700BF8F
:104DB00000000000FCF7C2B94CF28020C2F20100F2
:104DC000002101700171C0E90211C0E90411C0E9BC
:104DD000061141710184418441627047F0B581B090
:104DE0004CF28024C2F20104606A04210130606246
:104DF0000020C4F20200FEF779F82178032900F2BE
:104E0000BB80DFE801F0036B0D4B00BF002840F0D2
:104E1000B38001202070606AA06000202071ABE0A8
:104E2000002800F0A980607904EB4000008C07287E
:104E300013D8617904F1280202EB0111002301F873
:104E40001030617902EB011101EB400103224A703D
:104E50006179013004EB410108842079012840F098
:104E6000878000202071617904EB4101098C0729BA
:104E700012D8627904F1280303EB021202F8110040
:104E8000627903EB021202EB410202235370627952
:104E9000013104EB4202118420706DE000283FD004
:104EA000E068616A081AB0F5FA7F65D300212170C5
:104EB000607904EB4000008C07285DD8627904F12A
:104EC000280303EB021202F810106179012203EBB0
:104ED000011101EB40014A7043E000BF30B320797B
:104EE00001281AD100212171607904EB4000008C67
:104EF000072812D8627904F1280303EB021202F8A2
:104F000010106179012203EB011101EB40014A709D
:104F10006179013004EB41010884002020702BE00E
:104F200001202070616A2071A16025E0A068616A9B
:104F3000081A142820D302202070607904EB400066
:104F4000008C072818D8617904F1280202EB0111BE
:104F5000002301F81030617902EB011101EB4001EF
:104F60004B706179013004EB4101088404E000BF1B
:104F700003202070606AE060607904EB40052E8CAD
:104F8000617981F001016171E6B104EB001000F17B
:104F9000290706E0002918BF8847013E07F10207EC
:104FA00010D039780329F8D817F8010CDFE801F0A0
:104FB00004080206A169EDE72169EBE7E169E9E789
:104FC0006169E7E70020288401B0F0BD4CF2802140
:104FD000C2F20101486170474CF28021C2F2010126
:104FE000886170474CF28021C2F20101086170476C
:104FF0004CF28021C2F20101C86170472DE9F047EF
:105000004CF2B058C2F201080746B8F80000B8F8F0
:1050100002100138013940F2004482B28BB2002004
:105020000021C4F2020400F099FF20464FF48051A1
:105030000022FDF761FF20464FF400510122FDF7E9
:105040005BFFB8F8020000285ED0F82101EA172AB9
:10505000FC2101EAD706FA00B8F800104FF0000969
:10506000D7B204E0002109F1010981454CD20029A1
:10507000F8D0002520464FF480510022FDF73CFF78
:1050800020464FF400510122FDF736FF504602F052
:105090005DFB20464FF480510122FDF72DFF204695
:1050A0004FF480510022FDF727FF20464FF40051B6
:1050B0000122FDF721FF304602F048FB20464FF465
:1050C00080510122FDF718FF20464FF48051002245
:1050D000FDF712FF20464FF400510122FDF70CFFAF
:1050E000384602F033FB20464FF480510122FDF791
:1050F00003FFB8F8001001358D42BBD3B8F80200A9
:1051000009F101098145B2D320464FF480510122B3
:10511000BDE8F047FDF7F0BE2DE9F04F83B005463E
:105120000C46111AB2EB050B18BF4FF0FF3B0029DC
:105130000E4648BF4E420129A3EB04004FF0010781
:10514000A8BFBB46191B18BF4FF0FF3100280290C3
:1051500044BF434202930128B8BF0F4602984FF064
:10516000000A864288BF3046019001304FF00009A6
:105170004FF00008009000BFA8B2A1B200F01AF8EA
:105180000299019B09EB06005144B0EB0309D4BF1F
:1051900081465D44B1EB030AD4BF8A463C4408F122
:1051A000010800991FFA88F08142E5D203B0BDE8FA
:1051B000F08F000080B502460B4600F0CFFE4CF2A7
:1051C000F020C2F201000088BDE8804001F036BB4B
:1051D0002DE9F04F87B00746101AB2EB0708824658
:1051E00005938B46049218BF4FF0FF38002848BF44
:1051F000C0F1000A0AF1010100263C460025012801
:10520000A8BF4FF0010800BFA0B289465946FFF77A
:10521000D1FF0135002EA8B249460CBF5644444484
:105220008145F1D20599CDE902A8A1EB0B00B1EBC4
:105230000B0618BF4FF0FF360028804648BFC0F16C
:105240000008012808F101004FF0000A5C464FF009
:105250000005A8BF01260690A1B23846FFF7AAFFB5
:10526000BAF1000F0CBFC244344401350699A8B20C
:105270008142F1D2CDE90086DDF814A0DDE9028695
:1052800000240025B8B25146FFF794FF0135002CE9
:10529000A8B20CBF444437448145F3D2DDF81080F6
:1052A000DDE90079069E0024002500BF1FFA8BF17E
:1052B0004046FFF77FFF0135002CA8B20CBF3C44ED
:1052C000CB448642F2D207B0BDE8F08F2DE9F04121
:1052D000171A4FF0010C1CFA87F7BDB25E1A069C34
:1052E000EF1B1CFA86F618BF01271FFA86F800F09C
:1052F00035FEB04508BF002F0DD10027002600BFA6
:10530000204601F09BFA0136B0B2A842F8D301372B
:10531000B8B24045F2D34CF2B050C2F2010001885D
:105320004088013901388AB283B200200021BDE8EB
:10533000F04100F013BE0000B0B586B0002005902B
:10534000CDE90300CDE90100009043F63000C4F23E
:105350000200016840F2004441F00201016000686F
:10536000C4F2020400F00200009000984FF4704074
:1053700001900120CDE902000320049001A92046FC
:10538000FDF7E4FC20464FF480510122FDF7B4FD07
:1053900020464FF480410122FDF7AEFD20464FF438
:1053A00000410122FDF7A8FD20464FF48041002274
:1053B000FDF7A2FD642008F005FA20464FF4804175
:1053C0000122FDF799FD322008F0FCF920464FF448
:1053D00080510022FDF790FD20464FF4005100223D
:1053E000FDF78AFDF72002F0B1F920464FF4805115
:1053F0000122FDF781FD20464FF480510022FDF788
:105400007BFD20464FF400510122FDF775FDA920D8
:1054100002F09CF920464FF480510122FDF76CFD0B
:1054200020464FF480510022FDF766FD20464FF4E0
:1054300000510122FDF760FD512002F087F920465E
:105440004FF480510122FDF757FD20464FF4805163
:105450000022FDF751FD20464FF400510122FDF7D7
:105460004BFD2C202C2502F071F920464FF4805181
:105470000122FDF741FD20464FF480510022FDF747
:105480003BFD20464FF400510122FDF735FD8220FF
:1054900002F05CF920464FF480510122FDF72CFD0B
:1054A00020464FF480510022FDF726FD20464FF4A0
:1054B00000510022FDF720FDC02002F047F92046F0
:1054C0004FF480510122FDF717FD20464FF4805123
:1054D0000022FDF711FD20464FF400510122FDF797
:1054E0000BFD112002F032F920464FF480510122C9
:1054F000FDF702FD20464FF480510022FDF7FCFC31
:1055000020464FF400510122FDF7F6FC092002F07D
:105510001DF920464FF480510122FDF7EDFC204695
:105520004FF480510022FDF7E7FC20464FF4005174
:105530000022FDF7E1FCC12002F008F920464FF4FB
:1055400080510122FDF7D8FC20464FF48051002203
:10555000FDF7D2FC20464FF400510122FDF7CCFCB0
:10556000412002F0F3F820464FF480510122FDF76C
:10557000C3FC20464FF480510022FDF7BDFC2046BD
:105580004FF400510022FDF7B7FCC52002F0DEF811
:1055900020464FF480510122FDF7AEFC20464FF427
:1055A00080510022FDF7A8FC20464FF40051012253
:1055B000FDF7A2FC002002F0C9F820464FF480510C
:1055C0000122FDF799FC20464FF480510022FDF79F
:1055D00093FC20464FF400510122FDF78DFC0A2078
:1055E00002F0B4F820464FF480510122FDF784FC0C
:1055F00020464FF480510022FDF77EFC20464FF4F8
:1056000000510122FDF778FC802002F09FF820462F
:105610004FF480510122FDF76FFC20464FF480517A
:105620000022FDF769FC20464FF400510022FDF7EF
:1056300063FCB12002F08AF820464FF48051012229
:10564000FDF75AFC20464FF480510022FDF754FC30
:1056500020464FF400510122FDF74EFCB02002F02D
:1056600075F820464FF480510122FDF745FC204695
:105670004FF480510022FDF73FFC20464FF40051CB
:105680000122FDF739FC112002F060F820464FF4AA
:1056900080510122FDF730FC20464FF4805100225A
:1056A000FDF72AFC20464FF400510022FDF724FCB0
:1056B000B42002F04BF820464FF480510122FDF750
:1056C0001BFC20464FF480510022FDF715FC2046BC
:1056D0004FF400510122FDF70FFC022002F036F8D2
:1056E00020464FF480510122FDF706FC20464FF47E
:1056F00080510022FDF700FC20464FF400510022AB
:10570000FDF7FAFBB62002F021F820464FF4805155
:105710000122FDF7F1FB20464FF480510022FDF7F6
:10572000EBFB20464FF400510122FDF7E5FB022080
:1057300002F00CF820464FF480510122FDF7DCFB0B
:1057400020464FF480510022FDF7D6FB20464FF44F
:1057500000510122FDF7D0FB422001F0F7FF204667
:105760004FF480510122FDF7C7FB20464FF48051D2
:105770000022FDF7C1FB20464FF400510022FDF747
:10578000BBFBB72001F0E2FF20464FF4805101221D
:10579000FDF7B2FB20464FF480510022FDF7ACFB31
:1057A00020464FF400510122FDF7A6FBC62001F070
:1057B000CDFF20464FF480510122FDF79DFB20468E
:1057C0004FF480510022FDF797FB20464FF4005123
:1057D0000022FDF791FBBE2001F0B8FF20464FF4F8
:1057E00080510122FDF788FB20464FF480510022B2
:1057F000FDF782FB20464FF400510122FDF77CFBB0
:10580000002001F0A3FF20464FF480510122FDF754
:1058100073FB20464FF480510022FDF76DFB2046BC
:105820004FF400510122FDF767FB042001F08EFFC9
:1058300020464FF480510122FDF75EFB20464FF4D5
:1058400080510022FDF758FB20464FF40051002202
:10585000FDF752FBE92001F079FF20464FF480511B
:105860000122FDF749FB20464FF480510022FDF74D
:1058700043FB20464FF400510122FDF73DFB002081
:1058800001F064FF20464FF480510122FDF734FB04
:1058900020464FF480510022FDF72EFB20464FF4A6
:1058A00000510022FDF728FB362001F04FFF204673
:1058B0004FF480510122FDF71FFB20464FF4805129
:1058C0000022FDF719FB20464FF400510122FDF79D
:1058D00013FB682001F03AFF20464FF4805101226B
:1058E000FDF70AFB20464FF480510022FDF704FB30
:1058F00020464FF400510022FDF7FEFA3A2001F055
:1059000025FF20464FF480510122FDF7F5FA20468D
:105910004FF480510022FDF7EFFA20464FF400517A
:105920000122FDF7E9FA662001F010FF20464FF44E
:1059300080510122FDF7E0FA20464FF48051002209
:10594000FDF7DAFA20464FF400510022FDF7D4FAB1
:10595000E02001F0FBFE20464FF480510122FDF7CC
:10596000CBFA20464FF480510022FDF7C5FA2046BD
:105970004FF400510122FDF7BFFA002001F0E6FECE
:1059800020464FF480510122FDF7B6FA20464FF42D
:1059900080510022FDF7B0FA20464FF40051012259
:1059A000FDF7AAFA072001F0D1FE20464FF48051FE
:1059B0000122FDF7A1FA20464FF480510022FDF7A5
:1059C0009BFA20464FF400510122FDF795FA102072
:1059D00001F0BCFE20464FF480510122FDF78CFA05
:1059E00020464FF480510022FDF786FA20464FF4FE
:1059F00000510122FDF780FA092001F0A7FE2046A0
:105A00004FF480510122FDF777FA20464FF4805180
:105A10000022FDF771FA20464FF400510122FDF7F4
:105A20006BFA172001F092FE20464FF480510122BC
:105A3000FDF762FA20464FF480510022FDF75CFA30
:105A400020464FF400510122FDF756FA0B2001F0D9
:105A50007DFE20464FF480510122FDF74DFA20468D
:105A60004FF480510022FDF747FA20464FF40051D1
:105A70000122FDF741FA412001F068FE20464FF473
:105A800080510122FDF738FA20464FF48051002260
:105A9000FDF732FA20464FF400510122FDF72CFAAF
:105AA000892001F053FE20464FF480510122FDF77A
:105AB00023FA20464FF480510022FDF71DFA2046BC
:105AC0004FF400510122FDF717FA4B2001F03EFE82
:105AD00020464FF480510122FDF70EFA20464FF484
