:020000040800F2
:10000000C006002055020008ED0E0008AD0E0008E5
:10001000E90E00084D04000805110008000000006A
:10002000000000000000000000000000F50E0008C5
:100030005104000800000000F10E0008F90E00084D
:100040006F0200086F0200086F0200086F020008CC
:100050006F0200086F0200086F0200086F020008BC
:100060006F0200086F0200086F0200086F020008AC
:100070006F0200086F0200086F0200086F0200089C
:100080006F0200086F0200086F0200086F0200088C
:100090006F0200086F0200086F0200086F0200087C
:1000A0006F0200086F0200086F0200086F0200086C
:1000B0006F0200086F020008BD0F00086F02000801
:1000C0006F0200086F0200086F0200086F0200084C
:1000D0006F0200086F0200086F0200086F0200083C
:1000E0006F0200086F0200086F0200086F0200082C
:1000F0006F0200086F0200086F0200086F0200081C
:100100006F0200086F0200086F0200086F0200080B
:100110006F0200086F0200086F0200086F020008FB
:100120006F0200086F0200086F0200086F020008EB
:100130006F0200086F0200086F0200086F020008DB
:100140006F0200086F0200086F0200086F020008CB
:100150006F0200086F0200086F0200086F020008BB
:100160006F0200086F0200086F0200086F020008AB
:100170006F0200086F0200086F0200080000000014
:100180006F0200086F02000800F002F800F052F859
:1001900014A696E8000CB244B344DA4501D100F04D
:1001A00049F8BAE80F000FA696E83000A5EB040561
:1001B00004EB0607AAEB0704A7F101074FEA1515A0
:1001C0004FEA3414A4F10104AC4201D300F032F838
:1001D00013F0010F18BFFB1A43F0010300F001F800
:1001E000DBE71847640F0000840F0000103A24BFBB
:1001F00078C878C1FAD8520724BF30C830C144BF8C
:1002000004680C6070470000704700000023002461
:1002100000250026103A28BF78C1FBD8520728BF16
:1002200030C148BF0B6070471FB500F074FF1FBDA1
:1002300010B510BD00F0D0F81146FFF7F5FF00F043
:1002400063FF00F0EEF803B4FFF7F2FF03BC00F029
:10025000F5F800000948804709480047FEE7FEE737
:10026000FEE7FEE7FEE7FEE7FEE7FEE7FEE7FEE766
:1002700004480549054A064B70470000A90F0008CD
:1002800089010008C0000020C0060020C002002034
:10029000C002002053EA020C00F069802DE9F04B07
:1002A0004FF00006002B1FBFB3FA83F503FA05F4E5
:1002B00024FA05F65E4012BF1643B2FA82F502FA3E
:1002C00005F4C5F120051EBF22FA05FC44EA0C0422
:1002D000203556EA044C4FEA144418BF641C4FF012
:1002E00000084FF00009904271EB030C39D300294C
:1002F00019BFB1FA81F701FA07F6B0FA80F700FAF0
:1003000007F6C7F120071EBF20FA07FC46EA0C06D5
:100310002037B6FBF4FCA7EB0507103F07F01F0BD7
:10032000CBF120062CFA06F60CFA0BFB44BFB346C1
:100330000026202FA4BF5E464FF0000B5BEA060CA0
:1003400008BF4FF0010B19EB0B0948EB0608ABFB9C
:10035000027C06FB02CC0BFB03CCC01B71EB0C0137
:10036000C1E70B46024641464846BDE8F08B13B54F
:10037000084318BF4FF0FF300146AFF30080BDE8DF
:100380001C4070474FF0000200B513469446964655
:10039000203922BFA0E80C50A0E80C50B1F1200198
:1003A000BFF4F7AF090728BFA0E80C5048BF0CC046
:1003B0005DF804EB890028BF40F8042B08BF7047A4
:1003C00048BF20F8022B11F0804F18BF00F8012B16
:1003D0007047704770477047754600F02BF8AE467F
:1003E00005006946534620F00700854618B020B541
:1003F000FFF73EFFBDE820404FF000064FF000073A
:100400004FF000084FF0000BAC46ACE8C009ACE878
:10041000C009ACE8C009ACE8C00921F007018D466D
:10042000704710B50446AFF300802046BDE8104089
:10043000FFF709BF0048704710000020014918204D
:10044000ABBEFEE72600020070470000FEE700009A
:100450007047000040F2B800C2F200000068704728
:1004600040F2000040F2B801C2F20000C2F2000106
:1004700000780A68104408607047000080B543F6B1
:100480000040C4F20200016841F40071016001689B
:1004900041F480610160016841F4807101600320D2
:1004A00000F0BCF80F2000F005F800F05DF8002027
:1004B00080BD000070B586B0002543F6400101956F
:1004C000C4F202010A68044642F004020A600968A4
:1004D00001A801F0040101910199694600F060F959
:1004E000049E002E18BF012600F07AF94DF68361B4
:1004F000B040C4F21B31A0FB01014FF0FF3000EB14
:10050000914140F2700040F60002C2F20000C4F2D5
:10051000000240F2E733C0E90021C0E9025305615F
:10052000856100F083FB08B106B070BD40F2700039
:10053000C2F2000000F0AAFB0028F5D11E2000F056
:100540002FF80F2C0CD81E202146002200F03AF87C
:1005500040F204010020C2F200010C6006B070BD40
:10056000012006B070BD000082B0002043F64001BB
:100570000190C4F202014A6842F480424A604A682B
:1005800002F480420192019A0090086840F0805085
:100590000860086800F080500090009802B0704732
:1005A000002848BF704700F01F01012202FA01F144
:1005B0001C2202EAD0004EF20012CEF2000281505C
:1005C0007047000010B54EF60C5CCEF2000CDCF863
:1005D0000030C3F3022E8EF00704042C28BF04243D
:1005E000BEF103034FF0FF3E0EFA04F438BF0023C0
:1005F000A14399400EFA03F39A43114300F00F020E
:1006000000F160430901043A03F5644362440028A1
:1006100048BF02F10C03197010BD00004EF60C51DA
:10062000CEF200010A684FF6FF031A4060F30A2277
:1006300042F0806040F0FD7008607047002804BF01
:10064000012070472DE9F04143F60808C4F2020882
:100650000446D8F8F8030D4600F00700814207D998
:1006600088F8F853D8F8F80300F00700A84277D1CB
:100670002068810717D5410705D5D8F8001041F447
:10068000E051C8F80010010705D5D8F8001041F472
:100690006041C8F80010D8F80010A26821F0F001FD
:1006A0001143C8F80010C00740D1D8F8F80300F093
:1006B0000700854207D288F8F853D8F8F80300F00D
:1006C0000700A8424CD12068410707D5D8F8001090
:1006D000E26821F4E0511143C8F80010000708D582
:1006E000D8F80000216920F4604040EAC100C8F851
:1006F000000000F089F8D8F8001041F23012C1F380
:100700000311C0F60002515C40F2080220FA01F128
:1007100040F20400C2F200000068C2F20002116060
:10072000FFF7C8FE0020BDE8F08100BF6068811EB1
:10073000022907D258F8081C89015CBF0120BDE8D6
:10074000F08111E0012807D158F8081C89035CBF2B
:100750000120BDE8F08107E058F8081C890703D4A0
:100760000120BDE8F08100BFD8F8001021F003019E
:100770000843C8F80000FFF76DFE064641F28837CF
:10078000D8F80000616800F00C00B0EB810F8CD04D
:10079000FFF760FE801BB842F2D90320BDE8F0816C
:1007A0000F22026043F60802C4F20202136803F04B
:1007B00003034360136803F0F0038360136803F4DA
:1007C000E053C360D2F800C04FF4E05303EADC0307
:1007D0000361D2F8F80300F00700086070470000DA
:1007E00040F2080043F60801C2F20000C4F2020120
:1007F0000068096841F24012C1F38221C0F600028C
:10080000515CC8407047000010B543F60404C4F2C0
:1008100002046168C1F3810142F20040C0F2F400B9
:10082000DFE801F002040A0210BD00BF41F200201F
:10083000C0F27A0010BD00BF216801F03F022168BC
:1008400023684902C3F3881106D4A1FB00010023E9
:10085000FFF720FD07E000BF41F20020C0F27A0060
:100860004843B0FBF2F021680222C1F3014102EBE0
:100870004101B0FBF1F010BD002804BF012070471A
:100880002DE9F04182B00446007843F60006C00727
:10089000C4F202060CD0B06800F00C00042840F04E
:1008A00081803068800303D56068002800F068818B
:1008B000207880071BD5B06810F00C0F09D0B06805
:1008C00000F00C00082840F087807068400200F1BA
:1008D00083803068800703D5E068012840F05081AC
:1008E0003068216920F0F80040EAC10030602078CB
:1008F000000713D4207840072AD4A569002D00F002
:100900003A81B06800F00C00082840F0A580012D65
:1009100040F00E81012002B0BDE8F081606900283E
:1009200000F082800020C4F247200121C0F8801E20
:10093000FFF790FD054600BF706F8007DAD4FFF720
:1009400089FD401B0228F7D9032002B0BDE8F081E1
:10095000306C5FEAC0080AD400200190306C40F08F
:1009600080503064306C00F080500190019847F264
:100970000007C4F200073868C00547D4386840F45F
:1009800080703860FFF766FD054600BF3868C00517
:100990003CD4FFF75FFD401B0228F7D9032002B0CB
:1009A000BDE8F081B06800F00C00082803D1706841
:1009B00040023FF576AF61683068B1F5803F07D0FF
:1009C000B1F5A02F40F09A8040F48020306030686C
:1009D00040F4803030609AE0E068002840F2000087
:1009E000C4F247205CD001210160FFF733FD0546CA
:1009F000306880073FF574AFFFF72CFD401B0228DD
:100A0000F6D9032002B0BDE8F08100BFA168306FC5
:100A1000012905D0052955D140F004003067306F19
:100A200040F00100306756E00020C4F2472000216A
:100A3000C0F8801EFFF70EFD054600BF706F8007EF
:100A40007FF558AFFFF706FD401B0228F6D90320BB
:100A500002B0BDE8F08100BF0027C4F247270020A4
:100A60003866FFF7F7FC022D05460DD1306880018E
:100A700040F18A80FFF7EEFC401B02284FF0030094
:100A8000F4D902B0BDE8F0813068800173D5FFF77A
:100A9000E1FC401B02284FF00300F5D9F1E700BF4D
:100AA00000210160FFF7D6FC054600BF30688007D3
:100AB0007FF51DAFFFF7CEFC401B02284FF003006F
:100AC000F4D9DEE720F001003067306F002920F014
:100AD000040030677AD0FFF7BDFC054641F2883745
:100AE000306F800700F18480FFF7B4FC401BB842F0
:100AF000F6D9032002B0BDE8F08100BF20F48030B9
:100B000030603068002920F4802030607AD0FFF710
:100B1000A1FC0546306880033FF5CAAEFFF79AFC9A
:100B2000401B6428F6D9032002B0BDE8F08100BF65
:100B30007068E16900F480028A4221D1216A00F0E4
:100B40003F028A421CD147F6C071626A0140B1EB94
:100B5000821F15D1A16A4FF6FF73C903994300F4B0
:100B60004032A1F580318A420AD1E16A00F070601A
:100B7000B0EB016F04D1002002B0BDE8F08100BFEE
:100B8000012002B0BDE8F08104F11C052FCD08431F
:100B900040EA8210D9034FF6FF729143A1F58031EC
:100BA00040EA05600843706001203866FFF752FC98
:100BB000044600BF30688001DDD4FFF74BFC001B0A
:100BC00002284FF00300F5D95BE700BFFFF742FCB6
:100BD000054641F2883700BF306F800708D5FFF720
:100BE00039FC401BB8424FF00300F5D949E700BF7C
:100BF000B8F1000F3FF581AE306C20F080503064CA
:100C00007BE600BFFFF726FC054600BF3068800387
:100C10007FF54EAEFFF71EFC401B64284FF003002B
:100C2000F4D92EE77047000070470000002804BF89
:100C30000120704710B5044690F83D0028B9002007
:100C400084F83C00204600F01FF8022084F83D00A4
:100C50002068211D00F0B8F9012084F8460084F8CE
:100C60003E0084F83F0084F8400084F8410084F896
:100C7000420084F8430084F8440084F8450084F876
:100C80003D00002010BD00007047000090F83D10AE
:100C900001291CBF01207047022180F83D10006827
:100CA00041F2FF72C168C4F20002904241F00101BA
:100CB000C1600DDC40F2FF71C4F20001884215DC16
:100CC000B0F1804F2AD040F20041C4F2000123E08D
:100CD00040F2FF31C4F20101884213DC41F6000109
:100CE000C4F20001884219D0002113E040F600014F
:100CF000C4F20001884211D040F60041C4F2000164
:100D00000AE000BF44F20001C4F20101884205D0AC
:100D100040F20041C4F20101884206D1816801F02D
:100D20000701062904BF00207047016841F0010156
:100D300001600020704700007047000070B5044655
:100D40000068C5680669B10716D515F0020113D011
:100D50006FF002010161012121778069800703D0D2
:100D60002046FFF7E9FF05E0204600F08FF8204617
:100D700000F08EF800202077700719D515F00400D8
:100D800016D020686FF0040101610221217780698B
:100D900010F4407F04D02046FFF7CEFF06E000BFEE
:100DA000204600F073F8204600F072F8002020770B
:100DB000300717D515F0080014D020686FF008012F
:100DC000016104212177C069800703D02046FFF725
:100DD000B3FF05E0204600F059F8204600F058F82F
:100DE00000202077F00619D515F0100016D02068E5
:100DF0006FF01001016108212177C06910F4407F74
:100E000004D02046FFF798FF06E000BF204600F020
:100E10003DF8204600F03CF800202077F00718BF8E
:100E200015F0010002D1300609D412E020686FF0FD
:100E300001010161204600F02DF8300609D515F0BA
:100E4000800006D020686FF0800101612046FFF726
:100E5000E9FE700609D515F0400006D020686FF055
:100E600040010161204600F01FF8B00658BF70BD78
:100E700015F0200008D021686FF0200220460A619A
:100E8000BDE87040FFF7D0BE70BD000070470000A5
:100E900070470000006840F60001C4F2000188427B
:100EA00018BF7047FFF7DCBA70470000FEE700008C
:100EB00082B0002043F630010190C4F202010A68BA
:100EC00042F080020A600A6802F080020192019AF0
:100ED0000090086840F001000860086800F0010018
:100EE0000090009802B07047FEE70000FEE70000A7
:100EF00070470000704700007047000070B592B066
:100F000006AC20463021FFF73DFA002543F64000AD
:100F10000595CDE90355CDE901550095C4F20200D0
:100F20000168022641F080510160006800F08050A5
:100F30000090009847F200000095C4F2000001689C
:100F400041F480410160006800F480400090009806
:100F5000012006904FF4803007904FF480000D90F0
:100F600008200E904FF4A870CDE90F0604201190D0
:100F700020460C96FFF780FC10B172B6FEE700BF6A
:100F80000F20CDE901064FF4A05004904FF480509B
:100F9000059001A805210395FFF750FB10B172B62B
:100FA000FEE700BF12B070BD4EF68850CEF20000D2
:100FB000016841F4700101607047000040F2700068
:100FC000C2F20000FFF7BABEB0B540F6FF3E0568BA
:100FD000C4F2000E40F2004C7045C4F2010C25DC56
:100FE000B0F1804F2FD040F20043C4F2000398428A
:100FF00029D040F60003C4F20003984223D041F602
:10100000FF73C4F20003984228DC70453ADCB0F16B
:10101000804F5BD040F20043C4F20003984255D0A9
:1010200040F60003C4F200034EE000BF40F6004368
:10103000C4F20003984206D0604504D00023C4F2F5
:1010400001039842DBD14B6825F0700243EA0205A8
:1010500041F6FF73C4F200039842D6DD43F6FF73F6
:10106000C4F2010398421FDC42F20003C4F2000301
:1010700098422BD00023C4F20103984226D0604549
:1010800024D028E040F60043C4F2000398421DD06B
:1010900041F60003C4F20003984217D041F6004322
:1010A000C4F2000310E000BF44F20003C4F20103E5
:1010B00098420BD044F60003C4F20103984205D0D5
:1010C00044F20043C4F20103984204D1CB6825F4F2
:1010D000407243EA02050A688C684B69C46240F4B6
:1010E00080648262644504BF09690163026825F077
:1010F000800142F004021943026001224261016052
:10110000B0BD0000FEE70000FFF7B8F9FFF7F6FEFC
:10111000FFF7CEFEFEE7F1EE100A4FF6FF71C0F2C8
:10112000C03120EA010040F04070E1EE100A704743
:101130000000000000000000010203040607080987
:1011400000000000010203046811000800000020F4
:1011500010000000EC0100087811000810000020C9
:10116000B00600000C0200080100000010000000A2
:081170000024F400000000005F
:040000050800018965
:00000001FF
