:020000040800F2
:10000000A071012055020008A9510008A132000882
:10001000A5510008950B0008A58500080000000008
:10002000000000000000000000000000C1530008B4
:100030008512000800000000B1510008E9530008D3
:100040006F0200086F0200086F0200086F020008CC
:100050006F0200086F0200086F0200086F020008BC
:100060006F020008891200086F0200086F02000882
:100070006F0200086F0200086F0200086F0200089C
:100080006F0200086F0200086F0200086F0200088C
:100090006F0200086F0200086F0200086F0200087C
:1000A0006F0200086F0200086F0200086F0200086C
:1000B0006F0200086F020008C95400086F020008B0
:1000C0006F0200086F0200086F0200086F0200084C
:1000D0006F0200086F0200086F0200086F0200083C
:1000E0006F0200086F0200086F0200086F0200082C
:1000F0006F0200086F0200086F0200086F0200081C
:100100006F0200086F020008D55400086F02000853
:100110006F0200086F0200086F0200086F020008FB
:100120006F0200086F0200086F0200086F020008EB
:100130006F0200086F0200086F0200086F020008DB
:100140006F0200086F0200086F0200086F020008CB
:100150006F0200086F0200086F0200086F020008BB
:100160006F0200086F0200086F0200086F020008AB
:100170006F0200086F0200086F0200080000000014
:100180006F0200086F02000800F002F800F052F859
:1001900014A696E8000CB244B344DA4501D100F04D
:1001A00049F8BAE80F000FA696E83000A5EB040561
:1001B00004EB0607AAEB0704A7F101074FEA1515A0
:1001C0004FEA3414A4F10104AC4201D300F032F838
:1001D00013F0010F18BFFB1A43F0010300F001F800
:1001E000DBE7184728A5030048A50300103A24BF01
:1001F00078C878C1FAD8520724BF30C830C144BF8C
:1002000004680C6070470000704700000023002461
:1002100000250026103A28BF78C1FBD8520728BF16
:1002200030C148BF0B6070471FB52EF030FB1FBDBB
:1002300010B510BD00F010FA1146FFF7F5FF26F0DB
:10024000E5FB00F02EFA03B4FFF7F2FF03BC00F069
:1002500031FA00000948804709480047FEE7FEE7F9
:10026000FEE7FEE7FEE7FEE7FEE7FEE7FEE7FEE766
:1002700004480549054A064B70470000B55400087C
:1002800089010008A06B0120A0710120A06D012050
:10029000A06D012053EA020C00F069802DE9F04BBB
:1002A0004FF00006002B1FBFB3FA83F503FA05F4E5
:1002B00024FA05F65E4012BF1643B2FA82F502FA3E
:1002C00005F4C5F120051EBF22FA05FC44EA0C0422
:1002D000203556EA044C4FEA144418BF641C4FF012
:1002E00000084FF00009904271EB030C39D300294C
:1002F00019BFB1FA81F701FA07F6B0FA80F700FAF0
:1003000007F6C7F120071EBF20FA07FC46EA0C06D5
:100310002037B6FBF4FCA7EB0507103F07F01F0BD7
:10032000CBF120062CFA06F60CFA0BFB44BFB346C1
:100330000026202FA4BF5E464FF0000B5BEA060CA0
:1003400008BF4FF0010B19EB0B0948EB0608ABFB9C
:10035000027C06FB02CC0BFB03CCC01B71EB0C0137
:10036000C1E70B46024641464846BDE8F08B13B54F
:10037000084318BF4FF0FF300146AFF30080BDE8DF
:100380001C40704740EA0103024630B59B0710D17C
:100390004FF0013400E008C208C91D1B9D4315EA57
:1003A000C41FF8D013F0FF0102F8011B0DD01B0A87
:1003B000F8E711F8013B002B02F8013B05D011F8DA
:1003C000013B002B02F8013BF3D130BD10B5431CBB
:1003D00002E010F8011B71B18107FAD14FF0013230
:1003E00002C88C1A8C4314EAC211F9D0C01A0A064A
:1003F00003D0C01E10BDC01A10BD0A0401D0801E5B
:1004000010BD0902FCD0401E10BD032A40F230800E
:1004100010F0030C00F0158011F8013BBCF1020F45
:10042000624498BF11F801CB00F8013B38BF11F8C6
:10043000013BA2F1040298BF00F801CB38BF00F8DD
:10044000013B11F0030300F02580083AC0F008805A
:1004500051F8043B083A51F804CBA0E80810F5E73E
:10046000121D5CBF51F8043B40F8043BAFF3008021
:10047000D20724BF11F8013B11F801CB48BF11F896
:10048000012B24BF00F8013B00F801CB48BF00F866
:10049000012B704710B5203AC0F00B80B1E818501E
:1004A000A0E81850B1E81850A0E81850203ABFF45E
:1004B000F5AF5FEA027C24BFB1E81850A0E81850FD
:1004C00044BF18C918C0BDE810405FEA827C24BF51
:1004D00051F8043B40F8043B08BF7047D20728BFDF
:1004E00031F8023B48BF11F8012B28BF20F8023B2E
:1004F00048BF00F8012B704702F0FF0343EA0322D4
:1005000042EA024200F00AB802F0FF0343EA032283
:1005100042EA024200F024B84FF000020429C0F081
:10052000128010F0030C00F01B80CCF1040CBCF125
:10053000020F18BF00F8012BA8BF20F8022BA1EB77
:100540000C0100F00DB85FEAC17C24BF00F8012B5C
:1005500000F8012B48BF00F8012B70474FF0000254
:1005600000B5134694469646203922BFA0E80C50A9
:10057000A0E80C50B1F12001BFF4F7AF090728BF84
:10058000A0E80C5048BF0CC05DF804EB890028BF00
:1005900040F8042B08BF704748BF20F8022B11F029
:1005A000804F18BF00F8012B7047000000000000CA
:1005B00030B44FF0013C50F8042B51F8043BCCFA16
:1005C00052F4D51A20D1FCB950F8042B51F8043B51
:1005D000CCFA52F4D51A17D1B4B950F8042B51F80B
:1005E000043BCCFA52F4D51A0ED16CB950F8042B56
:1005F00051F8043BCCFA52F4D51A05D1002CDAD0CC
:1006000030BC4FF00000704729BAB1FA81F111F007
:100610001801D1F120008440F2D1CA40CB4012F041
:10062000FF0213F0FF0330BCD01A704770477047C9
:10063000704710B500F008F8006810BD10B504460A
:1006400000F002F8046010BD004870471801002057
:1006500000487047180100207546FFF7F9FFAE46C5
:1006600005006946534620F00700854618B020B5BE
:10067000FFF7FEFDBDE820404FF000064FF00007F9
:100680004FF000084FF0000BAC46ACE8C009ACE8F6
:10069000C009ACE8C009ACE8C00921F007018D46EB
:1006A000704710B50446AFF300802046BDE8104007
:1006B000FFF7C9BD01491820ABBEFEE726000200C6
:1006C00070470000B0B502F0A1FF40F2EC45C2F265
:1006D000000505F12C0002F0E5FD082002210022B2
:1006E00000242CF0B5FE286140F6D900C0F60000C9
:1006F00003F0A2F840F2CD70C0F6000003F090F8CD
:1007000040F61900C0F6000003F090F840F6211002
:10071000C0F6000003F096F840F6A800C2F2000010
:1007200002F0D6FB0BF0FCFD03F07CF94FF47840AF
:1007300003F08EF840F23450C2F200001F21018015
:1007400040F29400C2F20000048005F025FE00F0A3
:1007500023FA80B90BF022FE05F0C0FE0BF026FE56
:1007600010F046F910F098F928B110F041F910F0A6
:1007700093F921F003FB1CF043FC23F0ADFC23F0C4
:10078000CFFC00F00DFE40F27474C2F2000420466B
:1007900029F096FE20460BF095FD40F28401C2F24E
:1007A000000108684968BDE8B0400EF0E3B80000F9
:1007B00040F2EC40C2F2000000F12C04204602F0AE
:1007C00073FE0A2026F080FBF8E7000080B582B0B7
:1007D000014640F2EC40C2F20000006900220092A3
:1007E000B8B18DF8061001218DF807100DF1060142
:1007F0006A4600232DF03CF8009850B14EF60450A4
:10080000CEF200004FF080510160BFF34F8FBFF375
:100810006F8F02B080BD000080B582B0014640F20B
:10082000EC40C2F20000006900220092B8B18DF8DD
:10083000061002218DF807100DF106016A4600230B
:100840002DF016F8009850B14EF60450CEF200008C
:100850004FF080510160BFF34F8FBFF36F8F02B035
:1008600080BD000082B040F2EC45C2F200050DF1FF
:1008700006040126002700BF286921464FF0FF32F9
:100880002DF09AF80128F7D19DF80700032804D825
:1008900005EB8001CA690132CA610328ECD8DFE8A0
:1008A00000F00915030F00BF9DF80600002808BFDF
:1008B0002E71E1E79DF80600002808BF6E71DBE7A6
:1008C0009DF80600002808BF6F71D5E79DF8060067
:1008D000002808BFEE70CFE780B582B0014640F235
:1008E000EC40C2F20000006900220092B0B18DF825
:1008F00006108DF807200DF106016A4600232CF042
:10090000B7FF009850B14EF60450CEF200004FF001
:1009100080510160BFF34F8FBFF36F8F02B080BD76
:1009200080B582B0014640F2EC40C2F2000000699E
:1009300000220092B8B18DF8061003218DF807103F
:100940000DF106016A4600232CF092FF009850B189
:100950004EF60450CEF200004FF080510160BFF31C
:100960004F8FBFF36F8F02B080BD000040F2EC44A8
:1009700040F2840642F2DC77C2F200040025C2F2A3
:100980000006C2F201070DE0A0786179002918BFC6
:100990000121084300F00100207025F093F90520A3
:1009A00026F092FA00F028F872B6207AE1798842AF
:1009B00015D000BF207A00EB400017F82000217A04
:1009C0000138013101F00F01B0FA80F021724009C5
:1009D00062B6A07072B6207AE1798842EAD162B636
:1009E000E078002818BFE57020790028CCD0257168
:1009F00030687068C8E700002DE9F04381B040F22C
:100A00008409C2F20009D9F80060D9F8045005F051
:100A10005FFDF8B10020002407F03CFCD0B140F2AB
:100A2000EC47C2F2000740F25C017878C2F20001A4
:100A30000E8A4D8A00287C61BC6140F08880F8797C
:100A400072B60130397A00F00F0888455ED162B67F
:100A50007DE000BF40F2EC47C2F20007787848B36F
:100A6000F87972B60130397A00F00F048C4201D166
:100A700062B61FE0F87942F2DC7800EB4000C2F287
:100A80000108022108F82010F87900EB400008EB7B
:100A900080004680F87900EB400008EB80008580FC
:100AA00001F0E2FCF97901EB410108EB810188607A
:100AB000FC7162B697ED0C2A9FED313A97ED050A6D
:100AC00097ED0D4A97ED061A22EE032A32EE000A40
:100AD00024EE032A002032EE011ABDEEC02A7870FF
:100AE000B8EEC23A12EE100ABDEEC12AB8EEC24A02
:100AF00012EE101A30EE430A31EE441A06440D4449
:100B000087ED050A87ED061A23E000BFF87942F267
:100B1000DC7400EB4000C2F20104012104F8201053
:100B2000F87900EB400004EB80004680F87900EB98
:100B3000400004EB8000858001F096FCF97901EB20
:100B4000410104EB8101886087F8078062B60120CB
:100B5000787026EAE670B0F59F7F25EAE571C8BF98
:100B600040F23F10B1F5EF7FC8BF40F2DF11C9F886
:100B70000000C9F8041001B0BDE8F0430DF0FABE62
:100B80000000484280B502F053FD0120BDE88040DE
:100B900025F064B8FEE700002DE9F04F87B0002291
:100BA000C0F60402106844F63141C4F24131884273
:100BB00040F0B5801368082500930423C0F60403B1
:100BC000C0F604051B682D6848F22031CDE90135D7
:100BD0000C231025C0F60403C0F604051B682D681D
:100BE00042F2C809CDE9033514231825C0F60403E1
:100BF000C0F604051B682D6841F2640A48F6320B02
:100C00004CF21948CEF6B851C3F66E39C1F6B75A50
:100C1000C0F6DB6BC0F26D78CDE905354FF0FF36DD
:100C20006FF0020568464719F8783B79704081EA11
:100C30005006C2074FEA407497F805E008BF46081F
:100C400081EA56025FEA807C08EAE47458BF7208C1
:100C5000070748BF84EA0B04C70648BF84EA0A04B2
:100C6000800648BF84EA090484EA921044F2901492
:100C7000B706C7F2DC6448BF6040920648BF4840F0
:100C8000584081EA5002C30708BF4208870781EA3B
:100C900052034FEA407758BF530808EAE777060740
:100CA00048BF87EA0B07C60648BF87EA0A078006DF
:100CB00048BF87EA090787EA9310920648BF604059
:100CC0009A0648BF484080EA0E0081EA5002C307F6
:100CD00008BF4208870781EA52034FEA407758BFAE
:100CE000530808EAE777060748BF87EA0B07C606F6
:100CF00048BF87EA0A07800648BF87EA090787EAEC
:100D00009316900648BF6640980605F1030548BF54
:100D10004E40152D86D106987040013004D0002039
:100D200007B0BDE8F08F00BF0020C0F604004068A7
:100D300007B0BDE8F08F00002DE9F04F88B0002427
:100D4000C0F60404216844F63142C4F241329142B3
:100D500040F0BF8024680090019404240820C0F66D
:100D60000404C0F60400246806680C20C0F60400E1
:100D7000CDE9024604681020C0F60400066814207D
:100D8000CDE904461826C0F60400C0F6040604683F
:100D9000366848F2203141F2640B48F6320C4CF2CE
:100DA000194ECEF6B851C1F6B75BC0F6DB6CC0F297
:100DB0006D7ECDE906464FF0FF386FF0020600BFAA
:100DC00001A8841994F803A094F8049088EA0A070B
:100DD00081EA5702F807647908BF7A08BB074FEA2F
:100DE000477381EA52000EEAE37358BF50083D078B
:100DF00048BF83EA0C03FD0648BF83EA0B0342F2B7
:100E0000C808BD06C3F66E3848BF83EA080383EA04
:100E10009013920644F2901AC7F2DC6A48BF83EA44
:100E20000A03800648BF4B4083EA090081EA50026A
:100E3000C30708BF4208850781EA52034FEA40759D
:100E400058BF53080EEAE575070748BF85EA0C0549
:100E5000C70648BF85EA0B05800648BF85EA080536
:100E600085EA9310920648BF80EA0A009A0648BFB6
:100E70004840604081EA5002C30708BF4208840727
:100E800081EA52034FEA407458BF53080EEAE474F3
:100E9000050748BF84EA0C04C50648BF84EA0B0472
:100EA000800648BF84EA080484EA9318900648BF85
:100EB00088EA0A08980606F1030648BF88EA01088E
:100EC000152E7FF47DAF0798009F80EA080001305F
:100ED00004D0002008B0BDE8F08F00BF0820C0F6A5
:100EE000040000680C2110221423C0F60401C0F68F
:100EF0000402C0F60403096812681B680FC70120CA
:100F000008B0BDE8F08F00002DE9F04F8FB0002150
:100F1000C0F6040144F631470A6848F2203BC4F2A7
:100F2000413748F632084CF21949CEF6B85BC0F6A4
:100F3000DB68BA42C0F26D7940F0B8800A680823D5
:100F400002920422C0F60402C0F6040312681B6871
:100F500042F2C80CCDE903230C221023C0F6040290
:100F6000C0F6040312681B6844F29011CDE9052312
:100F700014221823C0F60402C0F6040312681B688A
:100F80006FF00205CDE907234FF0FF33C3F66E3C47
:100F9000C7F2DC61019000BF02A84219D47816792B
:100FA00063408BEA5304DF074FEA437092F805A0D1
:100FB00008BF5C088BEA54075FEA837E09EAE070A9
:100FC00041F2640E58BF67081A0748BF80EA08005C
:100FD000C1F6B75EDA0648BF80EA0E009A0648BF3F
:100FE00080EA0C0080EA9710A20648BF4840BA0683
:100FF00048BF80EA0B0070408BEA5002C30708BF6D
:10100000420887078BEA52034FEA407758BF5308DC
:1010100009EAE777060748BF87EA0807C60648BF18
:1010200087EA0E07800648BF87EA0C0787EA931015
:10103000920648BF48409A0648BF80EA0B0080EA03
:101040000A008BEA5002C30708BF420883074FEA31
:1010500040738BEA520709EAE37358BF5708060743
:1010600048BF83EA0803C60648BF83EA0E0380062A
:1010700048BF83EA0C0383EA9713900648BF4B40AE
:10108000B80605F1030548BF83EA0B03152D83D18C
:10109000089844F6314758400130019840F2000268
:1010A000C4F24137C0F6040200F0E680CE46C146E5
:1010B00001230022CDE901370393D0E902370892DA
:1010C000D0E9006242F2C80C41F26408CDE906376B
:1010D0004FF0FF336FF00200C3F66E3CC1F6B75815
:1010E000CDE9046202A90A18D77816797B408BEA09
:1010F0005307DC07527908BF5F089D078BEA570446
:101100004FEA437558BF7C080EEAE5755FEA037A3B
:1011100048BF85EA0905D90648BF85EA080599064A
:1011200048BF85EA0C0585EA9411BB0644F2901786
:10113000C7F2DC6748BF7940A30648BF81EA0B01CC
:1011400071408BEA5103CC0708BF4B088D078BEA2F
:1011500053044FEA417558BF5C080EEAE5750E0767
:1011600048BF85EA0905CE0648BF85EA0805890615
:1011700048BF85EA0C0585EA94119B0648BF794073
:10118000A30648BF81EA0B0151408BEA5102CB070D
:1011900008BF4A088B074FEA41738BEA52040EEAF4
:1011A000E37358BF54080D0748BF83EA0903CD060F
:1011B00048BF83EA0803890648BF83EA0C0383EA31
:1011C0009413910648BF7B40A10600F1030048BF7D
:1011D00083EA0B03152885D10024DE430B94099480
:1011E00001F040F806200C9001200D9002200E9096
:1011F0000AA809A90A9400F0F7FE00F0BBFF01F06D
:1012000031F8002444F63142C0F60404C4F24132FD
:1012100002202146002300F0B7FF019A211D022081
:10122000002300F0B1FF049A04F10801022000231A
:1012300000F0AAFF059A04F10C010220002300F03F
:10124000A3FF069A04F110010220002300F09CFF86
:10125000079A04F114010220002300F095FF04F125
:10126000180102203246002300F08EFF00F082FFBA
:1012700001200FB0BDE8F08F5268CE46C146531C26
:1012800017E7000070470000082001F005B80000D3
:1012900072B600BFFEE70000F0B581B040F2D4079F
:1012A000044643F60C46C2F200070020C4F20206D0
:1012B000F86101F0D9F83168C9031BD43068C00760
:1012C0001CBF01203060306810F0F20F30D0306861
:1012D000C00631D43068800637D4306840063DD42B
:1012E0003068000643D43068800749D4012001B03B
:1012F000F0BD00BFC4B10546601C10D13068C0030A
:10130000DCD53068C00344BF30685FEAC030D5D553
:101310003068C003F2D4D1E73068C003CED501F005
:10132000A3F8401BA042F7D9032001B0F0BD00BFD5
:10133000002001B0F0BD00BFF86940F01000F86176
:101340001020306030688006C7D5F86940F008008A
:10135000F8612020306030684006C1D5F86940F05F
:101360000400F8614020306030680006BBD5F869A1
:1013700040F00200F8618020306030688007B5D509
:10138000F86940F02000F86102203060012001B0CF
:10139000F0BD000040F2F400C2F20000704700000F
:1013A0002DE9F04F91B04FF60072C0F607021068B9
:1013B00045F23131C4F24C61884240F0D6804FF69C
:1013C0000476C0F60706176836684FF60C70CDE94C
:1013D00007764FF60877C0F60707C0F607003F68A4
:1013E00006684FF61070C0F60700CDE90976076869
:1013F0004FF61470C0F6070006684FF61870C0F676
:101400000700CDE90B7607684FF62470C0F6070099
:1014100006684FF62070C0F607000D9707684FF674
:101420001C70C0F6070048F220314CF2194C10969F
:10143000066842F2C80444F29018CEF6B851C0F2E1
:101440006D7C4FF0FF3A6FF0020EC3F66E34C7F2B8
:10145000DC68CDE90E6700BF07A800EB0E06F77841
:1014600096F804B096F805908AEA070681EA5607CE
:10147000F20708BF7708B3074FEA467381EA5702BD
:101480000CEAE37348F6320A58BF7A083507C0F60B
:10149000DB6A48BF83EA0A0341F26400F506C1F63D
:1014A000B75048BF4340B50648BF634083EA921334
:1014B000BD0648BF83EA0803920648BF4B4083EA53
:1014C0000B0281EA5203D50708BF5308960781EA49
:1014D00053054FEA427658BF5D080CEAE6761707D7
:1014E00048BF86EA0A06D70648BF4640920648BF6C
:1014F000664086EA95129B0648BF82EA0802AB0660
:1015000048BF4A4082EA090281EA5203D50708BF70
:101510005308960781EA53054FEA427658BF5D08A3
:101520000CEAE676170748BF86EA0A06D70648BFE0
:101530004640920648BF664086EA951A9A0648BF1A
:101540008AEA080AAA060EF1030E48BF8AEA010ACF
:10155000BEF1210F7FF480AF109880EA0A000130BD
:101560004FF60070C0F6070006D021A011B0BDE80C
:10157000F04F00F041B800BF84684FF60C704FF692
:101580001071C0F60700C0F6070100680968142C46
:10159000CDE900014FF614704FF61871C0F6070040
:1015A000C0F6070100680968CDE902014FF61C701A
:1015B0004FF62071C0F60700C0F607010068096801
:1015C000CDE904014FF62470C0F6070000680690CC
:1015D0000AD840F2F405C2F20005694628462246C0
:1015E000FEF758FF0020285511B0BDE8F08F00BF6E
:1015F0006B796B6B790000002DE9F04F93B00028F8
:1016000000F0028248F2203B45F2313741F2640893
:1016100048F632094FF600744CF2194A0646CEF6E7
:10162000B85BC4F24C67C1F6B758C0F6DB69C0F6C8
:101630000704C0F26D7AFEF7C9FE2168142828BF9E
:101640001420B942029040F0CA804FF600704FF665
:101650000471C0F60700C0F607010068096801962A
:10166000CDE903014FF608704FF60C71C0F6070084
:10167000C0F607010068096844F29016CDE905013B
:101680004FF610704FF61471C0F60700C0F6070150
:101690000068096842F2C80CCDE907014FF61870DE
:1016A0004FF62471C0F60700C0F60701006809680C
:1016B00009900C914FF620704FF61C71C0F6070090
:1016C000C0F60701006809684FF0FF33CDE90A1042
:1016D0006FF00200C7F2DC66C3F66E3C03A90A187D
:1016E000D178177959408BEA5103CD0792F805E07C
:1016F00008BF4B088C078BEA53054FEA417458BF6B
:101700005D080AEAE4740A0748BF84EA0904CA06C5
:1017100048BF84EA0804890648BF84EA0C0484EAC6
:1017200095119A0648BF7140AA0648BF81EA0B018D
:1017300079408BEA5102CB0708BF4A088C078BEA35
:1017400052034FEA417458BF53080AEAE4740D0784
:1017500048BF84EA0904CD0648BF84EA0804890624
:1017600048BF84EA0C0484EA9311920648BF714092
:101770009A0648BF81EA0B0181EA0E018BEA510209
:10178000CB0708BF4A088B074FEA41738BEA520721
:101790000AEAE37358BF57080D0748BF83EA0903F5
:1017A000CD0648BF83EA0803890648BF83EA0C03D5
:1017B00083EA9713910648BF7340B90600F103000E
:1017C00048BF83EA0B03212888D10C98019E58401A
:1017D00045F231370130C4F24C6700F01B81012023
:1017E00003A9CDE90370029F01F10C0500240090CC
:1017F000284631463A460C94CDE90A44CDE90844DE
:10180000CDE906440597FEF700FE44F2901C42F233
:10181000C80E4FF0FF336FF00200C7F2DC6CC3F666
:101820006E3E0195EC5500BF03A90144CF780A79BB
:101830007B408BEA5307DC07497908BF5F089D07A7
:101840008BEA57044FEA437558BF7C080AEAE575EE
:101850001E0748BF85EA0905DE0648BF85EA080578
:101860009B0648BF85EA0E0585EA9413BF0648BF6C
:1018700083EA0C03A70648BF83EA0B035A408BEAAE
:101880005203D70708BF530896078BEA53074FEA5E
:10189000427658BF5F080AEAE676150748BF86EA2F
:1018A0000906D50648BF86EA0806920648BF86EABA
:1018B0000E0686EA97129B0648BF82EA0C02BB0618
:1018C00048BF82EA0B0251408BEA5102CB0708BFA6
:1018D0004A088B074FEA41738BEA52070AEAE3731F
:1018E00058BF57080E0748BF83EA0903CE0648BF12
:1018F00083EA0803890648BF83EA0E0383EA971345
:10190000910648BF83EA0C03B90600F1030048BF03
:1019100083EA0B03212887D1DE434FF000080C96A1
:10192000CDF83C80CDF8348000F09CFC072010906E
:101930000220012712900EA80DA9CDF8388011972A
:1019400000F052FB00F016FC00F08CFC4FF6007526
:1019500045F23132C0F60705C4F24C620220294636
:10196000002300F011FC009A291D0220002300F042
:101970000BFC029C05F1080102202246002300F026
:1019800003FC069A05F10C010220002300F0FCFB89
:10199000079A05F110010220002300F0F5FB089AD8
:1019A00005F114010220002300F0EEFB099A05F175
:1019B00018010220002300F0E7FB0A9A05F11C0140
:1019C0000220002300F0E0FB0B9A05F12001022029
:1019D000002300F0D9FB05F1240102203246002348
:1019E00000F0D2FB00F0C6FB40F2F405C2F20005A5
:1019F000019928462246FEF74DFD05F80480384639
:101A000013B0BDE8F08F00BF0027384613B0BDE823
:101A1000F08F00BF4FF60070C0F60700406801303D
:101A2000DEE6000070B581B00022009290F83C2004
:101A3000012A03D1022001B070BD00BFD1F800E03F
:101A400001221FFA8EFC4FEA4C0380F83C200EEB7B
:101A50004E0213FA8EF31024BEF1090F88BFA3F1D2
:101A60001E0288BF0C24036807251E59954026EAEC
:101A700005051D518D681E5905FA02F232431A51AF
:101A80004968062906D801EB81014A1F194651F819
:101A9000345F0EE00C2901EB810105D8A1F123028E
:101AA000194651F8305F04E0A1F14102194651F89E
:101AB0002C5F1F24944025EA04040C600CFA02F207
:101AC0000C6842F2043CC4F2010C2243ACF54174B0
:101AD000A3420A603ED1BEF1120F07D1DCF800101C
:101AE00041F48001CCF8001034E000BF2EF0010179
:101AF00010292FD1DCF80010BEF1100F41F40001C5
:101B0000CCF8001026D140F29801C2F20001096819
:101B10004DF68362C4F21B32A1FB0212910C01EB61
:101B20008101490000910099A1B10099013900910A
:101B3000009979B1009901390091009951B100994A
:101B400001390091009929B100990139009100995A
:101B50000029EAD1002180F83C10002001B070BDBE
:101B60000068C06C70470000002804BF0120704767
:101B700010B5016C00293DD0016CC90645D4016C3B
:101B800041F202129143023142F204320164C4F282
:101B90000102116821F440311160136890E81210BD
:101BA0002343D0F810E013604A68012422F48072C5
:101BB0004A604A68C0F6007442EA0E224A604A68E7
:101BC00022F040724A604A6842EA0C024A608A681F
:101BD00022F400628A60C2688B681A438A60826A53
:101BE0008B68A24223F070638B608B6810D123F066
:101BF000405216E0044600F065F82046002161647A
:101C000084F83C10016CC906B9D5012153E000BF2E
:101C10001A438A608A6822F040528A60C26A8B68DE
:101C20001A438A608A6822F002028A608A68037E08
:101C300090F8204042EA43028A604A6884B142F444
:101C400000624A604A684EF2000322F460424A6031
:101C5000426ACFF6FF734C6803EB4232224301E045
:101C600022F400624A60CA6A40F2000C22F4700258
:101C7000CA62C3694269CFF6F07CCC6A0CEB0353AD
:101C80002343CB628B6823F400738B6090F8303071
:101C90008C6844EA43238B608B6823F480638B60F9
:101CA0008B6843EA82228A6000214164026C01232E
:101CB00063F301020264002280F83C20BDE810407A
:101CC0000846704780B586B042F200010068C4F251
:101CD0000101002288420592CDE90322029201927D
:101CE00002D006B080BD00BF43F630000092C4F2BF
:101CF0000200436943F480734361436903F48073D2
:101D00000093009B0092036843F0010303600068A6
:101D100000F00100009000980320CDE9010001F5DA
:101D2000604001A9039200F0C3FA06B080BD000034
:101D300070B5044600680D468268520544BF80684D
:101D40005FEAC05038D400F08FFB21680A68920720
:101D500049D40646681C3CD0DDB90868800721D507
:101D6000086880073FD4086880071BD5086880078B
:101D700039D40868800715D50868800733D4086807
:101D800080070FD508688007E7D52CE00868800732
:101D900029D400F069FB801B2168A842F6D90868A5
:101DA0008007F3D4206C40F004002064002084F805
:101DB0003C00032070BD00BF206C40F02000206478
:101DC000002084F83C00012070BD00BF0868800737
:101DD00009D40868800706D4086880075CBF0868D3
:101DE0005FEA8070F2D56FF012000860206C40F45A
:101DF00000702064886810F0405F01D0002070BD42
:101E0000207E0028FAD1C86A10F4700F02D08868CA
:101E10004005F3D4206C20F480702064206CC00452
:101E2000ECD4206C40F001002064002070BD000064
:101E300010B581B00021009190F83C10012903D128
:101E4000022001B010BD00BF0468012180F83C10E1
:101E5000214651F8083FDB0729D10B684DF6836214
:101E600043F001030B6040F29803C2F200031B68C9
:101E7000C4F21B32A3FB02239A0C02EB4202009233
:101E8000009AA2B1009A013A0092009A7AB1009A9F
:101E9000013A0092009A52B1009A013A0092009AD7
:101EA0002AB1009A013A0092009A002AEAD10A68FF
:101EB000036CD2070CD143F01001016400F144011E
:101EC00001200A6810430860002001B010BD00BF67
:101ED00040F2017223EA020202F580720264626833
:101EE000520504D5026C012363F30D320264026CC7
:101EF0004FF0000E0023D20444BF426C22F00603D0
:101F000042F2043C436480F83CE06FF02200C4F2EB
:101F1000010C2060DCF80000C0060DD0ACF541706B
:101F200084422BD14FF60450CFF6FF705CF80000CE
:101F300010F0405F22D125E042F20000C4F201001F
:101F4000844217D042F20020C4F2010084420DD036
:101F500042F20010C4F2010084420FD1DCF800000C
:101F6000C00607D0ACF58270844207D1DCF80000CF
:101F7000C00603D4086810F0405F03D0002001B011
:101F800010BD00BF4FF080409BE7000090F83C1070
:101F9000012904BF0220704701688A6822F001020B
:101FA0008A608968C90705D1016C41F20112914329
:101FB00001310164002180F83C10002070470000CE
:101FC000B0B5044600F050FA054640F20000C2F2F7
:101FD00000000078611C18BF044400BF00F044FA00
:101FE000401BA042FAD3B0BD2DE9F04381B040F2CE
:101FF000D408C2F2000898F81820012A04D102205F
:1020000001B0BDE8F08300BF0546012088F8180044
:102010004CF250308946FFF73FF928B1002188F88B
:10202000181001B0BDE8F0834FF0FF30C9F8000090
:10203000286843F610470128C4F202071CD128691A
:102040003968000221F440713960396880B241F08A
:10205000040139603968084340F4803038604CF23C
:102060005030FFF719F9396821F00401396057F849
:10207000101C89053BD452E0D5E902603044864209
:1020800030D2F000841C00BF28694FF44072C1B206
:10209000032939684FEA002021F44071396039681A
:1020A00038BF82B241EA02003860386820F0780018
:1020B0003860386820433860386840F480303860D1
:1020C0004CF25030FFF7E8F83968002821F07A0127
:1020D000396047D1D5E9020101360844864204F14E
:1020E0000804D1D3002057F8101C890517D557F8DC
:1020F000101C21F4007147F8101C57F8101C41F413
:10210000006147F8101C57F8101C21F4006147F8D3
:10211000101C57F8101C41F4007147F8101C57F8B8
:10212000101C49057FF57AAF57F8101C21F4806127
:1021300047F8101C57F8101C41F4805147F8101C48
:1021400057F8101C21F4805147F8101C57F8101C48
:1021500041F4806147F8101C002188F8181001B084
:10216000BDE8F083C9F8006057F8101C8905BED49B
:10217000D5E7000043F61041C4F20201086840F0C0
:10218000004200200A6070472DE9F04140F2D4047B
:10219000C2F20004277E012F04BF0220BDE8F081B7
:1021A0000546012020764CF2503098460F461646E0
:1021B000FFF772F820B100212176BDE8F08100BF61
:1021C0002A46022D43F61045C4F202051ED0012A0C
:1021D000314638460CD03ABB2A6822F440722A6055
:1021E0002A682A602A6842F001022A6001702CE005
:1021F0002A6822F440722A602A6842F480722A60B7
:102200002A6842F001022A6001801EE0286820F45A
:1022100040702860286840F400702860286840F00A
:10222000010028603E6010E02A6822F440722A60B3
:102230002A6842F440722A602A6842F001022A6049
:102240000160BFF36F8FC0F804804CF25030FFF78D
:1022500023F8296821F00101296000212176BDE8D9
:10226000F081000043F60440C4F20200C168B1F1FD
:10227000FF3FC4BF0020704740F22311C4F26751F2
:10228000016048F6AB11CCF6EF510160C068C00F99
:10229000704700007047000043F61441C4F201018A
:1022A0000A68024214BF08607047FFF7F3BF0000DE
:1022B0002DE9F04F83B000F1200200F13E4741F6D6
:1022C0000045009207F1FF77C4F2020508224FEAA9
:1022D000B726A84208BF072200254FF000084FF09C
:1022E0000009072E38BF4FEAB72201920AE000BF6B
:1022F00009F1010908F10208B9F1100F05F104050F
:1023000000F0A2800F68012202FA09FE17EA0E0A05
:10231000EED0D1F804C003220CF003077E1E02FAAF
:1023200008F4012E6FEA040B12D88468CE6804EA20
:102330000B0406FA08F634438460446824EA0E0667
:10234000CCF3001404FA09F42643466004E000BF0D
:10235000032F01D103271EE0C6688C6806EA0B062E
:1023600004FA08F42643022FC66014D16FF003026A
:10237000009E02EA590756F807C005F01C040F2218
:102380000B69A2402CEA0202A3401A43F251D1F891
:1023900004C00CF00307026807FA08F302EA0B0214
:1023A0001A431CF4403F0260A2D0002243F64403CB
:1023B0000292C4F202031A6843F6004442F48042D7
:1023C0001A601A68C4F2010402F480420292029A6E
:1023D00029F003024FF6084C2244CFF6FF7C52F856
:1023E0000C3005F00C070F26BE40B343019E06FAE1
:1023F00007F73B4342F80C30A2684B6842EA0A07F1
:1024000043F60C4CDE0258BF22EA0A07A760C4F26A
:10241000010CDCF800209E0242EA0A0758BF22EABB
:102420000A07CCF8007062689E0342EA0A0758BFA8
:1024300022EA0A0767602268DB0342EA0A0758BFFC
:1024400022EA0A07276053E703B0BDE8F08F0000D7
:102450000069084018BF012070470000002A08BF2B
:10246000090481617047000046F2A440C2F20100F5
:102470000068704740F2000046F2A441C2F200003A
:10248000C2F2010100780A68104408607047000039
:1024900080B543F60040C4F20200016841F40071C7
:1024A0000160016841F480610160016841F480715C
:1024B0000160032000F0C2F80F2000F005F800F0E2
:1024C0005DF8002080BD000070B586B0002543F6A1
:1024D00040010195C4F202010A68044642F0040278
:1024E0000A60096801A801F0040101910199694697
:1024F00000F066F9049E002E18BF012600F080F956
:102500004DF68361B040C4F21B31A0FB01014FF0D6
:10251000FF3000EB914140F6600040F60002C2F24D
:102520000000C4F2000240F2E733C0E90021C0E934
:1025300002530561856100F079FC08B106B070BDF9
:1025400040F66000C2F2000000F0C2FC0028F5D1A5
:102550001E2000F035F80F2C0CD81E20214600223A
:1025600000F040F840F204010020C2F200010C60CB
:1025700006B070BD012006B070BD000082B0002022
:1025800043F640010190C4F202014A6842F48042DD
:102590004A604A6802F480420192019A00900868F9
:1025A000002240F08050086008680F2100F0805041
:1025B000009000986FF0010002B000F013B8000026
:1025C000002848BF704700F01F01012202FA01F104
:1025D0001C2202EAD0004EF20012CEF2000281501C
:1025E0007047000010B54EF60C5CCEF2000CDCF823
:1025F0000030C3F3022E8EF00704042C28BF0424FD
:10260000BEF103034FF0FF3E0EFA04F438BF00237F
:10261000A14399400EFA03F39A43114300F00F02CD
:1026200000F160430901043A03F564436244002861
:1026300048BF02F10C03197010BD00004EF60C519A
:10264000CEF200010A684FF6FF031A4060F30A2237
:1026500042F0806040F0FD7008607047002804BFC1
:10266000012070472DE9F04143F60808C4F2020842
:102670000446D8F8F8030D4600F00700814207D958
:1026800088F8F853D8F8F80300F00700A84277D18B
:102690002068810717D5410705D5D8F8001041F407
:1026A000E051C8F80010010705D5D8F8001041F432
:1026B0006041C8F80010D8F80010A26821F0F001BD
:1026C0001143C8F80010C00740D1D8F8F80300F053
:1026D0000700854207D288F8F853D8F8F80300F0CD
:1026E0000700A8424CD12068410707D5D8F8001050
:1026F000E26821F4E0511143C8F80010000708D542
:10270000D8F80000216920F4604040EAC100C8F810
:10271000000000F089F8D8F800104EF6B402C1F3BA
:102720000311C0F60202515C40F2980220FA01F156
:1027300040F20400C2F200000068C2F20002116020
:10274000FFF7C2FE0020BDE8F08100BF6068811E77
:10275000022907D258F8081C89015CBF0120BDE896
:10276000F08111E0012807D158F8081C89035CBFEB
:102770000120BDE8F08107E058F8081C890703D460
:102780000120BDE8F08100BFD8F8001021F003015E
:102790000843C8F80000FFF767FE064641F2883795
:1027A000D8F80000616800F00C00B0EB810F8CD00D
:1027B000FFF75AFE801BB842F2D90320BDE8F08132
:1027C0000F22026043F60802C4F20202136803F00B
:1027D00003034360136803F0F0038360136803F49A
:1027E000E053C360D2F800C04FF4E05303EADC03C7
:1027F0000361D2F8F80300F007000860704700009A
:1028000040F2980043F60801C2F20000C4F202014F
:10281000006809684EF6C402C1F38221C0F60202C4
:10282000515CC8407047000010B543F60404C4F280
:1028300002046168C1F3810142F20040C0F2F40079
:10284000DFE801F002040A0210BD00BF41F20020DF
:10285000C0F27A0010BD00BF216801F03F0221687C
:1028600023684902C3F3881106D4A1FB00010023A9
:10287000FDF710FD07E000BF41F20020C0F27A0032
:102880004843B0FBF2F021680222C1F3014102EBA0
:102890004101B0FBF1F010BD002804BF01207047DA
:1028A0002DE9F04182B00446007843F60006C007E7
:1028B000C4F202060CD0B06800F00C00042840F00E
:1028C00081803068800303D56068002800F068814B
:1028D000207880071BD5B06810F00C0F09D0B068C5
:1028E00000F00C00082840F087807068400200F17A
:1028F00083803068800703D5E068012840F050816C
:102900003068216920F0F80040EAC100306020788A
:10291000000713D4207840072AD4A569002D00F0C1
:102920003A81B06800F00C00082840F0A580012D25
:1029300040F00E81012002B0BDE8F08160690028FE
:1029400000F082800020C4F247200121C0F8801EE0
:10295000FFF78AFD054600BF706F8007DAD4FFF7E6
:1029600083FD401B0228F7D9032002B0BDE8F081A7
:10297000306C5FEAC0080AD400200190306C40F04F
:1029800080503064306C00F080500190019847F224
:102990000007C4F200073868C00547D4386840F41F
:1029A00080703860FFF760FD054600BF3868C005DD
:1029B0003CD4FFF759FD401B0228F7D9032002B091
:1029C000BDE8F081B06800F00C00082803D1706801
:1029D00040023FF576AF61683068B1F5803F07D0BF
:1029E000B1F5A02F40F09A8040F48020306030682C
:1029F00040F4803030609AE0E068002840F2000047
:102A0000C4F247205CD001210160FFF72DFD05468F
:102A1000306880073FF574AFFFF726FD401B0228A2
:102A2000F6D9032002B0BDE8F08100BFA168306F85
:102A3000012905D0052955D140F004003067306FD9
:102A400040F00100306756E00020C4F2472000212A
:102A5000C0F8801EFFF708FD054600BF706F8007B5
:102A60007FF558AFFFF700FD401B0228F6D9032081
:102A700002B0BDE8F08100BF0027C4F24727002064
:102A80003866FFF7F1FC022D05460DD13068800154
:102A900040F18A80FFF7E8FC401B02284FF003005A
:102AA000F4D902B0BDE8F0813068800173D5FFF73A
:102AB000DBFC401B02284FF00300F5D9F1E700BF13
:102AC00000210160FFF7D0FC054600BF3068800799
:102AD0007FF51DAFFFF7C8FC401B02284FF0030035
:102AE000F4D9DEE720F001003067306F002920F0D4
:102AF000040030677AD0FFF7B7FC054641F288370B
:102B0000306F800700F18480FFF7AEFC401BB842B5
:102B1000F6D9032002B0BDE8F08100BF20F4803078
:102B200030603068002920F4802030607AD0FFF7D0
:102B30009BFC0546306880033FF5CAAEFFF794FC66
:102B4000401B6428F6D9032002B0BDE8F08100BF25
:102B50007068E16900F480028A4221D1216A00F0A4
:102B60003F028A421CD147F6C071626A0140B1EB54
:102B7000821F15D1A16A4FF6FF73C903994300F470
:102B80004032A1F580318A420AD1E16A00F07060DA
:102B9000B0EB016F04D1002002B0BDE8F08100BFAE
:102BA000012002B0BDE8F08104F11C052FCD0843DF
:102BB00040EA8210D9034FF6FF729143A1F58031AC
:102BC00040EA05600843706001203866FFF74CFC5E
:102BD000044600BF30688001DDD4FFF745FC001BD0
:102BE00002284FF00300F5D95BE700BFFFF73CFC7C
:102BF000054641F2883700BF306F800708D5FFF7E0
:102C000033FC401BB8424FF00300F5D949E700BF41
:102C1000B8F1000F3FF581AE306C20F08050306489
:102C20007BE600BFFFF720FC054600BF306880034D
:102C30007FF54EAEFFF718FC401B64284FF00300F1
:102C4000F4D92EE770B528B1416A29B1002101619C
:102C5000142106E0012070BD4168B1F5827F02D0E9
:102C60001C21002242500026866290F8511029B99A
:102C700080F85060054600F03DF82846022180F8B3
:102C8000511090E82E0002F482720C6803F40443A1
:102C900024F040040C601A4405F4006305691A44EA
:102CA00005F0020345691A4405F001038569C4690A
:102CB0001A4405F400731A4404F03803046A1A44F1
:102CC00004F08003846A1A4304F400531A430A6030
:102CD000436A042202EA154203F010031A444A60D0
:102CE000CA6922F40062CA610121466580F8511068
:102CF000304670BD80B586B043F200010068C4F272
:102D00000101002288420592CDE90322029201923C
:102D100002D006B080BD00BF43F630000092C4F27E
:102D20000200436943F480534361436903F48053D1
:102D30000093009B0092036843F001030360006866
:102D400000F0010000900098A02001900220CDE941
:102D50000202032004900520059001F5504001A9CE
:102D6000FFF7A6FA06B080BD70470000704700006C
:102D700090F83C20012A4FF0020254D010B580F8A0
:102D80003D200268D2F804E0D2F808C00C682EF0AA
:102D90007003234341F2FF74C4F20004A242536063
:102DA0000EDC40F2FF73C4F200039A4216DCB2F16B
:102DB000804F2BD040F20043C4F2000324E000BF58
:102DC00040F2FF33C4F201039A4213DC41F60003E0
:102DD000C4F200039A4219D0002313E040F6000326
:102DE000C4F200039A4211D040F60043C4F200033B
:102DF0000AE000BF44F20003C4F201039A4205D086
:102E000040F20043C4F201039A4204D149682CF015
:102E10008003194391600121002280F83D1080F861
:102E20003C20BDE81040104670470000002804BF59
:102E30000120704710B5044690F83D0028B90020E5
:102E400084F83C00204600F01FF8022084F83D0082
:102E50002068211D02F044FB012084F8460084F81C
:102E60003E0084F83F0084F8400084F8410084F874
:102E7000420084F8430084F8440084F8450084F854
:102E80003D00002010BD0000006840F60041C4F283
:102E90000001884218BF704780B582B000200190C1
:102EA00043F64000C4F202000168002241F008012C
:102EB00001600068052100F00800019001983220AF
:102EC000FFF790FB322002B0BDE88040FFF778BBEF
:102ED00090F83D1001291CBF01207047022180F8A5
:102EE0003D10006841F2FF72C168C4F200029042D6
:102EF00041F00101C1600DDC40F2FF71C4F200013C
:102F0000884215DCB0F1804F2AD040F20041C4F273
:102F1000000123E040F2FF31C4F20101884213DCDA
:102F200041F60001C4F20001884219D0002113E0EB
:102F300040F60001C4F20001884211D040F6004181
:102F4000C4F200010AE000BF44F20001C4F2010132
:102F5000884205D040F20041C4F20101884206D106
:102F6000816801F00701062904BF0020704701684D
:102F700041F00101016000207047000090F83C2002
:102F8000012A4FF002026CD080B580F83D20D0F8C5
:102F900000C04FF67772DCF8083023EA0202CCF862
:102FA00008200B684F2B29DC1F2B45DD202B46D03A
:102FB000302B44D0402B40F0AF80D1F804E0C968FA
:102FC000DCF82030DCF8202022F00102CCF82020B0
:102FD000DCF8182022F0F00242EA011123F00A0284
:102FE00042EA0E02CCF81810CCF82020DCF80810C9
:102FF00041F0470121F0300128E000BF6F2B33DDA5
:10300000B3F5005F74D0B3F5805F21D0702B40F032
:103010008380D1E901E3C968DCF8082043EA0E03A4
:1030200022F47F4243EA01211143CCF80810DCF876
:10303000081041F0770109E00BB1102B6CD1DCF8DE
:10304000081021F07001194341F00701CCF8081075
:103050000022012180F83D10002180F83C10BDE8DD
:1030600080401046704700BF502B21D0602B53D1B9
:10307000D1F804E0C968DCF82030DCF8202022F028
:103080001002CCF82020DCF8182022F4704242EA2A
:10309000013123F0A00242EA0E12CCF81810CCF84D
:1030A0002020DCF8081041F0670121F01001CDE785
:1030B000D1F804E0C968DCF82030DCF8202022F0E8
:1030C0000102CCF82020DCF8182022F0F00242EABD
:1030D000011123F00A0242EA0E02CCF81810CCF8D3
:1030E0002020DCF8081041F0570121F02001ADE765
:1030F000D1E901E3C968DCF8082043EA0E0322F4B1
:103100007F4243EA01211143CCF80810DCF8081093
:1031100041F480419AE700BF01229AE7704700001E
:1031200070B504460068C5680669B10716D515F084
:10313000020113D06FF00201016101212177806942
:10314000800703D02046FFF7E9FF05E0204600F0A6
:103150008FF8204600F08EF800202077700719D5F0
:1031600015F0040016D020686FF0040101610221FF
:103170002177806910F4407F04D02046FFF7CEFF0E
:1031800006E000BF204600F073F8204600F072F819
:1031900000202077300717D515F0080014D02068DC
:1031A0006FF00801016104212177C069800703D015
:1031B0002046FFF7B3FF05E0204600F059F820460F
:1031C00000F058F800202077F00619D515F010000F
:1031D00016D020686FF01001016108212177C069C5
:1031E00010F4407F04D02046FFF798FF06E000BFB0
:1031F000204600F03DF8204600F03CF80020207703
:10320000F00718BF15F0010002D1300609D412E012
:1032100020686FF001010161204600F02DF83006B2
:1032200009D515F0800006D020686FF0800101619B
:103230002046FFF799FD700609D515F0400006D02D
:1032400020686FF040010161204600F027F8B006C9
:1032500058BF70BD15F0200008D021686FF0200223
:1032600020460A61BDE87040FFF780BD70BD0000D8
:103270007047000070470000006840F60041C4F24B
:103280000001884208D040F60001C4F200018842E3
:1032900018BF7047FFF7EEB8FDF774BC7047000029
:1032A000FEE70000002808BF704770B53221018298
:1032B00049F69A11C3F6997141610021C0E90011E4
:1032C00081600546002000F0ADF80446002000F0C3
:1032D000A9F80444002000F0A5F80444002000F000
:1032E000A1F80444002000F09DF80444002000F000
:1032F00099F80444002000F095F80444002000F000
:1033000091F80444002000F08DF80444002000F0FF
:1033100089F80444002000F085F80444002000F0FF
:1033200081F80444002000F07DF80444002000F0FF
:1033300079F80444002000F075F80444002000F0FF
:1033400071F80444002000F06DF80444002000F0FF
:1033500069F80444002000F065F80444002000F0FF
:1033600061F84CF6CD462044CCF6CC46A0FB0601D5
:103370000809A881012000F055F80446012000F05A
:1033800051F80444012000F04DF80444012000F0FD
:1033900049F80444012000F045F80444012000F0FD
:1033A00041F80444012000F03DF80444012000F0FD
:1033B00039F80444012000F035F80444012000F0FD
:1033C00031F80444012000F02DF80444012000F0FD
:1033D00029F80444012000F025F80444012000F0FD
:1033E00021F80444012000F01DF80444012000F0FD
:1033F00019F80444012000F015F80444012000F0FD
:1034000011F80444012000F00DF80444012000F0FC
:1034100009F82044A0FB06010809E881BDE87040D6
:1034200070470000F0B585B040F2C074C2F20004ED
:103430000646002520460495FEF7A8FD2068C76AC9
:10344000C16A21F47001C16201200290072003903B
:1034500001A920460196FEF7E5FA00BB40F2C070D4
:10346000C2F20000FEF7E4FC10B1002517E000BF37
:1034700040F2C070C2F200000A21FEF759FC08B108
:10348000002506E040F2C070C2F20000FEF768FBC3
:10349000054640F2C070C2F20000FEF777FD2168D9
:1034A000A8B2CF6205B0F0BD002808BF7047B0B524
:1034B00004460020FFF7B6FF208001200125FFF71A
:1034C000B1FFA2896080002A04BFA5810122E189A1
:1034D00001EE102A002904BF0121E1812388228AFC
:1034E00000EE103AB8EE400AB8EE411A02EE102A89
:1034F000B8EE422A30EE410A82EE013A80EE011A1D
:1035000000EE100A04EE101AB8EE400AB8EE444A73
:1035100030EE440A80EE040A82EE042A00210020E4
:10352000B1EE434AB4EE431AF1EE10FAB8BF0121EE
:10353000C907B0EE415AB4EE441A9FED323A18BFB3
:10354000B0EE435AF1EE10FAB4EE420AC8BFB0EE44
:10355000451AB1EE424AF1EE10FAB8BF0120B0EEC2
:10356000402AC00718BFB0EE432AB4EE440AF1EE79
:1035700010FAC8BFB0EE420AB7EE002AB4EE421A03
:10358000F1EE10FAB0EE423A0ADCBFEE004AB4EEB9
:10359000441AB0EE413AF1EE10FAB8BFB0EE443A38
:1035A000B4EE420AF1EE10FA0ADCBFEE001AB4EEF5
:1035B000410AB0EE402AF1EE10FAB8BFB0EE412A4F
:1035C000B5EE403AB0EE431AB1EE430AF1EE10FA0E
:1035D000B8BFB0EE401A23EE010AB1EE421AB5EEC2
:1035E000402AB0EE423AF1EE10FAB8BFB0EE413ADE
:1035F00022EE031A84ED010A84ED021ABDE8B04000
:10360000704700BF00000000FDF72CB940F25440A5
:10361000C2F20000002101700171C0E90211C0E98D
:103620000411C0E90611417101844184416270476F
:10363000F0B581B040F25444C2F20004606A042143
:10364000013060620020C4F20200FEF701FF217821
:10365000032900F2BB80DFE801F0036B0D4B00BFD4
:10366000002840F0B38001202070606AA060002034
:103670002071ABE0002800F0A980607904EB4000E5
:10368000008C072813D8617904F1280202EB01119C
:10369000002301F81030617902EB011101EB4001C8
:1036A00003224A706179013004EB410108842079DA
:1036B000012840F0878000202071617904EB4101EE
:1036C000098C072912D8627904F1280303EB02124E
:1036D00002F81100627903EB021202EB41020223AD
:1036E00053706279013104EB4202118420706DE065
:1036F00000283FD0E068616A081AB0F5FA7F65D308
:1037000000212170607904EB4000008C07285DD80F
:10371000627904F1280303EB021202F810106179B8
:10372000012203EB011101EB40014A7043E000BFAD
:1037300030B3207901281AD100212171607904EB7E
:103740004000008C072812D8627904F1280303EBAB
:10375000021202F810106179012203EB011101EB52
:1037600040014A706179013004EB41010884002076
:1037700020702BE001202070616A2071A16025E09B
:10378000A068616A081A142820D30220207060798A
:1037900004EB4000008C072818D8617904F1280256
:1037A00002EB0111002301F81030617902EB0111E5
:1037B00001EB40014B706179013004EB4101088459
:1037C00004E000BF03202070606AE060607904EBD1
:1037D00040052E8C617981F001016171E6B104EB45
:1037E000001000F1290706E0002918BF8847013EB4
:1037F00007F1020710D039780329F8D817F8010C1F
:10380000DFE801F004080206A169EDE72169EBE7B2
:10381000E169E9E76169E7E70020288401B0F0BDCC
:1038200040F25441C2F200014861704740F25441F5
:10383000C2F200018861704740F25441C2F20001B7
:103840000861704740F25441C2F20001C8617047FC
:103850002DE9F04740F6F408C2F200080746B8F830
:103860000000B8F802100138013940F2004482B279
:103870008BB200200021C4F2020400F0E5FE2046D5
:103880004FF480510022FEF7E9FD20464FF400512D
:103890000122FEF7E3FDB8F8020000285ED0F8210F
:1038A00001EA172AFC2101EAD706FA00B8F800104D
:1038B0004FF00009D7B204E0002109F10109814568
:1038C0004CD20029F8D0002520464FF48051002228
:1038D000FEF7C4FD20464FF400510122FEF7BEFD65
:1038E000504601F097FC20464FF480510122FEF72C
:1038F000B5FD20464FF480510022FEF7AFFD204673
:103900004FF400510122FEF7A9FD304601F082FC80
:1039100020464FF480510122FEF7A0FD20464FF4CF
:1039200080510022FEF79AFD20464FF400510122FB
:10393000FEF794FD384601F06DFC20464FF48051AF
:103940000122FEF78BFDB8F8001001358D42BBD384
:10395000B8F8020009F101098145B2D320464FF4BD
:1039600080510122BDE8F047FEF778BD2DE9F04F08
:1039700083B005460C46111AB2EB050B18BF4FF089
:10398000FF3B00290E4648BF4E420129A3EB04002D
:103990004FF00107A8BFBB46191B18BF4FF0FF31FE
:1039A0000028029044BF434202930128B8BF0F464B
:1039B00002984FF0000A864288BF304601900130DD
:1039C0004FF000094FF00008009000BFA8B2A1B26C
:1039D00000F01AF80299019B09EB06005144B0EB84
:1039E0000309D4BF81465D44B1EB030AD4BF8A46C4
:1039F0003C4408F1010800991FFA88F08142E5D2A1
:103A000003B0BDE8F08F000080B502460B4600F021
:103A10001BFE40F23450C2F200000088BDE8804036
:103A200001F082BAB0B586B000200590CDE9030060
:103A3000CDE90100009043F63000C4F202000168B5
:103A400040F2004441F0020101600068C4F2020447
:103A500000F00200009000984FF4704001900120A7
:103A6000CDE902000320049001A92046FEF720FCC6
:103A700020464FF480510122FEF7F0FC20464FF41F
:103A800080410122FEF7EAFC20464FF4004101226A
:103A9000FEF7E4FC20464FF480410022FEF7DEFCF6
:103AA000642008F051FC20464FF480410122FEF7CB
:103AB000D5FC322008F048FC20464FF4805100220B
:103AC000FEF7CCFC20464FF400510022FEF7C6FC66
:103AD000F72001F09FFB20464FF480510122FEF7B2
:103AE000BDFC20464FF480510022FEF7B7FC204673
:103AF0004FF400510122FEF7B1FCA92001F08AFB2E
:103B000020464FF480510122FEF7A8FC20464FF4D6
:103B100080510022FEF7A2FC20464FF40051012202
:103B2000FEF79CFC512001F075FB20464FF48051BC
:103B30000122FEF793FC20464FF480510022FEF74D
:103B40008DFC20464FF400510122FEF787FC2C200B
:103B50002C2501F05FFB20464FF480510122FEF737
:103B60007DFC20464FF480510022FEF777FC204672
:103B70004FF400510122FEF771FC822001F04AFB54
:103B800020464FF480510122FEF768FC20464FF496
:103B900080510022FEF762FC20464FF400510022C3
:103BA000FEF75CFCC02001F035FB20464FF480514D
:103BB0000122FEF753FC20464FF480510022FEF70D
:103BC0004DFC20464FF400510122FEF747FC112026
:103BD00001F020FB20464FF480510122FEF73EFC0D
:103BE00020464FF480510022FEF738FC20464FF467
:103BF00000510122FEF732FC092001F00BFB2046A8
:103C00004FF480510122FEF729FC20464FF48051E9
:103C10000022FEF723FC20464FF400510022FEF75D
:103C20001DFCC12001F0F6FA20464FF4805101221C
:103C3000FEF714FC20464FF480510022FEF70EFCE4
:103C400020464FF400510122FEF708FC412001F00C
:103C5000E1FA20464FF480510122FEF7FFFB204697
:103C60004FF480510022FEF7F9FB20464FF400513B
:103C70000022FEF7F3FBC52001F0CCFA20464FF4FA
:103C800080510122FEF7EAFB20464FF480510022CA
:103C9000FEF7E4FB20464FF400510122FEF7DEFB65
:103CA000002001F0B7FA20464FF480510122FEF7C0
:103CB000D5FB20464FF480510022FEF7CFFB204673
:103CC0004FF400510122FEF7C9FB0A2001F0A2FACD
:103CD00020464FF480510122FEF7C0FB20464FF4EE
:103CE00080510022FEF7BAFB20464FF4005101221A
:103CF000FEF7B4FB802001F08DFA20464FF480518E
:103D00000122FEF7ABFB20464FF480510022FEF764
:103D1000A5FB20464FF400510022FEF79FFBB12087
:103D200001F078FA20464FF480510122FEF796FB0D
:103D300020464FF480510022FEF790FB20464FF4BE
:103D400000510122FEF78AFBB02001F063FA204601
:103D50004FF480510122FEF781FB20464FF4805141
:103D60000022FEF77BFB20464FF400510122FEF7B4
:103D700075FB112001F04EFA20464FF480510122CC
:103D8000FEF76CFB20464FF480510022FEF766FBE5
:103D900020464FF400510022FEF760FBB42001F0F2
:103DA00039FA20464FF480510122FEF757FB204696
:103DB0004FF480510022FEF751FB20464FF4005192
:103DC0000122FEF74BFB022001F024FA20464FF4BB
:103DD00080510122FEF742FB20464FF48051002221
:103DE000FEF73CFB20464FF400510022FEF736FB65
:103DF000B62001F00FFA20464FF480510122FEF761
:103E00002DFB20464FF480510022FEF727FB204671
:103E10004FF400510122FEF721FB022001F0FAF9D4
:103E200020464FF480510122FEF718FB20464FF444
:103E300080510022FEF712FB20464FF40051012270
:103E4000FEF70CFB422001F0E5F920464FF48051CB
:103E50000122FEF703FB20464FF480510022FEF7BB
:103E6000FDFA20464FF400510022FEF7F7FAB72082
:103E700001F0D0F920464FF480510122FEF7EEFA0E
:103E800020464FF480510022FEF7E8FA20464FF416
:103E900000510122FEF7E2FAC62001F0BBF92046EC
:103EA0004FF480510122FEF7D9FA20464FF4805199
:103EB0000022FEF7D3FA20464FF400510022FEF70D
:103EC000CDFABE2001F0A6F920464FF48051012220
:103ED000FEF7C4FA20464FF480510022FEF7BEFAE6
:103EE00020464FF400510122FEF7B8FA002001F0FD
:103EF00091F920464FF480510122FEF7AFFA204697
:103F00004FF480510022FEF7A9FA20464FF40051E9
:103F10000122FEF7A3FA042001F07CF920464FF4B9
:103F200080510122FEF79AFA20464FF48051002278
:103F3000FEF794FA20464FF400510022FEF78EFA65
:103F4000E92001F067F920464FF480510122FEF785
:103F500085FA20464FF480510022FEF77FFA204672
:103F60004FF400510122FEF779FA002001F052F9D6
:103F700020464FF480510122FEF770FA20464FF49C
:103F800080510022FEF76AFA20464FF400510022C9
:103F9000FEF764FA362001F03DF920464FF48051D7
:103FA0000122FEF75BFA20464FF480510022FEF713
:103FB00055FA20464FF400510122FEF74FFA6820CF
:103FC00001F028F920464FF480510122FEF746FA0D
:103FD00020464FF480510022FEF740FA20464FF46D
:103FE00000510022FEF73AFA3A2001F013F9204678
:103FF0004FF480510122FEF731FA20464FF48051F0
:104000000022FEF72BFA20464FF400510122FEF762
:1040100025FA662001F0FEF820464FF48051012277
:10402000FEF71CFA20464FF480510022FEF716FAE4
:1040300020464FF400510022FEF710FAE02001F074
:10404000E9F820464FF480510122FEF707FA204696
:104050004FF480510022FEF701FA20464FF4005140
:104060000122FEF7FBF9002001F0D4F820464FF4BE
:1040700080510122FEF7F2F920464FF480510022D0
:10408000FEF7ECF920464FF400510122FEF7E6F965
:10409000072001F0BFF820464FF480510122FEF7BF
:1040A000DDF920464FF480510022FEF7D7F9204673
:1040B0004FF400510122FEF7D1F9102001F0AAF8C7
:1040C00020464FF480510122FEF7C8F920464FF4F4
:1040D00080510022FEF7C2F920464FF40051012220
:1040E000FEF7BCF9092001F095F820464FF4805105
:1040F0000122FEF7B3F920464FF480510022FEF76B
:10410000ADF920464FF400510122FEF7A7F9172020
:1041100001F080F820464FF480510122FEF79EF90D
:1041200020464FF480510022FEF798F920464FF4C4
:1041300000510122FEF792F90B2001F06BF82046A6
:104140004FF480510122FEF789F920464FF4805147
:104150000022FEF783F920464FF400510122FEF7BA
:104160007DF9412001F056F820464FF4805101229C
:10417000FEF774F920464FF480510022FEF76EF9E5
:1041800020464FF400510122FEF768F9892001F022
:1041900041F820464FF480510122FEF75FF9204696
:1041A0004FF480510022FEF759F920464FF4005198
:1041B0000122FEF753F94B2001F02CF820464FF472
:1041C00080510122FEF74AF920464FF48051002227
:1041D000FEF744F920464FF400510122FEF73EF964
:1041E0000A2001F017F820464FF480510122FEF713
:1041F00035F920464FF480510022FEF72FF9204672
:104200004FF400510122FEF729F90C2001F002F8C9
:1042100020464FF480510122FEF720F920464FF44A
:1042200080510022FEF71AF920464FF40051012276
:10423000FEF714F90E2000F0EDFF20464FF48051F8
:104240000122FEF70BF920464FF480510022FEF7C1
:1042500005F920464FF400510122FEF7FFF818201F
:1042600000F0D8FF20464FF480510122FEF7F6F807
:1042700020464FF480510022FEF7F0F820464FF41C
:1042800000510122FEF7EAF81B2000F0C3FF204690
:104290004FF480510122FEF7E1F820464FF480519F
:1042A0000022FEF7DBF820464FF400510122FEF712
:1042B000D5F80F2000F0AEFF20464FF480510122C8
:1042C000FEF7CCF820464FF480510022FEF7C6F8E6
:1042D00020464FF400510022FEF7C0F8E12000F024
:1042E00099FF20464FF480510122FEF7B7F820468F
:1042F0004FF480510022FEF7B1F820464FF40051F0
:104300000122FEF7ABF8002000F084FF20464FF4B6
:1043100080510122FEF7A2F820464FF4805100227E
:10432000FEF79CF820464FF400510122FEF796F864
:10433000172000F06FFF20464FF480510122FEF756
:104340008DF820464FF480510022FEF787F8204672
:104350004FF400510122FEF781F81A2000F05AFFB5
:1043600020464FF480510122FEF778F820464FF4A2
:1043700080510022FEF772F820464FF400510122CE
:10438000FEF76CF8042000F045FF20464FF4805102
:104390000122FEF763F820464FF480510022FEF719
:1043A0005DF820464FF400510122FEF757F80E2029
:1043B00000F030FF20464FF480510122FEF74EF806
:1043C00020464FF480510022FEF748F820464FF473
:1043D00000510122FEF742F8062000F01BFF2046A4
:1043E0004FF480510122FEF739F820464FF48051F6
:1043F0000022FEF733F820464FF400510122FEF769
:104400002DF82F2000F006FF20464FF480510122A6
:10441000FEF724F820464FF480510022FEF71EF8E4
:1044200020464FF400510122FEF718F8452000F015
:10443000F1FE20464FF480510122FEF70FF820468E
:104440004FF480510022FEF709F820464FF4005146
:104450000122FEF703F8432000F0DCFE20464FF473
:1044600080510122FDF7FAFF20464FF480510022CF
:10447000FDF7F4FF20464FF400510122FDF7EEFF57
:10448000022000F0C7FE20464FF480510122FDF7C4
:10449000E5FF20464FF480510022FDF7DFFF204664
:1044A0004FF400510122FDF7D9FF0A2000F0B2FEBF
:1044B00020464FF480510122FDF7D0FF20464FF4F3
:1044C00080510022FDF7CAFF20464FF4005101221F
:1044D000FDF7C4FF092000F09DFE20464FF48051F7
:1044E0000122FDF7BBFF20464FF480510022FDF76B
:1044F000B5FF20464FF400510122FDF7AFFF3220F7
:1045000000F088FE20464FF480510122FDF7A6FFFF
:1045100020464FF480510022FDF7A0FF20464FF4C3
:1045200000510122FDF79AFF362000F073FE20466D
:104530004FF480510122FDF791FF20464FF4805146
:104540000022FDF78BFF20464FF400510122FDF7BA
:1045500085FF0F2000F05EFE20464FF480510122BF
:10456000FDF77CFF20464FF480510022FDF776FFD7
:1045700020464FF400510022FDF770FF112000F09B
:1045800049FE20464FF480510122FDF767FF782055
:1045900007F0DAFE20464FF480510022FDF75EFF5F
:1045A00020464FF400510022FDF758FF292000F06B
:1045B00031FE20464FF480510122FDF74FFF40F6B7
:1045C000F400C2F200002A2141812B2181814FF4A5
:1045D000A07101804FF4F0710581418020464FF4B5
:1045E00080510022FDF73AFF20464FF4005100228F
:1045F000FDF734FF362000F00DFE20464FF48051C9
:104600000122FDF72BFF20464FF480510022FDF7D9
:1046100025FF20464FF400510122FDF71FFF08201F
:1046200000F0F8FD20464FF480510122FDF716FFFF
:1046300020464FF400410122FDF710FF06B0B0BD47
:1046400002460B46AFF300802DE9F04740F6F40A2E
:1046500040F20044C2F2000AC4F20204174689463E
:104660009AF80A60054620464FF480510022984689
:10467000FDF7F4FE20464FF400510022FDF7EEFE58
:10468000304600F0C7FD20464FF480510122FDF76F
:10469000E5FE20464FF4805100222E0AFDF7DEFE93
:1046A00020464FF400510122FDF7D8FE304600F0BD
:1046B000B1FD20464FF480510122FDF7CFFE204688
:1046C0004FF480510022FDF7C9FE20464FF40051FF
:1046D0000122FDF7C3FEE8B200F09CFD20464FF436
:1046E00080510122FDF7BAFE20464FF4805100228E
:1046F0003D0AFDF7B3FE20464FF400510122FDF7BD
:10470000ADFE284600F086FD20464FF48051012280
:10471000FDF7A4FE20464FF480510022FDF79EFED7
:1047200020464FF400510122FDF798FEF8B200F048
:1047300071FD20464FF480510122FDF78FFE9AF85B
:104740000C5020464FF480510022FDF787FE204692
:104750004FF400510022FDF781FE284600F05AFD7B
:1047600020464FF480510122FDF778FE20464FF499
:10477000805100224FEA1925FDF770FE20464FF4C4
:1047800000510122FDF76AFE284600F043FD204655
:104790004FF480510122FDF761FE20464FF4805115
:1047A0000022FDF75BFE20464FF400510122FDF789
:1047B00055FE5FFA89F000F02DFD20464FF4805140
:1047C0000122FDF74BFE20464FF4805100224FEAB4
:1047D0001825FDF743FE20464FF400510122FDF756
:1047E0003DFE284600F016FD20464FF48051012280
:1047F000FDF734FE20464FF480510022FDF72EFED7
:1048000020464FF400510122FDF728FE5FFA88F0A0
:1048100000F000FD20464FF480510122FDF71EFEFE
:104820009AF8085020464FF480510022FDF716FEFA
:1048300020464FF400510022FDF710FE284600F0FC
:10484000E9FC20464FF480510122BDE8F047FDF716
:1048500005BE00002DE9F04F85B00F4640F23451FF
:10486000C2F200018346DDE90E050988109C019122
:10487000A0F120080BEB5500791901380139994650
:10488000924682B28BB2584639466E080497FFF7BB
:10489000DBFE039544B340F23454002DC2F2000411
:1048A00018BF012D28D00C2D5FFA88F040F00E8241
:1048B0004EF6532800EB4009C0F6020818F829709C
:1048C0000020002506E000BF01357F08B542E8B2B0
:1048D00080F0DC80F907A4F800A0F5D058440499D2
:1048E00080B2FFF791F8EFE740F23454002DC2F2A6
:1048F000000418BF012D13D140F6F400C2F20000ED
:1049000001884088019F013901388AB283B20020B2
:104910000021278005B0BDE8F04FFFF795BE00BF2E
:104920000C2D5FFA88F040F0FD814EF6532800EB25
:10493000400BC0F6020818F82B500027E807504635
:1049400008BF484600F0F0FA0137BE424FEA55056D
:10495000F4D808EB8B0898F801500027E807504678
:1049600008BF484600F0E0FA0137BE424FEA55055D
:10497000F4D898F802500027E807504608BF484688
:1049800000F0D2FA0137BE424FEA5505F4D898F844
:1049900003500027E807504608BF484600F0C4FA15
:1049A0000137BE424FEA5505F4D898F80450002765
:1049B000E807504608BF484600F0B6FA0137BE4245
:1049C0004FEA5505F4D898F805500027E8075046F7
:1049D00008BF484600F0A8FA0137BE424FEA550525
:1049E000F4D898F806500027E807504608BF484614
:1049F00000F09AFA0137BE424FEA5505F4D898F80C
:104A000007500027E807504608BF484600F08CFAD8
:104A10000137BE424FEA5505F4D898F808500027F0
:104A2000E807504608BF484600F07EFA0137BE420C
:104A30004FEA5505F4D898F809500027E807504682
:104A400008BF484600F070FA0137BE424FEA5505EC
:104A5000F4D898F80A500027E807504608BF48469F
:104A600000F062FA0137BE424FEA5505F4D898F8D3
:104A70000B500027E807504608BF484600F054FA9C
:104A80000137BE424FEA5505F4D835E7049808EBE4
:104A9000890999F80170411C00201FFA81F800254E
:104AA00005E000BF01357F08B542E8B20AD2F90738
:104AB000A4F800A0F6D0584480B24146FEF7A4FF07
:104AC000F0E700BF049899F80270811C00201FFADB
:104AD00081F8002505E000BF01357F08B542E8B246
:104AE0000AD2F907A4F800A0F6D0584480B2414693
:104AF000FEF78AFFF0E700BF049899F80370C11C25
:104B000000201FFA81F8002505E000BF01357F086D
:104B1000B542E8B20AD2F907A4F800A0F6D058448A
:104B200080B24146FEF770FFF0E700BF049899F8A5
:104B30000470011D00201FFA81F8002505E000BF68
:104B400001357F08B542E8B20AD2F907A4F800A0FF
:104B5000F6D0584480B24146FEF756FFF0E700BF5A
:104B6000049899F80570411D00201FFA81F800256E
:104B700005E000BF01357F08B542E8B20AD2F90767
:104B8000A4F800A0F6D0584480B24146FEF73CFF9E
:104B9000F0E700BF049899F80670811D00201FFA05
:104BA00081F8002505E000BF01357F08B542E8B275
:104BB0000AD2F907A4F800A0F6D0584480B24146C2
:104BC000FEF722FFF0E700BF049899F80770C11DB7
:104BD00000201FFA81F8002505E000BF01357F089D
:104BE000B542E8B20AD2F907A4F800A0F6D05844BA
:104BF00080B24146FEF708FFF0E700BF049899F83D
:104C0000087000F1080100201FFA81F8002504E077
:104C100001357F08B542E8B20AD2F907A4F800A02E
:104C2000F6D0584480B24146FEF7EEFEF0E700BFF2
:104C3000049899F8097000F1090100201FFA81F821
:104C4000002504E001357F08B542E8B20AD2F90731
:104C5000A4F800A0F6D0584480B24146FEF7D4FE36
:104C6000F0E700BF049899F80A7000F10A010020EB
:104C70001FFA81F8002504E001357F08B542E8B24B
:104C80000AD2F907A4F800A0F6D0584480B24146F1
:104C9000FEF7BAFEF0E700BF049899F80B7000F138
:104CA0000B0100201FFA81F8002505E001357F087F
:104CB000B542E8B2BFF420AEF907A4F800A0F5D0E1
:104CC000584480B24146FEF79FFEEFE74EF6C761BB
:104CD000C0F602014FF0000901EB0010029005E060
:104CE000039809F1010981453FF406AE02980025B9
:104CF00010F80980049800EB090100208FB205E04C
:104D000001354FEA5808B542E8B2E9D25FEAC87106
:104D1000A4F800A0F4D0584480B23946FEF774FEDF
:104D2000EEE700BF4EF6C761C0F60201002501EBB9
:104D3000001800BF18F80570002400BFF80750469F
:104D400008BF484600F0F0F80134A6424FEA570782
:104D5000F4D80398013540F234548542C2F200047D
:104D6000E8D1C9E5002B08BF70472DE9F04F87B0A7
:104D7000109F0446581E049078080590981E9A4685
:104D800091460D46039042F21078002000210691D2
:104D90001DE000BF01220692059A40F2940300FB39
:104DA000024040F23452C2F20002C2F2000341F06B
:104DB000300112881B88C9B2CDE9001780B229469C
:104DC00000260296FFF746FDD345584664D000F111
:104DD000010B5FFA8BF18A4502D101212AE000BF65
:104DE000039AC143121AD2B2BE46032A0AEB010249
:104DF00002D201210AE000BF02F0FC0300260121DB
:104E00000436F7B29F4201FB08F1F9D112F0030218
:104E100077460FD0012A03D101EB8101490009E057
:104E20004FF47A734B43022A4FF0640208BF01FB30
:104E300002F31946B9FBF1F14CF6CD42CCF6CC4267
:104E4000A1FB0223DA08069B02EB8202002BA1EBF6
:104E50004201A1D1049A82429EDD00299AD105998E
:104E60004FF0000C00FB014040F23451C2F200014F
:104E70000A8840F29401C2F200010B88202100262A
:104E8000CDE9001780B229460696CDF808C0FFF795
:104E9000E1FCD34558469AD107B0BDE8F04F7047C2
:104EA0002DE9F04F83B01C780D46A4F12001C9B262
:104EB0005E2936D840F6F40AC2F2000A0646BAF86D
:104EC0000000B0422DD9BAF80200A84229D940F218
:104ED000940990464FEA520B5F1EC2F2000900BFD0
:104EE00040F23450C2F200000288B9F80030E0B25B
:104EF0000C9CCDE90008B0B229460294FFF7AAFC49
:104F0000BC78A4F12000C0B25E280AD85E44BAF88A
:104F10000000B1B2884204D9BAF802000137A842B1
:104F2000DED803B0BDE8F08FB0B540F20044C4F263
:104F30000204054620464FF480510022FDF78EFA08
:104F400020464FF400510122FDF788FAF82000EACC
:104F5000152000F05FF920464FF480510122FDF743
:104F60007DFA20464FF480510022FDF777FA204663
:104F70004FF400510122FDF771FAFC2000EAD50040
:104F800000F048F920464FF480510122FDF766FAFF
:104F900020464FF480510022ED00FDF75FFA2046D5
:104FA0004FF400510122FDF759FAE8B200F032F94E
:104FB00020464FF480510122BDE8B040FDF74EBAC3
:104FC000FBF7D4BCB0B584B040F2C07042F200012F
:104FD00001230024C2F20000C4F201010125C0F641
:104FE000007303944FF48032057680F82040C0E9C6
:104FF0000A34C56180F8304080E81600C0E90344F7
:105000004561FCF7B1FD002818BFFCF741F940F2FB
:10501000C070C2F200006946CDE900450294FCF779
:1050200001FD002818BFFCF733F904B0B0BD000043
:1050300010B545F2E5304FF20852C0F60000C0F658
:105040000202002121F082FF40F27814C2F2000433
:10505000206044F6C1704AF2A832C0F60000C0F6E3
:105060000302002121F072FF606043F209604AF2FE
:10507000F002C0F60000C0F60302002121F066FF36
:10508000A06010BD80B586B0002043F630010590C9
:10509000CDE90300CDE901000090C4F202010A68E5
:1050A00042F080020A600A6802F080020092009AD0
:1050B00000900A6842F001020A60096801F00101EB
:1050C000009100990421CDE90110012003900020F6
:1050D000C4F2020001A9FDF7EBF806B080BD0000A4
:1050E00080B540F6080043F20001C2F20000C4F2AD
:1050F00001014FF48272002380E80E0000F11401D8
:105100004FF4007C4FF0100E81E808500A21C0E9EE
:105110000333C0E90833C0E90A31FDF793FD0028E5
:1051200008BF80BDBDE88040FCF7B2B880B586B04E
:1051300040F6A8000021C2F2000040F6004240F212
:10514000E73C0591CDE90311CDE90011C4F200025D
:105150005323C0E9021C01618021C0E90023816161
:10516000FDF764FE002818BFFCF792F84FF480505A
:10517000029040F6A800C2F2000002A9FDF7FEFE70
:10518000002818BFFCF784F840F6A800C2F200001F
:105190006946FDF7EDFD002818BFFCF779F806B069
:1051A00080BD0000FEE70000FEE7000000000000F8
:1051B000EFF30980BFF36F8F154B1A681EF0100FC5
:1051C00008BF20ED108A20E9F04F10602DE909009A
:1051D0004FF0500080F31188BFF34F8FBFF36F8FF4
:1051E00027F0F4FF4FF0000080F31188BDE80900BC
:1051F00019680868B0E8F04F1EF0100F08BFB0EC57
:10520000108A80F30988BFF36F8F704700BF00BF1B
:105210008401002042F69C02C2F2010240F608011D
:105220001378C2F2000109682BB90B6843F0400300
:105230000B600123137040F2010CCFF6F07C634643
:105240008A68920756D48A6892075CBF8A685FEAC8
:1052500082724FD48A6892075CBF8A685FEA827262
:1052600048D48A6892075CBF8A685FEA827241D438
:105270008A6892075CBF8A685FEA82723AD48A6859
:1052800092075CBF8A685FEA827233D48A689207A9
:105290005CBF8A685FEA82722CD48A6892075CBF1E
:1052A0008A685FEA827225D48A6892075CBF8A683E
:1052B0005FEA82721ED48A6892075CBF8A685FEADE
:1052C000827217D48A6892075CBF8A685FEA82722A
:1052D00010D48A6892075CBF8A685FEA827209D438
:1052E0008A6892075CBF8A685FEA827202D41933C7
:1052F000A6D15AE0C8608868C00759D18868C0073D
:1053000004BF88685FEAC07052D18868C00704BFD4
:1053100088685FEAC0704BD18868C00704BF88689E
:105320005FEAC07044D18868C00704BF88685FEA3C
:10533000C0703DD18868C00704BF88685FEAC0704C
:1053400036D18868C00704BF88685FEAC0702FD173
:105350008868C00704BF88685FEAC07028D1886881
:10536000C00704BF88685FEAC07021D18868C007A1
:1053700004BF88685FEAC0701AD18868C00704BF9C
:1053800088685FEAC07013D18868C00704BF886866
:105390005FEAC0700CD18868C00704BF88685FEA04
:1053A000C07005D11CF1190CA5D1FF20C0B2704707
:1053B000C868C0B270470000000000000000000094
:1053C000074B19680868B0E8F04F80F30988BFF30D
:1053D0006F8F4FF0000080F31188704700BF00BF4F
:1053E00084010020FBF7E4B980B54EF21000CEF244
:1053F0000000006828F0BAFC012808BF80BDBDE8A5
:10540000804028F00DB8000070B592B006AC204680
:105410003021FBF7A3F8002543F640000595CDE9C0
:105420000355CDE901550095C4F20200016802263A
:1054300041F080510160006800F0805000900098B9
:1054400047F200000095C4F20000016841F4804179
:105450000160006800F480400090009801200690F0
:105460004FF4803007904FF480000D9008200E908C
:105470004FF4A870CDE90F060420119020460C9639
:10548000FDF70AFA10B172B6FEE700BF0F20CDE9B2
:1054900001064FF4A05004904FF48050059001A8ED
:1054A00005210395FDF7DAF810B172B6FEE700BFEB
:1054B00012B070BD4EF68850CEF20000016841F483
:1054C000700101607047000040F66000C2F2000009
:1054D000FDF726BE40F6A800C2F20000FDF720BE90
:1054E000B0B540F6FF3E0568C4F2000E40F2004C35
:1054F0007045C4F2010C25DCB0F1804F2FD040F292
:105500000043C4F20003984229D040F60003C4F2DD
:105510000003984223D041F6FF73C4F2000398427F
:1055200028DC70453ADCB0F1804F5BD040F200439C
:10553000C4F20003984255D040F60003C4F20003C1
:105540004EE000BF40F60043C4F20003984206D08C
:10555000604504D00023C4F201039842DBD14B68BC
:1055600025F0700243EA020541F6FF73C4F200031E
:105570009842D6DD43F6FF73C4F2010398421FDC64
:1055800042F20003C4F2000398422BD00023C4F27D
:105590000103984226D0604524D028E040F600431D
:1055A000C4F2000398421DD041F60003C4F2000388
:1055B000984217D041F60043C4F2000310E000BF48
:1055C00044F20003C4F2010398420BD044F60003F6
:1055D000C4F20103984205D044F20043C4F201032F
:1055E000984204D1CB6825F4407243EA02050A6868
:1055F0008C684B69C46240F480648262644504BF75
:1056000009690163026825F0800142F00402194330
:105610000260012242610160B0BD00002DE9F04F3F
:1056200081B0804640F234500F46C2F200004FF481
:1056300078411D461646DDE90A4B01804FF0010A0C
:105640004CA32820A0211022CDF800A04FF0100973
:10565000FFF726FC48A37820A0211022CDF800A057
:10566000FFF71EFC45A32820B4211022CDF800A08E
:10567000FFF716FC42A37820B4211022CDF800A039
:10568000FFF70EFC3FA32820C8211022CDF800A070
:10569000FFF706FC3CA37820C8211022CDF800A01B
:1056A000FFF7FEFB39A32820DC211022CDF800A053
:1056B000FFF7F6FB36A37820DC211022CDF800A0FE
:1056C000FFF7EEFB33A32820F0211022CDF800A035
:1056D000FFF7E6FB4020A02142460423CDF80090CE
:1056E000FFF740FB9020A0213A460423CDF800901C
:1056F000FFF738FB4020B42132460423CDF8009058
:10570000FFF730FB9020B4212A460423CDF8009007
:10571000FFF728FB4020C82122460423CDF8009043
:10572000FFF720FB9020C8215A460423CDF80090B3
:10573000FFF718FB0C9A4020DC210423CDF80090E1
:10574000FFF710FB0D9A9020DC210423CDF8009088
:10575000FFF708FB40F6F400C2F2000001880E9A41
:1057600060200323CDF80090FFF7FCFA01B0BDE8FC
:10577000F08F00BF78313A0079313A0078323A0040
:1057800079323A0078333A0079333A0078343A0083
:1057900079343A006661632069733A0000000000C2
:1057A0002DE9F04F81B02DED0A8B98B040F23459BD
:1057B000C2F200091F20A9F8000040F29400C2F2D2
:1057C00000004FF0FF3101804FF6FF704FF6FF757C
:1057D000FEF73EF84FF478484FF6FF70A9F80080C6
:1057E000FEF736F8002701240FF62C330A20282173
:1057F0001022A9F800700094FFF752FB0FF638331F
:105800000A20382110220094FFF74AFB0FF64C3390
:105810000A20482110220094FFF742FB0FF65C3368
:105820000A20582110220094FFF73AFB0820142187
:1058300021221423A9F80080FEF798F814200821EB
:1058400014222123FEF792F815201521FEF7DCF82B
:1058500013201521FEF7D8F815201321FEF7D4F8F0
:1058600013201321FEF7D0F8B9F8002014201421DA
:105870000623009708F056FF40F2580B9FED148B5B
:105880009FED159B9FED16ABC2F2000B0DF1400A88
:10589000B6EE00BAB0EE00CA002600248BF81870ED
:1058A000CBF81C70DBF80810012088479BF8180023
:1058B00000F0C001402917D00A2006F045FDB4F5DC
:1058C0007A7F04F10104EDD300F0D8BC00BF00BF23
:1058D0000000000000005940666666666666EE3F9E
:1058E000CDCCCCCCCCCCF03F00F03F008BF81800F6
:1058F000DBF81410F0B203284AF8201000F25283AB
:10590000DFE810F00400DE026600E8000820142141
:1059100021221423A9F80050FEF728F814200821AA
:1059200014222123FEF722F815201521FEF76CF82A
:1059300013201521FEF768F815201321FEF764F8EF
:1059400013201321FEF760F8B9F800201420142169
:105950000623009708F0E6FE40F6F400C2F20000CD
:10596000B04606884FF47841A6F11400A9F800105B
:1059700084B2A6F12000F11F80B28AB21421142350
:10598000FDF7F4FF2046082122462123FDF7EEFF14
:10599000A6F1130085B228461521FEF735F8A6F1C9
:1059A000150086B230461521FEF72EF82846132141
:1059B0004FF6FF75FEF728F83046132146464FF4A0
:1059C0007848FEF721F8B9F8002020461421E5E2D6
:1059D00040F6F40AC2F2000A0F96BAF802602122D9
:1059E000A6F1140084B2082021462346A9F80050ED
:1059F000FDF7BCFFA6F12000F21F81B293B2142084
:105A00001422FDF7B3FFA6F1130085B21520294635
:105A1000FDF7FAFF13202946FDF7F6FFA6F1150062
:105A200085B215202946FDF7EFFF13202946FDF723
:105A3000EBFFB9F80020142021460623009708F058
:105A400071FEBAF80040BAF80250A4F11400A5F1B2
:105A50001401A9F800801FFA80F8A4F12000E21FC9
:105A60001FFA81FA80B292B251465346FDF77EFF8B
:105A7000A5F12000EA1F81B293B240464246FDF7ED
:105A800075FFA4F11300A5F1130186B28FB2304661
:105A90003946FDF7B9FFA4F1150084B22046394616
:105AA000FDF7B2FFA5F1150087B230460F9E3946CB
:105AB000FDF7AAFF20463946FDF7A6FFB9F80020FA
:105AC00040464FF4784851460DF1400A00274FF602
:105AD000FF7563E2BDF84010BDF84400BDF84230E8
